{
  "address": "0x9E925AC19E07422D359D5f0Be69Fa4eaA2d3ddcC",
  "abi": [
    {
      "inputs": [],
      "stateMutability": "nonpayable",
      "type": "constructor"
    },
    {
      "anonymous": false,
      "inputs": [
        {
          "indexed": true,
          "internalType": "address",
          "name": "owner",
          "type": "address"
        },
        {
          "indexed": true,
          "internalType": "address",
          "name": "approved",
          "type": "address"
        },
        {
          "indexed": true,
          "internalType": "uint256",
          "name": "tokenId",
          "type": "uint256"
        }
      ],
      "name": "Approval",
      "type": "event"
    },
    {
      "anonymous": false,
      "inputs": [
        {
          "indexed": true,
          "internalType": "address",
          "name": "owner",
          "type": "address"
        },
        {
          "indexed": true,
          "internalType": "address",
          "name": "operator",
          "type": "address"
        },
        {
          "indexed": false,
          "internalType": "bool",
          "name": "approved",
          "type": "bool"
        }
      ],
      "name": "ApprovalForAll",
      "type": "event"
    },
    {
      "anonymous": false,
      "inputs": [
        {
          "indexed": true,
          "internalType": "address",
          "name": "from",
          "type": "address"
        },
        {
          "indexed": true,
          "internalType": "address",
          "name": "to",
          "type": "address"
        },
        {
          "indexed": true,
          "internalType": "uint256",
          "name": "tokenId",
          "type": "uint256"
        }
      ],
      "name": "Transfer",
      "type": "event"
    },
    {
      "inputs": [],
      "name": "MAX_SUPPLY",
      "outputs": [
        {
          "internalType": "uint256",
          "name": "",
          "type": "uint256"
        }
      ],
      "stateMutability": "view",
      "type": "function"
    },
    {
      "inputs": [
        {
          "internalType": "address",
          "name": "to",
          "type": "address"
        },
        {
          "internalType": "uint256",
          "name": "tokenId",
          "type": "uint256"
        }
      ],
      "name": "approve",
      "outputs": [],
      "stateMutability": "nonpayable",
      "type": "function"
    },
    {
      "inputs": [
        {
          "internalType": "address",
          "name": "owner",
          "type": "address"
        }
      ],
      "name": "balanceOf",
      "outputs": [
        {
          "internalType": "uint256",
          "name": "",
          "type": "uint256"
        }
      ],
      "stateMutability": "view",
      "type": "function"
    },
    {
      "inputs": [
        {
          "internalType": "uint256",
          "name": "tokenId",
          "type": "uint256"
        }
      ],
      "name": "getApproved",
      "outputs": [
        {
          "internalType": "address",
          "name": "",
          "type": "address"
        }
      ],
      "stateMutability": "view",
      "type": "function"
    },
    {
      "inputs": [
        {
          "internalType": "address",
          "name": "owner",
          "type": "address"
        },
        {
          "internalType": "address",
          "name": "operator",
          "type": "address"
        }
      ],
      "name": "isApprovedForAll",
      "outputs": [
        {
          "internalType": "bool",
          "name": "",
          "type": "bool"
        }
      ],
      "stateMutability": "view",
      "type": "function"
    },
    {
      "inputs": [],
      "name": "mint",
      "outputs": [],
      "stateMutability": "nonpayable",
      "type": "function"
    },
    {
      "inputs": [
        {
          "internalType": "address",
          "name": "",
          "type": "address"
        }
      ],
      "name": "mintedTokens",
      "outputs": [
        {
          "internalType": "uint256",
          "name": "",
          "type": "uint256"
        }
      ],
      "stateMutability": "view",
      "type": "function"
    },
    {
      "inputs": [],
      "name": "name",
      "outputs": [
        {
          "internalType": "string",
          "name": "",
          "type": "string"
        }
      ],
      "stateMutability": "view",
      "type": "function"
    },
    {
      "inputs": [
        {
          "internalType": "uint256",
          "name": "tokenId",
          "type": "uint256"
        }
      ],
      "name": "ownerOf",
      "outputs": [
        {
          "internalType": "address",
          "name": "",
          "type": "address"
        }
      ],
      "stateMutability": "view",
      "type": "function"
    },
    {
      "inputs": [
        {
          "internalType": "address",
          "name": "from",
          "type": "address"
        },
        {
          "internalType": "address",
          "name": "to",
          "type": "address"
        },
        {
          "internalType": "uint256",
          "name": "tokenId",
          "type": "uint256"
        }
      ],
      "name": "safeTransferFrom",
      "outputs": [],
      "stateMutability": "nonpayable",
      "type": "function"
    },
    {
      "inputs": [
        {
          "internalType": "address",
          "name": "from",
          "type": "address"
        },
        {
          "internalType": "address",
          "name": "to",
          "type": "address"
        },
        {
          "internalType": "uint256",
          "name": "tokenId",
          "type": "uint256"
        },
        {
          "internalType": "bytes",
          "name": "data",
          "type": "bytes"
        }
      ],
      "name": "safeTransferFrom",
      "outputs": [],
      "stateMutability": "nonpayable",
      "type": "function"
    },
    {
      "inputs": [
        {
          "internalType": "address",
          "name": "operator",
          "type": "address"
        },
        {
          "internalType": "bool",
          "name": "approved",
          "type": "bool"
        }
      ],
      "name": "setApprovalForAll",
      "outputs": [],
      "stateMutability": "nonpayable",
      "type": "function"
    },
    {
      "inputs": [
        {
          "internalType": "bytes4",
          "name": "interfaceId",
          "type": "bytes4"
        }
      ],
      "name": "supportsInterface",
      "outputs": [
        {
          "internalType": "bool",
          "name": "",
          "type": "bool"
        }
      ],
      "stateMutability": "view",
      "type": "function"
    },
    {
      "inputs": [],
      "name": "symbol",
      "outputs": [
        {
          "internalType": "string",
          "name": "",
          "type": "string"
        }
      ],
      "stateMutability": "view",
      "type": "function"
    },
    {
      "inputs": [
        {
          "internalType": "uint256",
          "name": "index",
          "type": "uint256"
        }
      ],
      "name": "tokenByIndex",
      "outputs": [
        {
          "internalType": "uint256",
          "name": "",
          "type": "uint256"
        }
      ],
      "stateMutability": "view",
      "type": "function"
    },
    {
      "inputs": [],
      "name": "tokenCounter",
      "outputs": [
        {
          "internalType": "uint256",
          "name": "",
          "type": "uint256"
        }
      ],
      "stateMutability": "view",
      "type": "function"
    },
    {
      "inputs": [
        {
          "internalType": "address",
          "name": "owner",
          "type": "address"
        },
        {
          "internalType": "uint256",
          "name": "index",
          "type": "uint256"
        }
      ],
      "name": "tokenOfOwnerByIndex",
      "outputs": [
        {
          "internalType": "uint256",
          "name": "",
          "type": "uint256"
        }
      ],
      "stateMutability": "view",
      "type": "function"
    },
    {
      "inputs": [
        {
          "internalType": "uint256",
          "name": "tokenId",
          "type": "uint256"
        }
      ],
      "name": "tokenURI",
      "outputs": [
        {
          "internalType": "string",
          "name": "",
          "type": "string"
        }
      ],
      "stateMutability": "view",
      "type": "function"
    },
    {
      "inputs": [],
      "name": "totalSupply",
      "outputs": [
        {
          "internalType": "uint256",
          "name": "",
          "type": "uint256"
        }
      ],
      "stateMutability": "view",
      "type": "function"
    },
    {
      "inputs": [
        {
          "internalType": "address",
          "name": "from",
          "type": "address"
        },
        {
          "internalType": "address",
          "name": "to",
          "type": "address"
        },
        {
          "internalType": "uint256",
          "name": "tokenId",
          "type": "uint256"
        }
      ],
      "name": "transferFrom",
      "outputs": [],
      "stateMutability": "nonpayable",
      "type": "function"
    }
  ],
  "transactionHash": "0xef3cdfa790b6da162b27d66f281cc2d5145322970b6f6f98b4004319f71978d7",
  "args": [],
  "numDeployments": 1,
  "solcInputHash": "dc2af84c7175ece61c3a517e7d6b1cba",
  "bytecode": "0x608060405234620002e15762000014620002e6565b6200001e620002e6565b81519091906001600160401b03808211620002cb576000928354906001938483811c9316918215620002c0575b60209283851014620002ac578190601f9485811162000259575b508390858311600114620001f5578892620001e9575b5050600019600383901b1c191690851b1785555b8551928311620001d55783548481811c91168015620001ca575b82821014620001b6578281116200016e575b5080918311600114620001085750839482939492620000fc575b5050600019600383901b1c191690821b1790555b600a5560405161292e9081620003178239f35b015190503880620000d5565b90601f198316958486528286209286905b8882106200015657505083859697106200013c575b505050811b019055620000e9565b015160001960f88460031b161c191690553880806200012e565b80878596829496860151815501950193019062000119565b8486528186208380860160051c820192848710620001ac575b0160051c019085905b828110620001a0575050620000bb565b87815501859062000190565b9250819262000187565b634e487b7160e01b86526022600452602486fd5b90607f1690620000a9565b634e487b7160e01b85526041600452602485fd5b0151905038806200007b565b8880528489208894509190601f1984168a5b8782821062000242575050841162000228575b505050811b0185556200008f565b015160001960f88460031b161c191690553880806200021a565b8385015186558b9790950194938401930162000207565b9091508780528388208580850160051c820192868610620002a2575b918991869594930160051c01915b8281106200029357505062000065565b8a815585945089910162000283565b9250819262000275565b634e487b7160e01b87526022600452602487fd5b92607f16926200004b565b634e487b7160e01b600052604160045260246000fd5b600080fd5b60408051919082016001600160401b03811183821017620002cb576040526003825262454e5360e81b602083015256fe608060408181526004918236101561001657600080fd5b600092833560e01c91826301ffc9a714611e335750816306fdde0314611d68578163081812fc14611d48578163095ea7b314611bda5781631249c58b1461195957816318160ddd1461193a57816323b872dd146119155781632f745c591461186957816332cb6b0c1461184c57816342842e0e146118185781634f6ccce7146117845781636352211e1461175357816370a08231146117265781637241dfa0146116ee57816395d89b41146115e7578163a22cb46514611517578163b88d4fde1461145f578163c87b56dd1461016f57508063d082e381146101515763e985e9c51461010157600080fd5b3461014d578060031936011261014d5760ff8160209361011f611f00565b610127611f1b565b6001600160a01b0391821683526005875283832091168252855220549151911615158152f35b5080fd5b503461014d578160031936011261014d57602090600a549051908152f35b8391503461014d576020918260031936011261145c5781356000818152600260205260409020549092906001600160a01b031615611422578451906101b382611f66565b85516101be81611fb5565b600790818152662344394534463560c81b87820152835286516101e081611fb5565b8181526611a323229ca19b60c91b8782015286840152865161020181611fb5565b81815266046866c8a708a760cb1b8782015287840152865161022281611fb5565b8181526611a29c221c232360c91b878201526060840152865161024481611fb5565b818152662346464441433160c81b878201526080840152865161026681611fb5565b8181526608d10d514e110d60ca1b8782015260a0840152865161028881611fb5565b818152662346424534453160c81b8782015260c084015286516102aa81611fb5565b818152662345304438463360c81b8782015260e084015286866105d782516102d181611fb5565b8481526608d10e518d514d60ca1b8382015261010090818801528351946102f786611fb5565b8086526608d18d114d510d60ca1b84870152610120958689015284519561031d87611f66565b855161032881611fb5565b8281526611a3232323232360c91b868201528752855161034781611fb5565b8281526611a32322a119a160c91b8682015285880152855161036881611fb5565b8281526611a323221a9a2360c91b8682015286880152855161038981611fb5565b8281526611a32321a2221960c91b86820152606088015285516103ab81611fb5565b828152660234638424244360cc1b86820152608088015285516103cd81611fb5565b828152662344434537373560c81b8682015260a088015285516103ef81611fb5565b8281526608d191918d4e5160ca1b8682015260c0880152855161041181611fb5565b828152662343384536433960c81b8682015260e0880152855161043381611fb5565b8281526611a11922a1231960c91b8682015283880152855161045481611fb5565b8281526611a1212222a32160c91b868201528188015285519261047684611f66565b865161048181611fb5565b838152660233030303030360cc1b87820152845286516104a081611fb5565b838152662333453237323360c81b878201528685015286516104c181611fb5565b83815266046646c666466760cb1b878201528785015286516104e281611fb5565b838152660233142354532360cc1b878201526060850152865161050481611fb5565b838152662342373143314360c81b878201526080850152865161052681611fb5565b838152662334413134384360c81b8782015260a0850152865161054881611fb5565b83815266119c1c18229a2360c91b8782015260c0850152865161056a81611fb5565b8381526611999898a11c9960c91b8782015260e085015286519061058d82611fb5565b838252662330443437413160c81b878301528401528551916105ae83611fb5565b8252660233030344434360cc1b858301528201526105e66105de600a98898c06948580926128e7565b51976128e7565b5192826128e7565b5191805191848201928320845186860120146113b2575b50926105c692859261112a9561112f987f30302f737667222077696474683d2236303022206865696768743d223630302298519889967f3c73766720786d6c6e733d22687474703a2f2f7777772e77332e6f72672f323087890152870152601f60f91b60608701527f3c726563742077696474683d2236303022206865696768743d2236303022206660618701526434b6361e9160d91b60818701526106ac815180928760868a019101611eb8565b6211179f60e91b60869187019182018190527f3c67207472616e73666f726d3d227472616e736c6174652835302c353029223e60898301527f3c646566733e3c636c6970506174682069643d226c65667468616c66223e3c7260a98301527f65637420783d22302220793d2230222077696474683d2232353022206865696760c98301527f68743d22353030222f3e3c2f636c6970506174683e3c2f646566733e0000000060e98301527f3c636972636c652063783d22323530222063793d223235302220723d223235306101058301526711103334b6361e9160c11b610125830152919061087c90607d9061012d018351906107aa828289611eb8565b017f2220636c69702d706174683d2275726c28236c65667468616c6629222f3e000081527f3c646566733e3c636c6970506174682069643d22726967687468616c66223e3c601e8201527f7265637420783d223235302220793d2230222077696474683d22323530222068603e8201527f65696768743d22353030222f3e3c2f636c6970506174683e3c2f646566733e00605e820152016028907f3c636972636c652063783d22323530222063793d223235302220723d2232353081526711103334b6361e9160c11b60208201520190565b9484519085019561088e828289611eb8565b01917f2220636c69702d706174683d2275726c2823726967687468616c6629222f3e0083527f3c636972636c652063783d22323530222063793d223132352220723d22313235601f8401526711103334b6361e9160c11b9283603f8201528251906108fd826047830188611eb8565b01631110179f60e11b938460478301527f3c636972636c652063783d22323530222063793d223337352220723d22313235604b830152606b82015285519061094982607383018a611eb8565b018360738201527f3c636972636c652063783d22323530222063793d223132352220723d22333522607782015266103334b6361e9160c91b9081609782015286519061099982609e83018b611eb8565b019082609e8301527f3c636972636c652063783d22323530222063793d223337352220723d2233352260a183015260c18201528251906109dd8260c8830188611eb8565b01928160c88501527f3c7265637420783d223233352220793d22313039222077696474683d2233302260cb8501527f206865696768743d223322207a3d223130222066696c6c3d22000000000000008060eb86015281845161010496610a46828983018b611eb8565b01958601527f3c7265637420783d223233372220793d22313234222077696474683d223236226101088601528061012886015281845161014196610a8d828983018b611eb8565b01958601527f3c7265637420783d223233352220793d22313339222077696474683d22333022610145860152610165850152825161017e94610ad28287830189611eb8565b01938401527f3c7265637420783d223233352220793d22333630222077696474683d2233302261018284015272103432b4b3b43a1e91199811103334b6361e9160691b6101a28401528085516101b594610b2f828783018b611eb8565b01938401527f3c7265637420783d223232352220793d22333636222077696474683d223530226101b884015271103432b4b3b43a1e911911103334b6361e9160711b806101d88501528186516101ea95610b8c828883018c611eb8565b01948501527f3c7265637420783d223232352220793d22333730222077696474683d223530226101ed8501528061020d85015281865161021f95610bd3828883018c611eb8565b01948501527f3c7265637420783d223232352220793d22333734222077696474683d223530226102228501528061024285015281865161025495610c1a828883018c611eb8565b01948501527f3c7265637420783d223232352220793d22333738222077696474683d223530226102578501528061027785015281865161028995610c61828883018c611eb8565b01948501527f3c7265637420783d223232352220793d22333832222077696474683d2235302261028c8501526102ac8401528085516102be94610ca7828783018b611eb8565b01938401527f3c7265637420783d223234392220793d22333530222077696474683d223222206102c1840152713432b4b3b43a1e911a9811103334b6361e9160711b806102e18501528186516102f395610d04828883018c611eb8565b01948501527f3c7265637420783d223235332220793d22333530222077696474683d223222206102f68501528061031685015281865161032895610d4b828883018c611eb8565b01948501527f3c7265637420783d223235372220793d22333530222077696474683d2232222061032b8501528061034b85015281865161035d95610d92828883018c611eb8565b01948501527f3c7265637420783d223234352220793d22333530222077696474683d223222206103608501528061038085015281865161039295610dd9828883018c611eb8565b01948501527f3c7265637420783d223234312220793d22333530222077696474683d223222206103958501526103b58401528085516103c794610e1f828783018b611eb8565b01938401527f3c7265637420783d223234302220793d22333635222077696474683d223230226103ca8401527f206865696768743d223230222066696c6c3d226e6f6e6522207374726f6b653d6103ea840152601160f91b61040a840152815161040b93610e908286830188611eb8565b01928301527f3c646566733e203c706174682069643d22732d63757276652220643d224d323861040e8301527f302c323020413234302c323430203020302c31203135302c353030222066696c61042e8301527f6c3d226e6f6e6522207374726f6b653d226e6f6e65222f3e203c2f646566733e61044e8301527f3c646566733e203c706174682069643d22732d63757276652d7265766572736561046e8301527f2220643d224d35302c33353020413234302c323430203020302c31203330302c61048e8301527f3330222066696c6c3d226e6f6e6522207374726f6b653d226e6f6e65222f3e3c6104ae8301526517b232b3399f60d11b6104ce8301527f3c7465787420666f6e742d73697a653d223330222066696c6c3d2200000000006104d48301525190610fc9826104ef9485840190611eb8565b0161111f60f11b80928201527f3c746578745061746820687265663d2223732d6375727665222073746172744f6104f18201527f66667365743d22333025223e455448206973206d6f6e65793c2f746578745061610511820152623a341f60e91b610531820152661e17ba32bc3a1f60c91b92836105348301527f3c7465787420666f6e742d73697a653d223234222066696c6c3d22000000000061053b830152519061107d826105569687840190611eb8565b01928301527f3c746578745061746820687265663d2223732d63757276652d726576657273656105588301527f222073746172744f66667365743d22313025223e457468657265756d206973206105788301527f74686520776f726c6420636f6d70757465723c2f74657874506174683e0000006105988301526105b5820152631e17b39f60e11b6105bc820152651e17b9bb339f60d11b6105c0820152036105a6810184520182611fd1565b612790565b93828192829086937a184f03e93ff9f4daa797ed6e38ed64bf6a1f01000000000000000090818110156113a5575b5050886d04ee2d6d415b85acef810000000080841015611397575b5050662386f26fc1000080831015611388575b506305f5e10080831015611379575b506127108083101561136d575b5050606481101561135f575b1015611357575b90602191600192816111ce8580940161275e565b9650860101905b611321575b878761131d6112bd8961112a608d8b87519384917f7b226e616d65223a202259696e2059616e67204e46542023000000000000000089840152611226815180928b603887019101611eb8565b82017f222c20226465736372697074696f6e223a2022416e206f6e2d636861696e205960388201527f696e2059616e67204e46542e222c2022696d616765223a2022646174613a696d6058820152721859d94bdcdd99cade1b5b0ed8985cd94d8d0b606a1b60788201526112a3825180938b608b85019101611eb8565b0161227d60f01b608b82015203606d810184520182611fd1565b9261130e603d825180967f646174613a6170706c69636174696f6e2f6a736f6e3b6261736536342c000000878301526112fe81518092898686019101611eb8565b810103601d810187520185611fd1565b51928284938452830190611edb565b0390f35b600019019083906f181899199a1a9b1b9c1cb0b131b232b360811b8282061a835304918215611352579190826111d5565b6111da565b6001016111ba565b6064600291049201916111b3565b930192900489806111a7565b6008919492049101928a61119a565b6010919492049101928a61118b565b94019390910490888b611178565b8b95500491508a8061115d565b9250925092506001880180891161140f578961112f957f30302f737667222077696474683d2236303022206865696768743d22363030229561112a956114008f95968c6105c69806906128e7565b519550929550929550956105fd565b634e487b7160e01b885260118652602488fd5b845162461bcd60e51b81529081018490526014602482015273151bdad95b88191bd95cc81b9bdd08195e1a5cdd60621b6044820152606490fd5b80fd5b919050346115135760803660031901126115135761147b611f00565b90611484611f1b565b604435906064359467ffffffffffffffff861161150f573660238701121561150f57850135936114bf6114b686611ff3565b94519485611fd1565b84845286366024878901011161145c5760208661150797602461150c9a0183890137860101526114f76114f2843361220f565b612136565b6115028383836122d7565b61263a565b6121eb565b80f35b8680fd5b8280fd5b91905034611513578060031936011261151357611532611f00565b90602435918215158093036115e3576001600160a01b0316923384146115a15750338452600560205280842083855260205280842060ff1981541660ff8416179055519081527f17307eab39ab6107e8899845ad3d59bd9653f200f220920489ca2b5937696c3160203392a380f35b6020606492519162461bcd60e51b8352820152601960248201527f4552433732313a20617070726f766520746f2063616c6c6572000000000000006044820152fd5b8480fd5b82843461145c578060031936011261145c578151918160019283549384811c918186169586156116e4575b60209687851081146116d1578899509688969785829a5291826000146116aa57505060011461164f575b50505061131d929161130e910385611fd1565b91908693508083527fb10e2d527612073b26eecdfd717e6a320cf44b4afac2b0732d9fcbe2b7fa0cf65b828410611692575050508201018161130e61131d61163c565b8054848a018601528895508794909301928101611679565b60ff19168782015293151560051b8601909301935084925061130e915061131d905061163c565b634e487b7160e01b835260228a52602483fd5b92607f1692611612565b50503461014d57602036600319011261014d5760209181906001600160a01b03611716611f00565b168152600b845220549051908152f35b50503461014d57602036600319011261014d5760209061174c611747611f00565b61200f565b9051908152f35b82843461145c57602036600319011261145c5750611773602092356120d2565b90516001600160a01b039091168152f35b9050823461145c57602036600319011261145c57508035906008548210156117c0576020836117b2846126c5565b91905490519160031b1c8152f35b608490602084519162461bcd60e51b8352820152602c60248201527f455243373231456e756d657261626c653a20676c6f62616c20696e646578206f60448201526b7574206f6620626f756e647360a01b6064820152fd5b50503461014d5761150761150c9161182f36611f31565b9192519261183c84611f99565b8684526114f76114f2843361220f565b50503461014d578160031936011261014d57602090516127108152f35b82843461145c578160031936011261145c57611883611f00565b602435906118908161200f565b8210156118be576001600160a01b031682526006602090815283832091835290815290829020548251908152f35b835162461bcd60e51b8152602081870152602b60248201527f455243373231456e756d657261626c653a206f776e657220696e646578206f7560448201526a74206f6620626f756e647360a81b6064820152608490fd5b833461145c5761150c61192736611f31565b916119356114f2843361220f565b6122d7565b50503461014d578160031936011261014d576020906008549051908152f35b91905034611513578260031936011261151357600a54612710811015611ba257338452602090600b82526003838620541015611b685782519061199b82611f99565b8582523315611b27576000818152600260205260409020546119c9906001600160a01b031615155b15612712565b600854818752600984528085882055600160401b811015611b14579181611a1b61150793611a00866001611ac098016008556126c5565b90919082549060031b600019811b9283911b16911916179055565b611a243361200f565b33895260068652868920818a5286528689208290558189526007865286892055600081815260026020526040902054611a67906001600160a01b031615156119c3565b3380895260038652868920805460010190558189526002865286892080546001600160a01b031916821790558190897fddf252ad1be2c89b69c2b068fc378daa952ba7f163c4a11628f55a4df523b3ef8180a43361251e565b600a5460018101809111611b015790600b91600a5533855252822080549160018301809311611aee57505580f35b634e487b7160e01b845260119052602483fd5b634e487b7160e01b855260118452602485fd5b634e487b7160e01b875260418652602487fd5b606485848087519262461bcd60e51b845283015260248201527f4552433732313a206d696e7420746f20746865207a65726f20616464726573736044820152fd5b50905162461bcd60e51b815291820152601560248201527413585e080cc81391951cc81c195c881dd85b1b195d605a1b6044820152606490fd5b815162461bcd60e51b8152602081850152601260248201527113585e081cdd5c1c1b1e481c995858da195960721b6044820152606490fd5b905034611513578160031936011261151357611bf4611f00565b6024359290916001600160a01b0391908280611c0f876120d2565b16941693808514611cfb57803314908115611cdc575b5015611c7457848652602052842080546001600160a01b03191683179055611c4c836120d2565b167f8c5be1e5ebec7d5bd14f71427d1e84f3dd0314c0f7b2291e5b200ac8c7c3b9258480a480f35b6020608492519162461bcd60e51b8352820152603d60248201527f4552433732313a20617070726f76652063616c6c6572206973206e6f7420746f60448201527f6b656e206f776e6572206f7220617070726f76656420666f7220616c6c0000006064820152fd5b90508652600560205281862033875260205260ff828720541638611c25565b506020608492519162461bcd60e51b8352820152602160248201527f4552433732313a20617070726f76616c20746f2063757272656e74206f776e656044820152603960f91b6064820152fd5b82843461145c57602036600319011261145c5750611773602092356120f8565b82843461145c578060031936011261145c5781519181825492600184811c91818616958615611e29575b60209687851081146116d1578899509688969785829a5291826000146116aa575050600114611dce5750505061131d929161130e910385611fd1565b91908693508280527f290decd9548b62a8d60345a988386fc84ba6bc95484008f6362f93160ef3e5635b828410611e11575050508201018161130e61131d61163c565b8054848a018601528895508794909301928101611df8565b92607f1692611d92565b849134611513576020366003190112611513573563ffffffff60e01b8116809103611513576020925063780e9d6360e01b8114908115611e75575b5015158152f35b6380ac58cd60e01b811491508115611ea7575b8115611e96575b5083611e6e565b6301ffc9a760e01b14905083611e8f565b635b5e139f60e01b81149150611e88565b60005b838110611ecb5750506000910152565b8181015183820152602001611ebb565b90602091611ef481518092818552858086019101611eb8565b601f01601f1916010190565b600435906001600160a01b0382168203611f1657565b600080fd5b602435906001600160a01b0382168203611f1657565b6060906003190112611f16576001600160a01b03906004358281168103611f1657916024359081168103611f16579060443590565b610140810190811067ffffffffffffffff821117611f8357604052565b634e487b7160e01b600052604160045260246000fd5b6020810190811067ffffffffffffffff821117611f8357604052565b6040810190811067ffffffffffffffff821117611f8357604052565b90601f8019910116810190811067ffffffffffffffff821117611f8357604052565b67ffffffffffffffff8111611f8357601f01601f191660200190565b6001600160a01b0316801561202f57600052600360205260406000205490565b60405162461bcd60e51b815260206004820152602960248201527f4552433732313a2061646472657373207a65726f206973206e6f7420612076616044820152683634b21037bbb732b960b91b6064820152608490fd5b1561208d57565b60405162461bcd60e51b815260206004820152601860248201527f4552433732313a20696e76616c696420746f6b656e20494400000000000000006044820152606490fd5b6000908152600260205260409020546001600160a01b03166120f5811515612086565b90565b60008181526002602052604090205461211b906001600160a01b03161515612086565b6000908152600460205260409020546001600160a01b031690565b1561213d57565b60405162461bcd60e51b815260206004820152602d60248201527f4552433732313a2063616c6c6572206973206e6f7420746f6b656e206f776e6560448201526c1c881bdc88185c1c1c9bdd9959609a1b6064820152608490fd5b60809060208152603260208201527f4552433732313a207472616e7366657220746f206e6f6e20455243373231526560408201527131b2b4bb32b91034b6b83632b6b2b73a32b960711b60608201520190565b156121f257565b60405162461bcd60e51b81528061220b60048201612198565b0390fd5b906001600160a01b038080612223846120d2565b16931691838314938415612256575b508315612240575b50505090565b61224c919293506120f8565b161438808061223a565b909350600052600560205260406000208260005260205260ff604060002054169238612232565b1561228457565b60405162461bcd60e51b815260206004820152602560248201527f4552433732313a207472616e736665722066726f6d20696e636f72726563742060448201526437bbb732b960d91b6064820152608490fd5b6122fb916122e4846120d2565b6001600160a01b039384841693918516841461227d565b8382169384156124cd57839182612414575090506008549085600052600960205281604060002055600160401b821015611f83576123619261234887611a008560018997016008556126c5565b8286036123e1575b5061235a866120d2565b161461227d565b7fddf252ad1be2c89b69c2b068fc378daa952ba7f163c4a11628f55a4df523b3ef60008481526004602052604081206bffffffffffffffffffffffff60a01b9081815416905583825260036020526040822060001981540190558482526040822060018154019055858252600260205284604083209182541617905580a4565b6123ea9061200f565b60406000878152600660205281812083825260205288828220558881526007602052205538612350565b858303612426575b5061236192612348565b61243191925061200f565b6000198101919082116124b7576123619284926000908882526020906007825260409182842054828103612480575b508a8452838381205586845260068152828420918452528120559261241c565b8785526006825283852083865282528385205488865260068352848620828752835280858720558552600782528385205538612460565b634e487b7160e01b600052601160045260246000fd5b60405162461bcd60e51b8152602060048201526024808201527f4552433732313a207472616e7366657220746f20746865207a65726f206164646044820152637265737360e01b6064820152608490fd5b9192600092909190803b156126305761256c946040518092630a85bd0160e11b9485835233600484015287602484015260448301526080606483015281878160209a8b966084830190611edb565b03926001600160a01b03165af18491816125f0575b506125df575050503d6000146125d7573d61259b81611ff3565b906125a96040519283611fd1565b81528091833d92013e5b805191826125d45760405162461bcd60e51b81528061220b60048201612198565b01fd5b5060606125b3565b6001600160e01b0319161492509050565b9091508581813d8311612629575b6126088183611fd1565b810103126115e357516001600160e01b0319811681036115e3579038612581565b503d6125fe565b5050915050600190565b9293600093909291803b156126ba579484916126949660405180948193630a85bd0160e11b9788845233600485015260018060a01b0380921660248501526044840152608060648401528260209b8c976084830190611edb565b0393165af18491816125f057506125df575050503d6000146125d7573d61259b81611ff3565b505050915050600190565b6008548110156126fc5760086000527ff3f7a9fe364faab93b216da50a3214154f22a0a2b415b23a84c8169e8b636ee30190600090565b634e487b7160e01b600052603260045260246000fd5b1561271957565b60405162461bcd60e51b815260206004820152601c60248201527f4552433732313a20746f6b656e20616c7265616479206d696e746564000000006044820152606490fd5b9061276882611ff3565b6127756040519182611fd1565b8281528092612786601f1991611ff3565b0190602036910137565b8051156128d3576040516060810181811067ffffffffffffffff821117611f8357604052604081527f4142434445464748494a4b4c4d4e4f505152535455565758595a61626364656660208201527f6768696a6b6c6d6e6f707172737475767778797a303132333435363738392b2f604082015281516002928382018092116124b7576003918290046001600160fe1b03811681036124b757612836908594951b61275e565b936020850193829183518401925b838110612882575050505051068060011461286f57600214612864575090565b603d90600019015390565b50603d9081600019820153600119015390565b85600491979293949701918251600190603f9082828260121c16880101518453828282600c1c16880101518385015382828260061c1688010151888501531685010151878201530195929190612844565b506040516128e081611f99565b6000815290565b90600a8110156126fc5760051b019056fea26469706673582212204d8c8992b1e062c6269f4a8da61b35262f4c3c211e77470107877be74080db6764736f6c63430008110033",
  "devdoc": {
    "kind": "dev",
    "methods": {
      "approve(address,uint256)": {
        "details": "See {IERC721-approve}."
      },
      "balanceOf(address)": {
        "details": "See {IERC721-balanceOf}."
      },
      "getApproved(uint256)": {
        "details": "See {IERC721-getApproved}."
      },
      "isApprovedForAll(address,address)": {
        "details": "See {IERC721-isApprovedForAll}."
      },
      "name()": {
        "details": "See {IERC721Metadata-name}."
      },
      "ownerOf(uint256)": {
        "details": "See {IERC721-ownerOf}."
      },
      "safeTransferFrom(address,address,uint256)": {
        "details": "See {IERC721-safeTransferFrom}."
      },
      "safeTransferFrom(address,address,uint256,bytes)": {
        "details": "See {IERC721-safeTransferFrom}."
      },
      "setApprovalForAll(address,bool)": {
        "details": "See {IERC721-setApprovalForAll}."
      },
      "symbol()": {
        "details": "See {IERC721Metadata-symbol}."
      },
      "tokenByIndex(uint256)": {
        "details": "See {IERC721Enumerable-tokenByIndex}."
      },
      "tokenOfOwnerByIndex(address,uint256)": {
        "details": "See {IERC721Enumerable-tokenOfOwnerByIndex}."
      },
      "tokenURI(uint256)": {
        "details": "See {IERC721Metadata-tokenURI}."
      },
      "totalSupply()": {
        "details": "See {IERC721Enumerable-totalSupply}."
      },
      "transferFrom(address,address,uint256)": {
        "details": "See {IERC721-transferFrom}."
      }
    },
    "version": 1
  },
  "userdoc": {
    "kind": "user",
    "methods": {},
    "version": 1
  },
  "storageLayout": {
    "storage": [
      {
        "astId": 25,
        "contract": "contracts/ENS.sol:ENS",
        "label": "_name",
        "offset": 0,
        "slot": "0",
        "type": "t_string_storage"
      },
      {
        "astId": 27,
        "contract": "contracts/ENS.sol:ENS",
        "label": "_symbol",
        "offset": 0,
        "slot": "1",
        "type": "t_string_storage"
      },
      {
        "astId": 31,
        "contract": "contracts/ENS.sol:ENS",
        "label": "_owners",
        "offset": 0,
        "slot": "2",
        "type": "t_mapping(t_uint256,t_address)"
      },
      {
        "astId": 35,
        "contract": "contracts/ENS.sol:ENS",
        "label": "_balances",
        "offset": 0,
        "slot": "3",
        "type": "t_mapping(t_address,t_uint256)"
      },
      {
        "astId": 39,
        "contract": "contracts/ENS.sol:ENS",
        "label": "_tokenApprovals",
        "offset": 0,
        "slot": "4",
        "type": "t_mapping(t_uint256,t_address)"
      },
      {
        "astId": 45,
        "contract": "contracts/ENS.sol:ENS",
        "label": "_operatorApprovals",
        "offset": 0,
        "slot": "5",
        "type": "t_mapping(t_address,t_mapping(t_address,t_bool))"
      },
      {
        "astId": 1075,
        "contract": "contracts/ENS.sol:ENS",
        "label": "_ownedTokens",
        "offset": 0,
        "slot": "6",
        "type": "t_mapping(t_address,t_mapping(t_uint256,t_uint256))"
      },
      {
        "astId": 1079,
        "contract": "contracts/ENS.sol:ENS",
        "label": "_ownedTokensIndex",
        "offset": 0,
        "slot": "7",
        "type": "t_mapping(t_uint256,t_uint256)"
      },
      {
        "astId": 1082,
        "contract": "contracts/ENS.sol:ENS",
        "label": "_allTokens",
        "offset": 0,
        "slot": "8",
        "type": "t_array(t_uint256)dyn_storage"
      },
      {
        "astId": 1086,
        "contract": "contracts/ENS.sol:ENS",
        "label": "_allTokensIndex",
        "offset": 0,
        "slot": "9",
        "type": "t_mapping(t_uint256,t_uint256)"
      },
      {
        "astId": 3134,
        "contract": "contracts/ENS.sol:ENS",
        "label": "tokenCounter",
        "offset": 0,
        "slot": "10",
        "type": "t_uint256"
      },
      {
        "astId": 3138,
        "contract": "contracts/ENS.sol:ENS",
        "label": "mintedTokens",
        "offset": 0,
        "slot": "11",
        "type": "t_mapping(t_address,t_uint256)"
      }
    ],
    "types": {
      "t_address": {
        "encoding": "inplace",
        "label": "address",
        "numberOfBytes": "20"
      },
      "t_array(t_uint256)dyn_storage": {
        "base": "t_uint256",
        "encoding": "dynamic_array",
        "label": "uint256[]",
        "numberOfBytes": "32"
      },
      "t_bool": {
        "encoding": "inplace",
        "label": "bool",
        "numberOfBytes": "1"
      },
      "t_mapping(t_address,t_bool)": {
        "encoding": "mapping",
        "key": "t_address",
        "label": "mapping(address => bool)",
        "numberOfBytes": "32",
        "value": "t_bool"
      },
      "t_mapping(t_address,t_mapping(t_address,t_bool))": {
        "encoding": "mapping",
        "key": "t_address",
        "label": "mapping(address => mapping(address => bool))",
        "numberOfBytes": "32",
        "value": "t_mapping(t_address,t_bool)"
      },
      "t_mapping(t_address,t_mapping(t_uint256,t_uint256))": {
        "encoding": "mapping",
        "key": "t_address",
        "label": "mapping(address => mapping(uint256 => uint256))",
        "numberOfBytes": "32",
        "value": "t_mapping(t_uint256,t_uint256)"
      },
      "t_mapping(t_address,t_uint256)": {
        "encoding": "mapping",
        "key": "t_address",
        "label": "mapping(address => uint256)",
        "numberOfBytes": "32",
        "value": "t_uint256"
      },
      "t_mapping(t_uint256,t_address)": {
        "encoding": "mapping",
        "key": "t_uint256",
        "label": "mapping(uint256 => address)",
        "numberOfBytes": "32",
        "value": "t_address"
      },
      "t_mapping(t_uint256,t_uint256)": {
        "encoding": "mapping",
        "key": "t_uint256",
        "label": "mapping(uint256 => uint256)",
        "numberOfBytes": "32",
        "value": "t_uint256"
      },
      "t_string_storage": {
        "encoding": "bytes",
        "label": "string",
        "numberOfBytes": "32"
      },
      "t_uint256": {
        "encoding": "inplace",
        "label": "uint256",
        "numberOfBytes": "32"
      }
    }
  }
}