{
  "address": "0xB0F0C0B8B8D4a8FFb5C57a274aF608981ba11Cc4",
  "abi": [
    {
      "inputs": [
        {
          "internalType": "uint256",
          "name": "royaltyFeeNumerator_",
          "type": "uint256"
        },
        {
          "internalType": "uint256",
          "name": "minterShares_",
          "type": "uint256"
        },
        {
          "internalType": "uint256",
          "name": "creatorShares_",
          "type": "uint256"
        },
        {
          "internalType": "address",
          "name": "creator_",
          "type": "address"
        },
        {
          "internalType": "address",
          "name": "paymentSplitterReference_",
          "type": "address"
        },
        {
          "internalType": "string",
          "name": "name_",
          "type": "string"
        },
        {
          "internalType": "string",
          "name": "symbol_",
          "type": "string"
        }
      ],
      "stateMutability": "nonpayable",
      "type": "constructor"
    },
    {
      "inputs": [],
      "name": "CreatorTokenBase__InvalidTransferValidatorContract",
      "type": "error"
    },
    {
      "inputs": [],
      "name": "MinterCreatorSharedRoyalties__CreatorCannotBeZeroAddress",
      "type": "error"
    },
    {
      "inputs": [],
      "name": "MinterCreatorSharedRoyalties__CreatorSharesCannotBeZero",
      "type": "error"
    },
    {
      "inputs": [],
      "name": "MinterCreatorSharedRoyalties__MinterCannotBeZeroAddress",
      "type": "error"
    },
    {
      "inputs": [],
      "name": "MinterCreatorSharedRoyalties__MinterHasAlreadyBeenAssignedToTokenId",
      "type": "error"
    },
    {
      "inputs": [],
      "name": "MinterCreatorSharedRoyalties__MinterSharesCannotBeZero",
      "type": "error"
    },
    {
      "inputs": [],
      "name": "MinterCreatorSharedRoyalties__PaymentSplitterDoesNotExistForSpecifiedTokenId",
      "type": "error"
    },
    {
      "inputs": [],
      "name": "MinterCreatorSharedRoyalties__PaymentSplitterReferenceCannotBeZeroAddress",
      "type": "error"
    },
    {
      "inputs": [],
      "name": "MinterCreatorSharedRoyalties__RoyaltyFeeWillExceedSalePrice",
      "type": "error"
    },
    {
      "inputs": [],
      "name": "ShouldNotMintToBurnAddress",
      "type": "error"
    },
    {
      "anonymous": false,
      "inputs": [
        {
          "indexed": true,
          "internalType": "address",
          "name": "owner",
          "type": "address"
        },
        {
          "indexed": true,
          "internalType": "address",
          "name": "approved",
          "type": "address"
        },
        {
          "indexed": true,
          "internalType": "uint256",
          "name": "tokenId",
          "type": "uint256"
        }
      ],
      "name": "Approval",
      "type": "event"
    },
    {
      "anonymous": false,
      "inputs": [
        {
          "indexed": true,
          "internalType": "address",
          "name": "owner",
          "type": "address"
        },
        {
          "indexed": true,
          "internalType": "address",
          "name": "operator",
          "type": "address"
        },
        {
          "indexed": false,
          "internalType": "bool",
          "name": "approved",
          "type": "bool"
        }
      ],
      "name": "ApprovalForAll",
      "type": "event"
    },
    {
      "anonymous": false,
      "inputs": [
        {
          "indexed": false,
          "internalType": "bool",
          "name": "autoApproved",
          "type": "bool"
        }
      ],
      "name": "AutomaticApprovalOfTransferValidatorSet",
      "type": "event"
    },
    {
      "anonymous": false,
      "inputs": [
        {
          "indexed": true,
          "internalType": "address",
          "name": "previousOwner",
          "type": "address"
        },
        {
          "indexed": true,
          "internalType": "address",
          "name": "newOwner",
          "type": "address"
        }
      ],
      "name": "OwnershipTransferred",
      "type": "event"
    },
    {
      "anonymous": false,
      "inputs": [
        {
          "indexed": true,
          "internalType": "address",
          "name": "from",
          "type": "address"
        },
        {
          "indexed": true,
          "internalType": "address",
          "name": "to",
          "type": "address"
        },
        {
          "indexed": true,
          "internalType": "uint256",
          "name": "tokenId",
          "type": "uint256"
        }
      ],
      "name": "Transfer",
      "type": "event"
    },
    {
      "anonymous": false,
      "inputs": [
        {
          "indexed": false,
          "internalType": "address",
          "name": "oldValidator",
          "type": "address"
        },
        {
          "indexed": false,
          "internalType": "address",
          "name": "newValidator",
          "type": "address"
        }
      ],
      "name": "TransferValidatorUpdated",
      "type": "event"
    },
    {
      "inputs": [],
      "name": "DEFAULT_TRANSFER_VALIDATOR",
      "outputs": [
        {
          "internalType": "address",
          "name": "",
          "type": "address"
        }
      ],
      "stateMutability": "view",
      "type": "function"
    },
    {
      "inputs": [],
      "name": "FEE_DENOMINATOR",
      "outputs": [
        {
          "internalType": "uint256",
          "name": "",
          "type": "uint256"
        }
      ],
      "stateMutability": "view",
      "type": "function"
    },
    {
      "inputs": [],
      "name": "MAX_SUPPLY",
      "outputs": [
        {
          "internalType": "uint256",
          "name": "",
          "type": "uint256"
        }
      ],
      "stateMutability": "view",
      "type": "function"
    },
    {
      "inputs": [
        {
          "internalType": "address",
          "name": "to",
          "type": "address"
        },
        {
          "internalType": "uint256",
          "name": "tokenId",
          "type": "uint256"
        }
      ],
      "name": "approve",
      "outputs": [],
      "stateMutability": "nonpayable",
      "type": "function"
    },
    {
      "inputs": [],
      "name": "autoApproveTransfersFromValidator",
      "outputs": [
        {
          "internalType": "bool",
          "name": "",
          "type": "bool"
        }
      ],
      "stateMutability": "view",
      "type": "function"
    },
    {
      "inputs": [
        {
          "internalType": "address",
          "name": "owner",
          "type": "address"
        }
      ],
      "name": "balanceOf",
      "outputs": [
        {
          "internalType": "uint256",
          "name": "",
          "type": "uint256"
        }
      ],
      "stateMutability": "view",
      "type": "function"
    },
    {
      "inputs": [
        {
          "internalType": "uint256",
          "name": "tokenId",
          "type": "uint256"
        }
      ],
      "name": "burn",
      "outputs": [],
      "stateMutability": "nonpayable",
      "type": "function"
    },
    {
      "inputs": [],
      "name": "creator",
      "outputs": [
        {
          "internalType": "address",
          "name": "",
          "type": "address"
        }
      ],
      "stateMutability": "view",
      "type": "function"
    },
    {
      "inputs": [],
      "name": "creatorShares",
      "outputs": [
        {
          "internalType": "uint256",
          "name": "",
          "type": "uint256"
        }
      ],
      "stateMutability": "view",
      "type": "function"
    },
    {
      "inputs": [
        {
          "internalType": "uint256",
          "name": "tokenId",
          "type": "uint256"
        }
      ],
      "name": "getApproved",
      "outputs": [
        {
          "internalType": "address",
          "name": "",
          "type": "address"
        }
      ],
      "stateMutability": "view",
      "type": "function"
    },
    {
      "inputs": [
        {
          "internalType": "uint256",
          "name": "tokenId",
          "type": "uint256"
        }
      ],
      "name": "getColors",
      "outputs": [
        {
          "components": [
            {
              "internalType": "string",
              "name": "leftHalf",
              "type": "string"
            },
            {
              "internalType": "string",
              "name": "rightHalf",
              "type": "string"
            }
          ],
          "internalType": "struct EthereumVision.Colors",
          "name": "",
          "type": "tuple"
        }
      ],
      "stateMutability": "view",
      "type": "function"
    },
    {
      "inputs": [],
      "name": "getTransferValidationFunction",
      "outputs": [
        {
          "internalType": "bytes4",
          "name": "functionSignature",
          "type": "bytes4"
        },
        {
          "internalType": "bool",
          "name": "isViewFunction",
          "type": "bool"
        }
      ],
      "stateMutability": "pure",
      "type": "function"
    },
    {
      "inputs": [],
      "name": "getTransferValidator",
      "outputs": [
        {
          "internalType": "address",
          "name": "validator",
          "type": "address"
        }
      ],
      "stateMutability": "view",
      "type": "function"
    },
    {
      "inputs": [
        {
          "internalType": "address",
          "name": "owner",
          "type": "address"
        },
        {
          "internalType": "address",
          "name": "operator",
          "type": "address"
        }
      ],
      "name": "isApprovedForAll",
      "outputs": [
        {
          "internalType": "bool",
          "name": "isApproved",
          "type": "bool"
        }
      ],
      "stateMutability": "view",
      "type": "function"
    },
    {
      "inputs": [
        {
          "internalType": "string",
          "name": "leftColor",
          "type": "string"
        },
        {
          "internalType": "string",
          "name": "rightColor",
          "type": "string"
        }
      ],
      "name": "mint",
      "outputs": [],
      "stateMutability": "nonpayable",
      "type": "function"
    },
    {
      "inputs": [
        {
          "internalType": "address",
          "name": "",
          "type": "address"
        }
      ],
      "name": "mintedTokens",
      "outputs": [
        {
          "internalType": "uint256",
          "name": "",
          "type": "uint256"
        }
      ],
      "stateMutability": "view",
      "type": "function"
    },
    {
      "inputs": [
        {
          "internalType": "uint256",
          "name": "tokenId",
          "type": "uint256"
        }
      ],
      "name": "minterOf",
      "outputs": [
        {
          "internalType": "address",
          "name": "",
          "type": "address"
        }
      ],
      "stateMutability": "view",
      "type": "function"
    },
    {
      "inputs": [],
      "name": "minterShares",
      "outputs": [
        {
          "internalType": "uint256",
          "name": "",
          "type": "uint256"
        }
      ],
      "stateMutability": "view",
      "type": "function"
    },
    {
      "inputs": [],
      "name": "name",
      "outputs": [
        {
          "internalType": "string",
          "name": "",
          "type": "string"
        }
      ],
      "stateMutability": "view",
      "type": "function"
    },
    {
      "inputs": [],
      "name": "owner",
      "outputs": [
        {
          "internalType": "address",
          "name": "",
          "type": "address"
        }
      ],
      "stateMutability": "view",
      "type": "function"
    },
    {
      "inputs": [
        {
          "internalType": "uint256",
          "name": "tokenId",
          "type": "uint256"
        }
      ],
      "name": "ownerOf",
      "outputs": [
        {
          "internalType": "address",
          "name": "",
          "type": "address"
        }
      ],
      "stateMutability": "view",
      "type": "function"
    },
    {
      "inputs": [
        {
          "internalType": "uint256",
          "name": "tokenId",
          "type": "uint256"
        }
      ],
      "name": "paymentSplitterOf",
      "outputs": [
        {
          "internalType": "address",
          "name": "",
          "type": "address"
        }
      ],
      "stateMutability": "view",
      "type": "function"
    },
    {
      "inputs": [],
      "name": "paymentSplitterReference",
      "outputs": [
        {
          "internalType": "address",
          "name": "",
          "type": "address"
        }
      ],
      "stateMutability": "view",
      "type": "function"
    },
    {
      "inputs": [
        {
          "internalType": "address",
          "name": "minter",
          "type": "address"
        }
      ],
      "name": "paymentSplittersOfMinter",
      "outputs": [
        {
          "internalType": "address[]",
          "name": "",
          "type": "address[]"
        }
      ],
      "stateMutability": "view",
      "type": "function"
    },
    {
      "inputs": [
        {
          "internalType": "uint256",
          "name": "tokenId",
          "type": "uint256"
        },
        {
          "internalType": "address",
          "name": "coin",
          "type": "address"
        },
        {
          "internalType": "enum MinterCreatorSharedRoyaltiesBase.ReleaseTo",
          "name": "releaseTo",
          "type": "uint8"
        }
      ],
      "name": "releasableERC20Funds",
      "outputs": [
        {
          "internalType": "uint256",
          "name": "",
          "type": "uint256"
        }
      ],
      "stateMutability": "view",
      "type": "function"
    },
    {
      "inputs": [
        {
          "internalType": "uint256",
          "name": "tokenId",
          "type": "uint256"
        },
        {
          "internalType": "enum MinterCreatorSharedRoyaltiesBase.ReleaseTo",
          "name": "releaseTo",
          "type": "uint8"
        }
      ],
      "name": "releasableNativeFunds",
      "outputs": [
        {
          "internalType": "uint256",
          "name": "",
          "type": "uint256"
        }
      ],
      "stateMutability": "view",
      "type": "function"
    },
    {
      "inputs": [
        {
          "internalType": "uint256",
          "name": "tokenId",
          "type": "uint256"
        },
        {
          "internalType": "address",
          "name": "coin",
          "type": "address"
        },
        {
          "internalType": "enum MinterCreatorSharedRoyaltiesBase.ReleaseTo",
          "name": "releaseTo",
          "type": "uint8"
        }
      ],
      "name": "releaseERC20Funds",
      "outputs": [],
      "stateMutability": "nonpayable",
      "type": "function"
    },
    {
      "inputs": [
        {
          "internalType": "uint256",
          "name": "tokenId",
          "type": "uint256"
        },
        {
          "internalType": "enum MinterCreatorSharedRoyaltiesBase.ReleaseTo",
          "name": "releaseTo",
          "type": "uint8"
        }
      ],
      "name": "releaseNativeFunds",
      "outputs": [],
      "stateMutability": "nonpayable",
      "type": "function"
    },
    {
      "inputs": [],
      "name": "renounceOwnership",
      "outputs": [],
      "stateMutability": "nonpayable",
      "type": "function"
    },
    {
      "inputs": [],
      "name": "royaltyFeeNumerator",
      "outputs": [
        {
          "internalType": "uint256",
          "name": "",
          "type": "uint256"
        }
      ],
      "stateMutability": "view",
      "type": "function"
    },
    {
      "inputs": [
        {
          "internalType": "uint256",
          "name": "tokenId",
          "type": "uint256"
        },
        {
          "internalType": "uint256",
          "name": "salePrice",
          "type": "uint256"
        }
      ],
      "name": "royaltyInfo",
      "outputs": [
        {
          "internalType": "address",
          "name": "",
          "type": "address"
        },
        {
          "internalType": "uint256",
          "name": "",
          "type": "uint256"
        }
      ],
      "stateMutability": "view",
      "type": "function"
    },
    {
      "inputs": [
        {
          "internalType": "address",
          "name": "from",
          "type": "address"
        },
        {
          "internalType": "address",
          "name": "to",
          "type": "address"
        },
        {
          "internalType": "uint256",
          "name": "tokenId",
          "type": "uint256"
        }
      ],
      "name": "safeTransferFrom",
      "outputs": [],
      "stateMutability": "nonpayable",
      "type": "function"
    },
    {
      "inputs": [
        {
          "internalType": "address",
          "name": "from",
          "type": "address"
        },
        {
          "internalType": "address",
          "name": "to",
          "type": "address"
        },
        {
          "internalType": "uint256",
          "name": "tokenId",
          "type": "uint256"
        },
        {
          "internalType": "bytes",
          "name": "data",
          "type": "bytes"
        }
      ],
      "name": "safeTransferFrom",
      "outputs": [],
      "stateMutability": "nonpayable",
      "type": "function"
    },
    {
      "inputs": [
        {
          "internalType": "address",
          "name": "operator",
          "type": "address"
        },
        {
          "internalType": "bool",
          "name": "approved",
          "type": "bool"
        }
      ],
      "name": "setApprovalForAll",
      "outputs": [],
      "stateMutability": "nonpayable",
      "type": "function"
    },
    {
      "inputs": [
        {
          "internalType": "bool",
          "name": "autoApprove",
          "type": "bool"
        }
      ],
      "name": "setAutomaticApprovalOfTransfersFromValidator",
      "outputs": [],
      "stateMutability": "nonpayable",
      "type": "function"
    },
    {
      "inputs": [
        {
          "internalType": "address",
          "name": "transferValidator_",
          "type": "address"
        }
      ],
      "name": "setTransferValidator",
      "outputs": [],
      "stateMutability": "nonpayable",
      "type": "function"
    },
    {
      "inputs": [
        {
          "internalType": "bytes4",
          "name": "interfaceId",
          "type": "bytes4"
        }
      ],
      "name": "supportsInterface",
      "outputs": [
        {
          "internalType": "bool",
          "name": "",
          "type": "bool"
        }
      ],
      "stateMutability": "view",
      "type": "function"
    },
    {
      "inputs": [],
      "name": "symbol",
      "outputs": [
        {
          "internalType": "string",
          "name": "",
          "type": "string"
        }
      ],
      "stateMutability": "view",
      "type": "function"
    },
    {
      "inputs": [],
      "name": "tokenCounter",
      "outputs": [
        {
          "internalType": "uint256",
          "name": "",
          "type": "uint256"
        }
      ],
      "stateMutability": "view",
      "type": "function"
    },
    {
      "inputs": [
        {
          "internalType": "uint256",
          "name": "tokenId",
          "type": "uint256"
        }
      ],
      "name": "tokenURI",
      "outputs": [
        {
          "internalType": "string",
          "name": "",
          "type": "string"
        }
      ],
      "stateMutability": "view",
      "type": "function"
    },
    {
      "inputs": [
        {
          "internalType": "address",
          "name": "from",
          "type": "address"
        },
        {
          "internalType": "address",
          "name": "to",
          "type": "address"
        },
        {
          "internalType": "uint256",
          "name": "tokenId",
          "type": "uint256"
        }
      ],
      "name": "transferFrom",
      "outputs": [],
      "stateMutability": "nonpayable",
      "type": "function"
    },
    {
      "inputs": [
        {
          "internalType": "address",
          "name": "newOwner",
          "type": "address"
        }
      ],
      "name": "transferOwnership",
      "outputs": [],
      "stateMutability": "nonpayable",
      "type": "function"
    }
  ],
  "transactionHash": "0xc35b3f00c58f48eaa25f7d8a9856e1eab6b28013fbacb650657e38ba9b33059b",
  "args": [
    1000,
    50,
    50,
    "0xEE00C9792DED97cB81D24FD9D68a5d8c50b44646",
    "0xb709D18D0b1f5904CD5Ce0d6dfD11839097f7Cdd",
    "Ethereum Vision",
    "ETHV"
  ],
  "numDeployments": 1,
  "solcInputHash": "392eb9b3649c6c2bc9c2ba1f4d8e38fd",
  "bytecode": "0x610120604081815234620008ed57600062003da5803803809162000024828762000924565b853983019260e081850312620008e9578051602082015184830151916200004e6060850162000948565b936200005d6080820162000948565b60a08201519098906001600160401b0381116200049c5781620000829184016200095d565b60c083015190926001600160401b038211620008e557620000a59291016200095d565b908751620000b381620008f2565b878152885190620000c482620008f2565b8882528051906001600160401b038211620008d1578954600181811c91168015620008c6575b6020821014620008b2579081601f8493116200085d575b50602090601f8311600114620007f4578b92620007e8575b50508160011b916000199060031b1c19161788555b8051906001600160401b038211620007d457600154600181811c91168015620007c9575b6020821014620007b5579081601f84931162000753575b50602090601f8311600114620006dc578a92620006d0575b50508160011b916000199060031b1c1916176001555b8051906001600160401b038211620006bc57600654600181811c91168015620006b1575b60208210146200069d579081601f8493116200063b575b50602090601f8311600114620005c4578992620005b8575b50508160011b916000199060031b1c1916176006555b8051906001600160401b038211620005a457600754600181811c9116801562000599575b602082101462000585579081601f84931162000523575b50602090601f8311600114620004ac578892620004a0575b50508160011b916000199060031b1c1916176007555b60088054336001600160a01b0319808316821790935588516001600160a01b03939290919084167f8be0079c531659141344cd1fd0a4f28419497f9722a3daafe3b4186f6b6457e08a80a38781527fcc5dc080ff977b3c3a211fa63ab74f90f658f5ba9d3236e92c8f59570f442aac8973721c002b0059009a671d00ad1700c9748146cd1b92836020820152a1803b62000439575b50612710831162000428578315620004175784156200040657818616918215620003f5578916918215620003e45783600a5584600b5585600c5581600d541617600d55600e541617600e5560805260a05260c05260e052610100928352601255516133709182620009d583396080518281816118c10152611e45015260a05182818161116b015281816116850152611cd9015260c051828181610f220152818161114a01526116b0015260e0518281816110e401528181611dd801528181611f75015281816122a90152818161271c015261282a015251818181611089015261187a0152f35b88516322ca44ff60e11b8152600490fd5b88516382d6f02560e01b8152600490fd5b8751632a3ccc4960e01b8152600490fd5b875163774439b360e01b8152600490fd5b8751633eca614760e01b8152600490fd5b803b156200049c5787809160448b518094819363fb2de5d760e01b83523060048401526102d160248401525af115620002fe579096906001600160401b038111620004885788529538620002fe565b634e487b7160e01b82526041600452602482fd5b8780fd5b01519050388062000253565b6007895260008051602062003d458339815191529250601f198416895b8181106200050a5750908460019594939210620004f0575b505050811b0160075562000269565b015160001960f88460031b161c19169055388080620004e1565b92936020600181928786015181550195019301620004c9565b6007895290915060008051602062003d45833981519152601f840160051c810191602085106200057a575b90601f859493920160051c01905b8181106200056b57506200023b565b8981558493506001016200055c565b90915081906200054e565b634e487b7160e01b88526022600452602488fd5b90607f169062000224565b634e487b7160e01b87526041600452602487fd5b015190503880620001ea565b60068a5260008051602062003d858339815191529250601f1984168a5b81811062000622575090846001959493921062000608575b505050811b0160065562000200565b015160001960f88460031b161c19169055388080620005f9565b92936020600181928786015181550195019301620005e1565b60068a5290915060008051602062003d85833981519152601f840160051c8101916020851062000692575b90601f859493920160051c01905b818110620006835750620001d2565b8a815584935060010162000674565b909150819062000666565b634e487b7160e01b89526022600452602489fd5b90607f1690620001bb565b634e487b7160e01b88526041600452602488fd5b01519050388062000181565b60018b5260008051602062003d658339815191529250601f1984168b5b8181106200073a575090846001959493921062000720575b505050811b0160015562000197565b015160001960f88460031b161c1916905538808062000711565b92936020600181928786015181550195019301620006f9565b60018b5290915060008051602062003d65833981519152601f840160051c81019160208510620007aa575b90601f859493920160051c01905b8181106200079b575062000169565b8b81558493506001016200078c565b90915081906200077e565b634e487b7160e01b8a52602260045260248afd5b90607f169062000152565b634e487b7160e01b89526041600452602489fd5b01519050388062000119565b8b805260208c209250601f1984168c5b8181106200084457509084600195949392106200082a575b505050811b0188556200012e565b015160001960f88460031b161c191690553880806200081c565b9293602060018192878601518155019501930162000804565b9091508a805260208b20601f840160051c81019160208510620008a7575b90601f859493920160051c01905b81811062000898575062000101565b8c815584935060010162000889565b90915081906200087b565b634e487b7160e01b8b52602260045260248bfd5b90607f1690620000ea565b634e487b7160e01b8a52604160045260248afd5b8880fd5b5080fd5b600080fd5b602081019081106001600160401b038211176200090e57604052565b634e487b7160e01b600052604160045260246000fd5b601f909101601f19168101906001600160401b038211908210176200090e57604052565b51906001600160a01b0382168203620008ed57565b919080601f84011215620008ed578251906001600160401b0382116200090e576040519160209162000999601f8301601f191684018562000924565b818452828287010111620008ed5760005b818110620009c057508260009394955001015290565b8581018301518482018401528201620009aa56fe6080806040526004361015610014575b600080fd5b600090813560e01c90816301463546146123935750806301ffc9a7146122d857806302d05d3f1461229357806306fdde03146121c2578063081812fc146121a3578063095ea7b31461203c578063098144d4146120215780630d705df614611ff957806323b872dd14611fd4578063261a2f3014611eaa5780632a55205a14611e2257806332cb6b0c1461043757806333c93f5814611d1657806336d396f414611cfc5780633bdec33e14611cc157806342842e0e14611c8e57806342966c6814611abd5780636221d13c14611a975780636352211e14611a665780636b6b3c6314611a3357806370a082311461199d578063715018a61461193f5780637241dfa01461190657806377f33fe9146118e457806381ddcc1f146118a957806386c24508146118645780638aa0fdad14610f6e5780638da5cb5b14610f45578063939a6c1c14610f0a57806395d89b4114610e285780639e05d24014610dba5780639e942ace14610d87578063a22cb46514610cb5578063a9fc664e14610ba4578063b88d4fde14610b17578063c87b56dd1461045f578063d082e38114610441578063d73792a914610437578063e985e9c514610400578063ee62ad6314610371578063f2fde38b146102ab5763f3119682146101f057600080fd5b346102a8576020806003193601126102a4576102a060408093600435606085845161021a816124ed565b8281520152600081815260026020526040902054610242906001600160a01b031615156130b3565b815260148452209161028d61026f600186519561025e876124ed565b610267816128de565b8752016128de565b918085019283528551958695828752519186015260608501906123e4565b9051838203601f190160408501526123e4565b0390f35b5080fd5b80fd5b50346102a85760203660031901126102a8576102c5612409565b6102cd6129c2565b6001600160a01b0390811690811561031d57600854826001600160601b0360a01b821617600855167f8be0079c531659141344cd1fd0a4f28419497f9722a3daafe3b4186f6b6457e0600080a380f35b60405162461bcd60e51b815260206004820152602660248201527f4f776e61626c653a206e6577206f776e657220697320746865207a65726f206160448201526564647265737360d01b6064820152608490fd5b50346102a8576020806003193601126102a4576001600160a01b039182610396612409565b16815260118252604081209260405193848592858354928381520192855285852094905b868383106103e45785906103d08287038361253e565b6102a06040519282849384528301906125cf565b86548216855260019687019689965094019391909101906103ba565b50346102a85760403660031901126102a857602061042d61041f612409565b61042761241f565b9061260c565b6040519015158152f35b505061000f61249d565b50346102a857806003193601126102a8576020601254604051908152f35b50346102a857602090816003193601126102a857600435600081815260026020526040902054610499906001600160a01b031615156130b3565b8082526014835260408220906108928461088d60d46040516104ba816124ed565b6104c3876128de565b81526104d260018098016128de565b908185820152516040519485927f3c73766720786d6c6e733d22687474703a2f2f7777772e77332e6f72672f3230828501527f30302f737667222077696474683d2236303022206865696768743d22363030226040850152601f60f91b60608501527f3c67207472616e73666f726d3d227472616e736c6174652835302c353029223e60618501527f3c646566733e3c636c6970506174682069643d226c65667468616c66223e3c7260818501527f65637420783d22302220793d2230222077696474683d2232353022206865696760a18501527f68743d22353030222f3e3c2f636c6970506174683e3c2f646566733e0000000060c185015261085c6106fa607d61061660dd88016028907f3c636972636c652063783d22323530222063793d223235302220723d2232353081526711103334b6361e9160c11b60208201520190565b948651908701956106288282896123c1565b017f2220636c69702d706174683d2275726c28236c65667468616c6629222f3e000081527f3c646566733e3c636c6970506174682069643d22726967687468616c66223e3c601e8201527f7265637420783d223235302220793d2230222077696474683d22323530222068603e8201527f65696768743d22353030222f3e3c2f636c6970506174683e3c2f646566733e00605e820152016028907f3c636972636c652063783d22323530222063793d223235302220723d2232353081526711103334b6361e9160c11b60208201520190565b8251838f01959161070c8282896123c1565b01947f2220636c69702d706174683d2275726c2823726967687468616c6629222f3e0086527f3c636972636c652063783d22323530222063793d223132352220723d22313235601f8701526711103334b6361e9160c11b9586603f82015282519061077b8260478301896123c1565b016211179f60e91b968760478301527f3c636972636c652063783d22323530222063793d223337352220723d22313235604a830152606a8201528451906107c68260728301856123c1565b01631110179f60e11b60728201527f3c636972636c652063783d22323530222063793d223132352220723d22333522607682015261081c66103334b6361e9160c91b95866096840152518093609d8401906123c1565b019285609d8501527f3c636972636c652063783d22323530222063793d223337352220723d2233352260a085015260c084015251809360c78401906123c1565b019060c7820152631e17b39f60e11b60ca820152651e17b9bb339f60d11b60ce8201520360b481018452018261253e565b613128565b918190847a184f03e93ff9f4daa797ed6e38ed64bf6a1f0100000000000000008381811015610b09575b5050866d04ee2d6d415b85acef810000000080861015610afd575b5050662386f26fc1000080851015610af0575b506305f5e10080851015610ae3575b5061271080851015610ad6575b506064841015610ac8575b60219082600a80961015610ac1575b9392919061092f8382016130f6565b9750870101905b610a8b575b86610a258661088d60978a6040519384917f7b226e616d65223a2022457468657265756d20566973696f6e2023000000000088840152610984815180928a603b870191016123c1565b82017f222c20226465736372697074696f6e223a2022416e206f6e2d636861696e2045603b8201527f7468657265756d20566973696f6e204e46542e222c2022696d616765223a2022605b8201527f646174613a696d6167652f7376672b786d6c3b6261736536342c000000000000607b820152610a0b825180938a6095850191016123c1565b0161227d60f01b609582015203607781018452018261253e565b90610a77603d60405180947f646174613a6170706c69636174696f6e2f6a736f6e3b6261736536342c00000085830152610a67815180928786860191016123c1565b810103601d81018552018361253e565b6102a06040519282849384528301906123e4565b600019019083906f181899199a1a9b1b9c1cb0b131b232b360811b8282061a835304918215610abc57919082610936565b61093b565b0182610920565b606490930492600201610911565b6004919404930138610906565b60089194049301386108f9565b60109194049301386108ea565b909404930186386108d7565b0493506040905038806108bc565b50346102a85760803660031901126102a857610b31612409565b610b3961241f565b90606435906044356001600160401b038311610ba05736602384011215610ba057610b9d93610b75610b9894369060248160040135910161257a565b92610b88610b838433612ba0565b612ac7565b610b93838383612c55565b613028565b612b7c565b80f35b8480fd5b50346102a85760203660031901126102a857610bbe612409565b610bc66129c2565b6001600160a01b03908181169081151580823b1581610cad575b50610c9b577fcc5dc080ff977b3c3a211fa63ab74f90f658f5ba9d3236e92c8f59570f442aac60408695610c12612984565b90825191168152856020820152a16008805460ff60a01b1916600160a01b179055600980546001600160a01b03191684179055610c4d575050f35b3b610c56575b50f35b803b15610c985781809160446040518094819363fb2de5d760e01b83523060048401526102d160248401525af115610c5357610c91906124da565b6102a85780f35b50fd5b6040516332483afb60e01b8152600490fd5b905038610be0565b50346102a85760403660031901126102a857610ccf612409565b6024359081151580920361000f576001600160a01b031690338214610d425733835260056020526040832082600052602052604060002060ff1981541660ff83161790556040519081527f17307eab39ab6107e8899845ad3d59bd9653f200f220920489ca2b5937696c3160203392a380f35b60405162461bcd60e51b815260206004820152601960248201527f4552433732313a20617070726f766520746f2063616c6c6572000000000000006044820152606490fd5b50346102a85760203660031901126102a8576020906004358152600f8252604060018060a01b0391205416604051908152f35b50346102a85760203660031901126102a85760043580151580910361000f5760207f6787c7f9a80aa0f5ceddab2c54f1f5169c0b88e75dd5e19d5e858a64144c7dbc91610e056129c2565b6009805460ff60a01b191660a083901b60ff60a01b16179055604051908152a180f35b50346102a857806003193601126102a8576040516000600754610e4a816128a4565b80845290600190818116908115610ee35750600114610e88575b6102a084610e748186038261253e565b6040519182916020835260208301906123e4565b6007600090815292507fa66cc928b5edb82af9bd49922954155ab7b0942694bea4ce44661d9a8736c6885b828410610ecb575050508101602001610e7482610e64565b80546020858701810191909152909301928101610eb3565b60ff191660208087019190915292151560051b85019092019250610e749150839050610e64565b50346102a857806003193601126102a85760206040517f00000000000000000000000000000000000000000000000000000000000000008152f35b50346102a857806003193601126102a8576008546040516001600160a01b039091168152602090f35b50346102a85760403660031901126102a8576004356001600160401b0381116102a457610f9f9036906004016125b1565b906024356001600160401b0381116102a457610fbf9036906004016125b1565b60125461271081101561182a5733835260136020526003604084205410156117ed57604051602081019061101e6020828851610ffe8187858d016123c1565b810187519061101282858301868c016123c1565b0103808452018261253e565b51902091828452601560205260ff6040852054166117a957604051602081018181106001600160401b0382111761179357604052848152331561178157828552600f60205260408520546001600160a01b0390811661176f576e5af43d82803e903d91602b57fd5bf37f0000000000000000000000000000000000000000000000000000000000000000763d602d80600a3d3981f3363d3d373d3d3d363d7300000062ffffff8260881c1617885260781b17602052806037600988f016908115611731577f00000000000000000000000000000000000000000000000000000000000000001633810361163c5760405190611118826124ed565b600182526020368184013761112c8261326e565b526040519061113a826124ed565b600182526020368184013761118f7f00000000000000000000000000000000000000000000000000000000000000007f0000000000000000000000000000000000000000000000000000000000000000612e29565b6111988361326e565b52823b1561163857604051633713060f60e11b8152918891839182916111c29190600484016132a1565b038183865af1801561162d57908791611615575b50505b838652601060205260408620816001600160601b0360a01b8254161790553386526011602052604086208054906801000000000000000082101561160157600182018082558210156115ed578752602080882090910180546001600160a01b03199081169093179055848752600f815260408088208054909316331790925560008581526002909152205461131891610b9891611282906001600160a01b031615155b156132ee565b61128c8533612e36565b6000858152600260205260409020546112af906001600160a01b0316151561127c565b33875260036020526040872060018154019055848752600260205260408720336001600160601b0360a01b8254161790558433887fddf252ad1be2c89b69c2b068fc378daa952ba7f163c4a11628f55a4df523b3ef8180a46113118533612e36565b8433612f0c565b60405194611325866124ed565b85526020850152825260146020526040822083518051906001600160401b0382116115d95761135483546128a4565b601f8111611594575b50602090601f831160011461152857918060209492600194889261151d575b5050600019600383901b1c191690831b1781555b019301519283516001600160401b038111611509576113af82546128a4565b601f81116114c4575b50602094601f8211600114611461579484958293949592611456575b50508160011b916000199060031b1c19161790555b8152601560205260408120600160ff1982541617905560125460018101809111611442576012553381526013602052604081208054906001820180921161142e575580f35b634e487b7160e01b83526011600452602483fd5b634e487b7160e01b82526011600452602482fd5b0151905038806113d4565b601f198216958386526020862091865b8881106114ac57508360019596979810611493575b505050811b0190556113e9565b015160001960f88460031b161c19169055388080611486565b91926020600181928685015181550194019201611471565b82855260208520601f830160051c810191602084106114ff575b601f0160051c01905b8181106114f457506113b8565b8581556001016114e7565b90915081906114de565b634e487b7160e01b84526041600452602484fd5b01519050388061137c565b908386526020862091865b601f198516811061157c5750926020949260019492859383601f19811610611563575b505050811b018155611390565b015160001960f88460031b161c19169055388080611556565b91926020600181928685015181550194019201611533565b83865260208620601f840160051c810191602085106115cf575b601f0160051c01905b8181106115c4575061135d565b8681556001016115b7565b90915081906115ae565b634e487b7160e01b85526041600452602485fd5b634e487b7160e01b88526032600452602488fd5b634e487b7160e01b88526041600452602488fd5b61161e906124da565b6116295785386111d6565b8580fd5b6040513d89823e3d90fd5b8780fd5b6040519061164982612523565b6002825260403660208401373361165f8361326e565b5261166982613291565b526040519061167782612523565b6002825260403660208401377f00000000000000000000000000000000000000000000000000000000000000006116ad8361326e565b527f00000000000000000000000000000000000000000000000000000000000000006116d883613291565b52823b1561163857604051633713060f60e11b8152918891839182916117029190600484016132a1565b038183865af1801561162d5790879161171d575b50506111d9565b611726906124da565b611629578538611716565b60405162461bcd60e51b8152602060048201526016602482015275115490cc4c4d8dce8818dc99585d194819985a5b195960521b6044820152606490fd5b604051630cb756a360e41b8152600490fd5b60405163022432f960e01b8152600490fd5b634e487b7160e01b600052604160045260246000fd5b606460405162461bcd60e51b815260206004820152602060248201527f436f6c6f7220636f6d62696e6174696f6e20616c7265616479206578697374736044820152fd5b60405162461bcd60e51b815260206004820152601560248201527413585e080cc81391951cc81c195c881dd85b1b195d605a1b6044820152606490fd5b60405162461bcd60e51b815260206004820152601260248201527113585e081cdd5c1c1b1e481c995858da195960721b6044820152606490fd5b50346102a857806003193601126102a8576040517f00000000000000000000000000000000000000000000000000000000000000006001600160a01b03168152602090f35b50346102a857806003193601126102a85760206040517f00000000000000000000000000000000000000000000000000000000000000008152f35b50346102a85760206118fe6118f8366124bb565b90612666565b604051908152f35b50346102a85760203660031901126102a8576020906040906001600160a01b0361192e612409565b168152601383522054604051908152f35b50346102a857806003193601126102a8576119586129c2565b600880546001600160a01b031981169091556000906001600160a01b03167f8be0079c531659141344cd1fd0a4f28419497f9722a3daafe3b4186f6b6457e08280a380f35b50346102a85760203660031901126102a8576001600160a01b036119bf612409565b1680156119dc578160409160209352600383522054604051908152f35b60405162461bcd60e51b815260206004820152602960248201527f4552433732313a2061646472657373207a65726f206973206e6f7420612076616044820152683634b21037bbb732b960b91b6064820152608490fd5b50346102a85760203660031901126102a857602090600435815260108252604060018060a01b0391205416604051908152f35b50346102a85760203660031901126102a8576020611a85600435612a66565b6040516001600160a01b039091168152f35b50346102a857806003193601126102a857602060ff60095460a01c166040519015158152f35b50346102a857602090816003193601126102a857600435611add81612a66565b6001600160a01b0390811615919060005b60019081811015611b2f57611b038185612e29565b508480611b28575b15611b2257604051635cbd944160e01b8152600490fd5b01611aee565b5081611b0b565b505093929150611b3e81612a66565b938183526004845260408320946001600160601b0360a01b9586815416905516918281526003845260408120600019815401905581815260028452604081208581541690558181847fddf252ad1be2c89b69c2b068fc378daa952ba7f163c4a11628f55a4df523b3ef8280a460009215925b60019081811015611bf157611bc58185612e29565b508480611bea575b15611be457604051635cbd944160e01b8152600490fd5b01611bb0565b5081611bcd565b82601587898784526010825260408420818154169055600f8252604084209081541690556014815260408320611c40600160405192611c2f846124ed565b611c38816128de565b8452016128de565b9081838201525190611c7983604051809382611c6581840197888151938492016123c1565b8201611012825180938680850191016123c1565b51902083525260408120805460ff1916905580f35b50346102a857610b9d610b98611ca336612435565b9060405192611cb184612508565b868452610b88610b838433612ba0565b50346102a857806003193601126102a85760206040517f00000000000000000000000000000000000000000000000000000000000000008152f35b50346102a85760206118fe611d103661246a565b9161279e565b50346102a857611d25366124bb565b9190611d3081612871565b6002841015611e0e57829315600014611daa57908252600f60205260408220546001600160a01b039182169116813b15611da6578291602483926040519485938492631916558760e01b845260048401525af18015611d9b57611d9257505080f35b610c91906124da565b6040513d84823e3d90fd5b5050fd5b6001600160a01b039081169150813b15611da6578291602483926040519485938492631916558760e01b84527f00000000000000000000000000000000000000000000000000000000000000001660048401525af18015611d9b57611d9257505080f35b634e487b7160e01b83526021600452602483fd5b50346102a85760403660031901126102a8576004358152601060205260409020547f0000000000000000000000000000000000000000000000000000000000000000602435818102926001600160a01b0316918115918404141715611e94576127106040928351928352046020820152f35b634e487b7160e01b600052601160045260246000fd5b50346102a857611eb93661246a565b929190611ec582612871565b916002851015611fc057839415600014611f3e578352600f60205260408320546001600160a01b0392908316908316803b15610ba05760405163122dd41160e21b8152939092166001600160a01b03908116600485015216602483015282908290604490829084905af18015611d9b57611d9257505080f35b506001600160a01b0392918316803b15611fbc5760405163122dd41160e21b8152939091166001600160a01b0390811660048501527f00000000000000000000000000000000000000000000000000000000000000001660248401528290604490829084905af18015611d9b57611fb3575080f35b610b9d906124da565b8280fd5b634e487b7160e01b84526021600452602484fd5b50346102a857610b9d611fe636612435565b91611ff4610b838433612ba0565b612c55565b50346102a857806003193601126102a8576040805163657711f560e11b815260016020820152f35b50346102a857806003193601126102a8576020611a85612984565b50346102a85760403660031901126102a857612056612409565b6024359061206382612a66565b6001600160a01b039182169190808216838114612154573314908115612142575b50156120d75782845260046020526040842080546001600160a01b031916831790556120af83612a66565b167f8c5be1e5ebec7d5bd14f71427d1e84f3dd0314c0f7b2291e5b200ac8c7c3b9258480a480f35b60405162461bcd60e51b815260206004820152603d60248201527f4552433732313a20617070726f76652063616c6c6572206973206e6f7420746f60448201527f6b656e206f776e6572206f7220617070726f76656420666f7220616c6c0000006064820152608490fd5b61214e9150339061260c565b38612084565b60405162461bcd60e51b815260206004820152602160248201527f4552433732313a20617070726f76616c20746f2063757272656e74206f776e656044820152603960f91b6064820152608490fd5b50346102a85760203660031901126102a8576020611a85600435612a89565b50346102a857806003193601126102a85760405190806006546121e4816128a4565b80855291600191808316908115612269575060011461220e575b6102a085610e748187038261253e565b9250600683527ff652222313e28459528d920b65115c16c04f3efc82aaedc97be59f3f377c0d3f5b828410612251575050508101602001610e74826102a06121fe565b80546020858701810191909152909301928101612236565b8695506102a096935060209250610e7494915060ff191682840152151560051b82010192936121fe565b50346102a857806003193601126102a8576040517f00000000000000000000000000000000000000000000000000000000000000006001600160a01b03168152602090f35b50346102a85760203660031901126102a85760043563ffffffff60e01b81168091036102a45760209063152a902d60e11b811490811561231e575b506040519015158152f35b632b435fdb60e21b811491508115612382575b811561233f575b5082612313565b6380ac58cd60e01b811491508115612371575b8115612360575b5082612338565b6301ffc9a760e01b14905082612359565b635b5e139f60e01b81149150612352565b63503e914d60e11b81149150612331565b9050346102a457816003193601126102a4578073721c002b0059009a671d00ad1700c9748146cd1b60209252f35b60005b8381106123d45750506000910152565b81810151838201526020016123c4565b906020916123fd815180928185528580860191016123c1565b601f01601f1916010190565b600435906001600160a01b038216820361000f57565b602435906001600160a01b038216820361000f57565b606090600319011261000f576001600160a01b0390600435828116810361000f5791602435908116810361000f579060443590565b606090600319011261000f57600435906024356001600160a01b038116810361000f5790604435600281101561000f5790565b503461000f57600036600319011261000f5760206040516127108152f35b604090600319011261000f5760043590602435600281101561000f5790565b6001600160401b03811161179357604052565b604081019081106001600160401b0382111761179357604052565b602081019081106001600160401b0382111761179357604052565b606081019081106001600160401b0382111761179357604052565b90601f801991011681019081106001600160401b0382111761179357604052565b6001600160401b03811161179357601f01601f191660200190565b9291926125868261255f565b91612594604051938461253e565b82948184528183011161000f578281602093846000960137010152565b9080601f8301121561000f578160206125cc9335910161257a565b90565b90815180825260208080930193019160005b8281106125ef575050505090565b83516001600160a01b0316855293810193928101926001016125e1565b919060018060a01b0380931660005260056020528260406000209116908160005260205260ff60406000205416928315612644575050565b60ff60095460a01c16612655575050565b90919250612661612984565b161490565b9061267082612871565b90600281101561278857612705576000918252600f602090815260408084205490516351fc756760e11b81526001600160a01b0391821660048201529283916024918391165afa9182156126f95780926126c957505090565b9091506020823d82116126f1575b816126e46020938361253e565b810103126102a857505190565b3d91506126d7565b604051903d90823e3d90fd5b6040516351fc756760e11b81526001600160a01b037f00000000000000000000000000000000000000000000000000000000000000008116600483015290925060209183916024918391165afa90811561277c57600091612764575090565b906020823d82116126f157816126e46020938361253e565b6040513d6000823e3d90fd5b634e487b7160e01b600052602160045260246000fd5b916127a883612871565b9060028110156127885761280b576000928352600f60209081526040808520549051630c45ac0560e41b81526001600160a01b039485166004820152908416602482015292909183916044918391165afa9182156126f95780926126c957505090565b604051630c45ac0560e41b81526001600160a01b0392831660048201527f000000000000000000000000000000000000000000000000000000000000000083166024820152925060209183916044918391165afa90811561277c57600091612764575090565b6000908152601060205260409020546001600160a01b031680156128925790565b604051630867de0160e21b8152600490fd5b90600182811c921680156128d4575b60208310146128be57565b634e487b7160e01b600052602260045260246000fd5b91607f16916128b3565b90604051918260008254926128f2846128a4565b908184526001948581169081600014612961575060011461291e575b505061291c9250038361253e565b565b9093915060005260209081600020936000915b81831061294957505061291c9350820101388061290e565b85548884018501529485019487945091830191612931565b91505061291c94506020925060ff191682840152151560051b820101388061290e565b6009546001600160a01b031690811561299957565b60ff60085460a01c16156129a957565b73721c002b0059009a671d00ad1700c9748146cd1b9150565b6008546001600160a01b031633036129d657565b606460405162461bcd60e51b815260206004820152602060248201527f4f776e61626c653a2063616c6c6572206973206e6f7420746865206f776e65726044820152fd5b15612a2157565b60405162461bcd60e51b815260206004820152601860248201527f4552433732313a20696e76616c696420746f6b656e20494400000000000000006044820152606490fd5b6000908152600260205260409020546001600160a01b03166125cc811515612a1a565b600081815260026020526040902054612aac906001600160a01b03161515612a1a565b6000908152600460205260409020546001600160a01b031690565b15612ace57565b60405162461bcd60e51b815260206004820152602d60248201527f4552433732313a2063616c6c6572206973206e6f7420746f6b656e206f776e6560448201526c1c881bdc88185c1c1c9bdd9959609a1b6064820152608490fd5b60809060208152603260208201527f4552433732313a207472616e7366657220746f206e6f6e20455243373231526560408201527131b2b4bb32b91034b6b83632b6b2b73a32b960711b60608201520190565b15612b8357565b60405162461bcd60e51b815280612b9c60048201612b29565b0390fd5b612ba982612a66565b9160018060a01b0390818316928285168414948515612be8575b50508315612bd2575b50505090565b612bde91929350612a89565b1614388080612bcc565b612bf392955061260c565b923880612bc3565b15612c0257565b60405162461bcd60e51b815260206004820152602560248201527f4552433732313a207472616e736665722066726f6d20696e636f72726563742060448201526437bbb732b960d91b6064820152608490fd5b9091612c7c9392612c6582612a66565b6001600160a01b0395848716939187168414612bfb565b858216948515612dd85792948515939060005b60019081811015612cea57612ca48186612e29565b8780612ce2575b15612cc257604051635cbd944160e01b8152600490fd5b8715612cd0575b5001612c8f565b612cdc90878a33612e7b565b38612cc9565b506000612cab565b5050945095612d0991925094809395612d0284612a66565b1614612bfb565b80600052600493846020528160409485600020946001600160601b0360a01b958681541690558060005260036020528660002060001981540190558160005286600020956001968781540190558360005260026020528288600020918254161790557fddf252ad1be2c89b69c2b068fc378daa952ba7f163c4a11628f55a4df523b3ef600080a460005b838110612da257505050505050565b612dac8184612e29565b508180612dd0575b15612dc9578451635cbd944160e01b81528690fd5b8301612d93565b506000612db4565b60405162461bcd60e51b8152602060048201526024808201527f4552433732313a207472616e7366657220746f20746865207a65726f206164646044820152637265737360e01b6064820152608490fd5b91908201809211611e9457565b60005b60019081811015612e7557612e4e8185612e29565b506001600160a01b038316612e6f57604051635cbd944160e01b8152600490fd5b01612e39565b50505050565b9092916001600160a01b039182612e90612984565b1680612e9f575b505050505050565b803314612e9757803b1561000f576000948460849481604051998a98899763657711f560e11b895216600488015216602486015216604484015260648301525afa801561277c57612ef5575b8080808080612e97565b6001600160401b0381116117935760405238612eeb565b9192600092909190803b1561301e57612f5a946040518092630a85bd0160e11b9485835233600484015287602484015260448301526080606483015281878160209a8b9660848301906123e4565b03926001600160a01b03165af1849181612fde575b50612fcd575050503d600014612fc5573d612f898161255f565b90612f97604051928361253e565b81528091833d92013e5b80519182612fc25760405162461bcd60e51b815280612b9c60048201612b29565b01fd5b506060612fa1565b6001600160e01b0319161492509050565b9091508581813d8311613017575b612ff6818361253e565b81010312610ba057516001600160e01b031981168103610ba0579038612f6f565b503d612fec565b5050915050600190565b9293600093909291803b156130a8579484916130829660405180948193630a85bd0160e11b9788845233600485015260018060a01b0380921660248501526044840152608060648401528260209b8c9760848301906123e4565b0393165af1849181612fde5750612fcd575050503d600014612fc5573d612f898161255f565b505050915050600190565b156130ba57565b60405162461bcd60e51b8152602060048201526014602482015273151bdad95b88191bd95cc81b9bdd08195e1a5cdd60621b6044820152606490fd5b906131008261255f565b61310d604051918261253e565b828152809261311e601f199161255f565b0190602036910137565b80511561325a5760405161313b81612523565b604081527f4142434445464748494a4b4c4d4e4f505152535455565758595a61626364656660208201527f6768696a6b6c6d6e6f707172737475767778797a303132333435363738392b2f60408201528151600292838201809211611e94576003918290046001600160fe1b0381168103611e94576131bd908594951b6130f6565b936020850193829183518401925b83811061320957505050505106806001146131f6576002146131eb575090565b603d90600019015390565b50603d9081600019820153600119015390565b85600491979293949701918251600190603f9082828260121c16880101518453828282600c1c16880101518385015382828260061c16880101518885015316850101518782015301959291906131cb565b5060405161326781612508565b6000815290565b80511561327b5760200190565b634e487b7160e01b600052603260045260246000fd5b80516001101561327b5760400190565b906132b4906040835260408301906125cf565b81810360209283015282518082529082019282019160005b8281106132da575050505090565b8351855293810193928101926001016132cc565b156132f557565b60405162461bcd60e51b815260206004820152601c60248201527f4552433732313a20746f6b656e20616c7265616479206d696e746564000000006044820152606490fdfea264697066735822122070b44262f558e05420b93e3ea2b557e2720f973762f2f39d3951a153faded05064736f6c63430008110033a66cc928b5edb82af9bd49922954155ab7b0942694bea4ce44661d9a8736c688b10e2d527612073b26eecdfd717e6a320cf44b4afac2b0732d9fcbe2b7fa0cf6f652222313e28459528d920b65115c16c04f3efc82aaedc97be59f3f377c0d3f",
  "devdoc": {
    "errors": {
      "CreatorTokenBase__InvalidTransferValidatorContract()": [
        {
          "details": "Thrown when setting a transfer validator address that has no deployed code."
        }
      ],
      "ShouldNotMintToBurnAddress()": [
        {
          "details": "Thrown when the from and to address are both the zero address."
        }
      ]
    },
    "kind": "dev",
    "methods": {
      "approve(address,uint256)": {
        "details": "See {IERC721-approve}."
      },
      "balanceOf(address)": {
        "details": "See {IERC721-balanceOf}."
      },
      "getApproved(uint256)": {
        "details": "See {IERC721-getApproved}."
      },
      "minterOf(uint256)": {
        "params": {
          "tokenId": "The id of the token whose minter is being queried."
        },
        "returns": {
          "_0": "The minter of the token with id `tokenId`."
        }
      },
      "name()": {
        "details": "See {IERC721Metadata-name}."
      },
      "owner()": {
        "details": "Returns the address of the current owner."
      },
      "ownerOf(uint256)": {
        "details": "See {IERC721-ownerOf}."
      },
      "paymentSplitterOf(uint256)": {
        "params": {
          "tokenId": "The id of the token whose payment splitter is being queried."
        },
        "returns": {
          "_0": "The payment splitter of the token with id `tokenId`."
        }
      },
      "paymentSplittersOfMinter(address)": {
        "params": {
          "minter": "The minter whose payment splitters are being queried."
        },
        "returns": {
          "_0": "The payment splitters of the minter `minter`."
        }
      },
      "releasableERC20Funds(uint256,address,uint8)": {
        "params": {
          "coin": "The address of the ERC20 token whose releasable funds are being queried.",
          "releaseTo": "Specifies whether the minter or creator should be queried.",
          "tokenId": "The id of the token whose releasable funds are being queried."
        },
        "returns": {
          "_0": "The amount of ERC20 funds that can be released to the minter or creator of the token with id `tokenId`."
        }
      },
      "releasableNativeFunds(uint256,uint8)": {
        "params": {
          "releaseTo": "Specifies whether the minter or creator should be queried.",
          "tokenId": "The id of the token whose releasable funds are being queried."
        },
        "returns": {
          "_0": "The amount of native funds that can be released to the minter or creator of the token with id `tokenId`."
        }
      },
      "releaseERC20Funds(uint256,address,uint8)": {
        "params": {
          "coin": "The address of the ERC20 token whose funds are being released.",
          "releaseTo": "Specifies whether the minter or creator should be released to.",
          "tokenId": "The id of the token whose funds are being released."
        }
      },
      "releaseNativeFunds(uint256,uint8)": {
        "params": {
          "releaseTo": "Specifies whether the minter or creator should be released to.",
          "tokenId": "The id of the token whose funds are being released."
        }
      },
      "renounceOwnership()": {
        "details": "Leaves the contract without owner. It will not be possible to call `onlyOwner` functions. Can only be called by the current owner. NOTE: Renouncing ownership will leave the contract without an owner, thereby disabling any functionality that is only available to the owner."
      },
      "royaltyInfo(uint256,uint256)": {
        "params": {
          "salePrice": "The sale price of the token.",
          "tokenId": "The id of the token whose royalty info is being queried."
        },
        "returns": {
          "_0": "The royalty fee and recipient for a given token."
        }
      },
      "safeTransferFrom(address,address,uint256)": {
        "details": "See {IERC721-safeTransferFrom}."
      },
      "safeTransferFrom(address,address,uint256,bytes)": {
        "details": "See {IERC721-safeTransferFrom}."
      },
      "setApprovalForAll(address,bool)": {
        "details": "See {IERC721-setApprovalForAll}."
      },
      "setAutomaticApprovalOfTransfersFromValidator(bool)": {
        "details": "Throws when the caller is not the contract owner. ",
        "params": {
          "autoApprove": "If true, the collection's transfer validator will be automatically approved to                    transfer holder's tokens."
        }
      },
      "setTransferValidator(address)": {
        "details": "Throws when provided validator contract is not the zero address and does not have code.Throws when the caller is not the contract owner.<h4>Postconditions:</h4>         1. The transferValidator address is updated.         2. The `TransferValidatorUpdated` event is emitted.",
        "params": {
          "transferValidator_": "The address of the transfer validator contract."
        }
      },
      "symbol()": {
        "details": "See {IERC721Metadata-symbol}."
      },
      "tokenURI(uint256)": {
        "details": "See {IERC721Metadata-tokenURI}."
      },
      "transferFrom(address,address,uint256)": {
        "details": "See {IERC721-transferFrom}."
      },
      "transferOwnership(address)": {
        "details": "Transfers ownership of the contract to a new account (`newOwner`). Can only be called by the current owner."
      }
    },
    "version": 1
  },
  "userdoc": {
    "kind": "user",
    "methods": {
      "getTransferValidationFunction()": {
        "notice": "Returns the function selector for the transfer validator's validation function to be called for transaction simulation. "
      },
      "getTransferValidator()": {
        "notice": "Returns the transfer validator contract address for this token contract."
      },
      "isApprovedForAll(address,address)": {
        "notice": "Overrides behavior of isApprovedFor all such that if an operator is not explicitly approved         for all, the contract owner can optionally auto-approve the 721-C transfer validator for transfers."
      },
      "minterOf(uint256)": {
        "notice": "Returns the minter of the token with id `tokenId`."
      },
      "paymentSplitterOf(uint256)": {
        "notice": "Returns the payment splitter of the token with id `tokenId`."
      },
      "paymentSplittersOfMinter(address)": {
        "notice": "Returns the payment splitters of the minter `minter`."
      },
      "releasableERC20Funds(uint256,address,uint8)": {
        "notice": "Returns the amount of ERC20 funds that can be released to the minter or creator of the token with id `tokenId`."
      },
      "releasableNativeFunds(uint256,uint8)": {
        "notice": "Returns the amount of native funds that can be released to the minter or creator of the token with id `tokenId`."
      },
      "releaseERC20Funds(uint256,address,uint8)": {
        "notice": "Releases all available ERC20 funds to the minter or creator of the token with id `tokenId`."
      },
      "releaseNativeFunds(uint256,uint8)": {
        "notice": "Releases all available native funds to the minter or creator of the token with id `tokenId`."
      },
      "royaltyInfo(uint256,uint256)": {
        "notice": "Returns the royalty fee and recipient for a given token."
      },
      "setAutomaticApprovalOfTransfersFromValidator(bool)": {
        "notice": "Sets if the transfer validator is automatically approved as an operator for all token owners. "
      },
      "setTransferValidator(address)": {
        "notice": "Sets the transfer validator for the token contract."
      }
    },
    "version": 1
  },
  "storageLayout": {
    "storage": [
      {
        "astId": 2828,
        "contract": "contracts/EthereumVision.sol:EthereumVision",
        "label": "_name",
        "offset": 0,
        "slot": "0",
        "type": "t_string_storage"
      },
      {
        "astId": 2830,
        "contract": "contracts/EthereumVision.sol:EthereumVision",
        "label": "_symbol",
        "offset": 0,
        "slot": "1",
        "type": "t_string_storage"
      },
      {
        "astId": 2834,
        "contract": "contracts/EthereumVision.sol:EthereumVision",
        "label": "_owners",
        "offset": 0,
        "slot": "2",
        "type": "t_mapping(t_uint256,t_address)"
      },
      {
        "astId": 2838,
        "contract": "contracts/EthereumVision.sol:EthereumVision",
        "label": "_balances",
        "offset": 0,
        "slot": "3",
        "type": "t_mapping(t_address,t_uint256)"
      },
      {
        "astId": 2842,
        "contract": "contracts/EthereumVision.sol:EthereumVision",
        "label": "_tokenApprovals",
        "offset": 0,
        "slot": "4",
        "type": "t_mapping(t_uint256,t_address)"
      },
      {
        "astId": 2848,
        "contract": "contracts/EthereumVision.sol:EthereumVision",
        "label": "_operatorApprovals",
        "offset": 0,
        "slot": "5",
        "type": "t_mapping(t_address,t_mapping(t_address,t_bool))"
      },
      {
        "astId": 1512,
        "contract": "contracts/EthereumVision.sol:EthereumVision",
        "label": "_contractName",
        "offset": 0,
        "slot": "6",
        "type": "t_string_storage"
      },
      {
        "astId": 1514,
        "contract": "contracts/EthereumVision.sol:EthereumVision",
        "label": "_contractSymbol",
        "offset": 0,
        "slot": "7",
        "type": "t_string_storage"
      },
      {
        "astId": 2520,
        "contract": "contracts/EthereumVision.sol:EthereumVision",
        "label": "_owner",
        "offset": 0,
        "slot": "8",
        "type": "t_address"
      },
      {
        "astId": 1667,
        "contract": "contracts/EthereumVision.sol:EthereumVision",
        "label": "isValidatorInitialized",
        "offset": 20,
        "slot": "8",
        "type": "t_bool"
      },
      {
        "astId": 1670,
        "contract": "contracts/EthereumVision.sol:EthereumVision",
        "label": "transferValidator",
        "offset": 0,
        "slot": "9",
        "type": "t_address"
      },
      {
        "astId": 1620,
        "contract": "contracts/EthereumVision.sol:EthereumVision",
        "label": "autoApproveTransfersFromValidator",
        "offset": 20,
        "slot": "9",
        "type": "t_bool"
      },
      {
        "astId": 600,
        "contract": "contracts/EthereumVision.sol:EthereumVision",
        "label": "_royaltyFeeNumerator",
        "offset": 0,
        "slot": "10",
        "type": "t_uint256"
      },
      {
        "astId": 602,
        "contract": "contracts/EthereumVision.sol:EthereumVision",
        "label": "_minterShares",
        "offset": 0,
        "slot": "11",
        "type": "t_uint256"
      },
      {
        "astId": 604,
        "contract": "contracts/EthereumVision.sol:EthereumVision",
        "label": "_creatorShares",
        "offset": 0,
        "slot": "12",
        "type": "t_uint256"
      },
      {
        "astId": 606,
        "contract": "contracts/EthereumVision.sol:EthereumVision",
        "label": "_creator",
        "offset": 0,
        "slot": "13",
        "type": "t_address"
      },
      {
        "astId": 608,
        "contract": "contracts/EthereumVision.sol:EthereumVision",
        "label": "_paymentSplitterReference",
        "offset": 0,
        "slot": "14",
        "type": "t_address"
      },
      {
        "astId": 612,
        "contract": "contracts/EthereumVision.sol:EthereumVision",
        "label": "_minters",
        "offset": 0,
        "slot": "15",
        "type": "t_mapping(t_uint256,t_address)"
      },
      {
        "astId": 616,
        "contract": "contracts/EthereumVision.sol:EthereumVision",
        "label": "_paymentSplitters",
        "offset": 0,
        "slot": "16",
        "type": "t_mapping(t_uint256,t_address)"
      },
      {
        "astId": 621,
        "contract": "contracts/EthereumVision.sol:EthereumVision",
        "label": "_minterPaymentSplitters",
        "offset": 0,
        "slot": "17",
        "type": "t_mapping(t_address,t_array(t_address)dyn_storage)"
      },
      {
        "astId": 5555,
        "contract": "contracts/EthereumVision.sol:EthereumVision",
        "label": "tokenCounter",
        "offset": 0,
        "slot": "18",
        "type": "t_uint256"
      },
      {
        "astId": 5559,
        "contract": "contracts/EthereumVision.sol:EthereumVision",
        "label": "mintedTokens",
        "offset": 0,
        "slot": "19",
        "type": "t_mapping(t_address,t_uint256)"
      },
      {
        "astId": 5569,
        "contract": "contracts/EthereumVision.sol:EthereumVision",
        "label": "tokenColors",
        "offset": 0,
        "slot": "20",
        "type": "t_mapping(t_uint256,t_struct(Colors)5564_storage)"
      },
      {
        "astId": 5573,
        "contract": "contracts/EthereumVision.sol:EthereumVision",
        "label": "colorCombinations",
        "offset": 0,
        "slot": "21",
        "type": "t_mapping(t_bytes32,t_bool)"
      }
    ],
    "types": {
      "t_address": {
        "encoding": "inplace",
        "label": "address",
        "numberOfBytes": "20"
      },
      "t_array(t_address)dyn_storage": {
        "base": "t_address",
        "encoding": "dynamic_array",
        "label": "address[]",
        "numberOfBytes": "32"
      },
      "t_bool": {
        "encoding": "inplace",
        "label": "bool",
        "numberOfBytes": "1"
      },
      "t_bytes32": {
        "encoding": "inplace",
        "label": "bytes32",
        "numberOfBytes": "32"
      },
      "t_mapping(t_address,t_array(t_address)dyn_storage)": {
        "encoding": "mapping",
        "key": "t_address",
        "label": "mapping(address => address[])",
        "numberOfBytes": "32",
        "value": "t_array(t_address)dyn_storage"
      },
      "t_mapping(t_address,t_bool)": {
        "encoding": "mapping",
        "key": "t_address",
        "label": "mapping(address => bool)",
        "numberOfBytes": "32",
        "value": "t_bool"
      },
      "t_mapping(t_address,t_mapping(t_address,t_bool))": {
        "encoding": "mapping",
        "key": "t_address",
        "label": "mapping(address => mapping(address => bool))",
        "numberOfBytes": "32",
        "value": "t_mapping(t_address,t_bool)"
      },
      "t_mapping(t_address,t_uint256)": {
        "encoding": "mapping",
        "key": "t_address",
        "label": "mapping(address => uint256)",
        "numberOfBytes": "32",
        "value": "t_uint256"
      },
      "t_mapping(t_bytes32,t_bool)": {
        "encoding": "mapping",
        "key": "t_bytes32",
        "label": "mapping(bytes32 => bool)",
        "numberOfBytes": "32",
        "value": "t_bool"
      },
      "t_mapping(t_uint256,t_address)": {
        "encoding": "mapping",
        "key": "t_uint256",
        "label": "mapping(uint256 => address)",
        "numberOfBytes": "32",
        "value": "t_address"
      },
      "t_mapping(t_uint256,t_struct(Colors)5564_storage)": {
        "encoding": "mapping",
        "key": "t_uint256",
        "label": "mapping(uint256 => struct EthereumVision.Colors)",
        "numberOfBytes": "32",
        "value": "t_struct(Colors)5564_storage"
      },
      "t_string_storage": {
        "encoding": "bytes",
        "label": "string",
        "numberOfBytes": "32"
      },
      "t_struct(Colors)5564_storage": {
        "encoding": "inplace",
        "label": "struct EthereumVision.Colors",
        "members": [
          {
            "astId": 5561,
            "contract": "contracts/EthereumVision.sol:EthereumVision",
            "label": "leftHalf",
            "offset": 0,
            "slot": "0",
            "type": "t_string_storage"
          },
          {
            "astId": 5563,
            "contract": "contracts/EthereumVision.sol:EthereumVision",
            "label": "rightHalf",
            "offset": 0,
            "slot": "1",
            "type": "t_string_storage"
          }
        ],
        "numberOfBytes": "64"
      },
      "t_uint256": {
        "encoding": "inplace",
        "label": "uint256",
        "numberOfBytes": "32"
      }
    }
  }
}