{
  "address": "0x5C5288F1260F2D13911646fED8791F7bB6b33cC0",
  "abi": [
    {
      "inputs": [
        {
          "internalType": "uint256",
          "name": "royaltyFeeNumerator_",
          "type": "uint256"
        },
        {
          "internalType": "uint256",
          "name": "minterShares_",
          "type": "uint256"
        },
        {
          "internalType": "uint256",
          "name": "creatorShares_",
          "type": "uint256"
        },
        {
          "internalType": "address",
          "name": "creator_",
          "type": "address"
        },
        {
          "internalType": "address",
          "name": "paymentSplitterReference_",
          "type": "address"
        },
        {
          "internalType": "string",
          "name": "name_",
          "type": "string"
        },
        {
          "internalType": "string",
          "name": "symbol_",
          "type": "string"
        }
      ],
      "stateMutability": "nonpayable",
      "type": "constructor"
    },
    {
      "inputs": [],
      "name": "CreatorTokenBase__InvalidTransferValidatorContract",
      "type": "error"
    },
    {
      "inputs": [],
      "name": "MinterCreatorSharedRoyalties__CreatorCannotBeZeroAddress",
      "type": "error"
    },
    {
      "inputs": [],
      "name": "MinterCreatorSharedRoyalties__CreatorSharesCannotBeZero",
      "type": "error"
    },
    {
      "inputs": [],
      "name": "MinterCreatorSharedRoyalties__MinterCannotBeZeroAddress",
      "type": "error"
    },
    {
      "inputs": [],
      "name": "MinterCreatorSharedRoyalties__MinterHasAlreadyBeenAssignedToTokenId",
      "type": "error"
    },
    {
      "inputs": [],
      "name": "MinterCreatorSharedRoyalties__MinterSharesCannotBeZero",
      "type": "error"
    },
    {
      "inputs": [],
      "name": "MinterCreatorSharedRoyalties__PaymentSplitterDoesNotExistForSpecifiedTokenId",
      "type": "error"
    },
    {
      "inputs": [],
      "name": "MinterCreatorSharedRoyalties__PaymentSplitterReferenceCannotBeZeroAddress",
      "type": "error"
    },
    {
      "inputs": [],
      "name": "MinterCreatorSharedRoyalties__RoyaltyFeeWillExceedSalePrice",
      "type": "error"
    },
    {
      "inputs": [],
      "name": "ShouldNotMintToBurnAddress",
      "type": "error"
    },
    {
      "anonymous": false,
      "inputs": [
        {
          "indexed": true,
          "internalType": "address",
          "name": "owner",
          "type": "address"
        },
        {
          "indexed": true,
          "internalType": "address",
          "name": "approved",
          "type": "address"
        },
        {
          "indexed": true,
          "internalType": "uint256",
          "name": "tokenId",
          "type": "uint256"
        }
      ],
      "name": "Approval",
      "type": "event"
    },
    {
      "anonymous": false,
      "inputs": [
        {
          "indexed": true,
          "internalType": "address",
          "name": "owner",
          "type": "address"
        },
        {
          "indexed": true,
          "internalType": "address",
          "name": "operator",
          "type": "address"
        },
        {
          "indexed": false,
          "internalType": "bool",
          "name": "approved",
          "type": "bool"
        }
      ],
      "name": "ApprovalForAll",
      "type": "event"
    },
    {
      "anonymous": false,
      "inputs": [
        {
          "indexed": false,
          "internalType": "bool",
          "name": "autoApproved",
          "type": "bool"
        }
      ],
      "name": "AutomaticApprovalOfTransferValidatorSet",
      "type": "event"
    },
    {
      "anonymous": false,
      "inputs": [
        {
          "indexed": true,
          "internalType": "address",
          "name": "previousOwner",
          "type": "address"
        },
        {
          "indexed": true,
          "internalType": "address",
          "name": "newOwner",
          "type": "address"
        }
      ],
      "name": "OwnershipTransferred",
      "type": "event"
    },
    {
      "anonymous": false,
      "inputs": [
        {
          "indexed": true,
          "internalType": "address",
          "name": "from",
          "type": "address"
        },
        {
          "indexed": true,
          "internalType": "address",
          "name": "to",
          "type": "address"
        },
        {
          "indexed": true,
          "internalType": "uint256",
          "name": "tokenId",
          "type": "uint256"
        }
      ],
      "name": "Transfer",
      "type": "event"
    },
    {
      "anonymous": false,
      "inputs": [
        {
          "indexed": false,
          "internalType": "address",
          "name": "oldValidator",
          "type": "address"
        },
        {
          "indexed": false,
          "internalType": "address",
          "name": "newValidator",
          "type": "address"
        }
      ],
      "name": "TransferValidatorUpdated",
      "type": "event"
    },
    {
      "inputs": [],
      "name": "DEFAULT_TRANSFER_VALIDATOR",
      "outputs": [
        {
          "internalType": "address",
          "name": "",
          "type": "address"
        }
      ],
      "stateMutability": "view",
      "type": "function"
    },
    {
      "inputs": [],
      "name": "FEE_DENOMINATOR",
      "outputs": [
        {
          "internalType": "uint256",
          "name": "",
          "type": "uint256"
        }
      ],
      "stateMutability": "view",
      "type": "function"
    },
    {
      "inputs": [],
      "name": "MAX_SUPPLY",
      "outputs": [
        {
          "internalType": "uint256",
          "name": "",
          "type": "uint256"
        }
      ],
      "stateMutability": "view",
      "type": "function"
    },
    {
      "inputs": [
        {
          "internalType": "address",
          "name": "to",
          "type": "address"
        },
        {
          "internalType": "uint256",
          "name": "tokenId",
          "type": "uint256"
        }
      ],
      "name": "approve",
      "outputs": [],
      "stateMutability": "nonpayable",
      "type": "function"
    },
    {
      "inputs": [],
      "name": "autoApproveTransfersFromValidator",
      "outputs": [
        {
          "internalType": "bool",
          "name": "",
          "type": "bool"
        }
      ],
      "stateMutability": "view",
      "type": "function"
    },
    {
      "inputs": [
        {
          "internalType": "address",
          "name": "owner",
          "type": "address"
        }
      ],
      "name": "balanceOf",
      "outputs": [
        {
          "internalType": "uint256",
          "name": "",
          "type": "uint256"
        }
      ],
      "stateMutability": "view",
      "type": "function"
    },
    {
      "inputs": [
        {
          "internalType": "uint256",
          "name": "tokenId",
          "type": "uint256"
        }
      ],
      "name": "burn",
      "outputs": [],
      "stateMutability": "nonpayable",
      "type": "function"
    },
    {
      "inputs": [],
      "name": "creator",
      "outputs": [
        {
          "internalType": "address",
          "name": "",
          "type": "address"
        }
      ],
      "stateMutability": "view",
      "type": "function"
    },
    {
      "inputs": [],
      "name": "creatorShares",
      "outputs": [
        {
          "internalType": "uint256",
          "name": "",
          "type": "uint256"
        }
      ],
      "stateMutability": "view",
      "type": "function"
    },
    {
      "inputs": [
        {
          "internalType": "uint256",
          "name": "tokenId",
          "type": "uint256"
        }
      ],
      "name": "getApproved",
      "outputs": [
        {
          "internalType": "address",
          "name": "",
          "type": "address"
        }
      ],
      "stateMutability": "view",
      "type": "function"
    },
    {
      "inputs": [
        {
          "internalType": "uint256",
          "name": "tokenId",
          "type": "uint256"
        }
      ],
      "name": "getColors",
      "outputs": [
        {
          "components": [
            {
              "internalType": "string",
              "name": "leftHalf",
              "type": "string"
            },
            {
              "internalType": "string",
              "name": "rightHalf",
              "type": "string"
            }
          ],
          "internalType": "struct EthereumVision.Colors",
          "name": "",
          "type": "tuple"
        }
      ],
      "stateMutability": "view",
      "type": "function"
    },
    {
      "inputs": [],
      "name": "getTransferValidationFunction",
      "outputs": [
        {
          "internalType": "bytes4",
          "name": "functionSignature",
          "type": "bytes4"
        },
        {
          "internalType": "bool",
          "name": "isViewFunction",
          "type": "bool"
        }
      ],
      "stateMutability": "pure",
      "type": "function"
    },
    {
      "inputs": [],
      "name": "getTransferValidator",
      "outputs": [
        {
          "internalType": "address",
          "name": "validator",
          "type": "address"
        }
      ],
      "stateMutability": "view",
      "type": "function"
    },
    {
      "inputs": [
        {
          "internalType": "address",
          "name": "owner",
          "type": "address"
        },
        {
          "internalType": "address",
          "name": "operator",
          "type": "address"
        }
      ],
      "name": "isApprovedForAll",
      "outputs": [
        {
          "internalType": "bool",
          "name": "isApproved",
          "type": "bool"
        }
      ],
      "stateMutability": "view",
      "type": "function"
    },
    {
      "inputs": [
        {
          "internalType": "string",
          "name": "leftColor",
          "type": "string"
        },
        {
          "internalType": "string",
          "name": "rightColor",
          "type": "string"
        }
      ],
      "name": "mint",
      "outputs": [],
      "stateMutability": "nonpayable",
      "type": "function"
    },
    {
      "inputs": [
        {
          "internalType": "address",
          "name": "",
          "type": "address"
        }
      ],
      "name": "mintedTokens",
      "outputs": [
        {
          "internalType": "uint256",
          "name": "",
          "type": "uint256"
        }
      ],
      "stateMutability": "view",
      "type": "function"
    },
    {
      "inputs": [
        {
          "internalType": "uint256",
          "name": "tokenId",
          "type": "uint256"
        }
      ],
      "name": "minterOf",
      "outputs": [
        {
          "internalType": "address",
          "name": "",
          "type": "address"
        }
      ],
      "stateMutability": "view",
      "type": "function"
    },
    {
      "inputs": [],
      "name": "minterShares",
      "outputs": [
        {
          "internalType": "uint256",
          "name": "",
          "type": "uint256"
        }
      ],
      "stateMutability": "view",
      "type": "function"
    },
    {
      "inputs": [],
      "name": "name",
      "outputs": [
        {
          "internalType": "string",
          "name": "",
          "type": "string"
        }
      ],
      "stateMutability": "view",
      "type": "function"
    },
    {
      "inputs": [],
      "name": "owner",
      "outputs": [
        {
          "internalType": "address",
          "name": "",
          "type": "address"
        }
      ],
      "stateMutability": "view",
      "type": "function"
    },
    {
      "inputs": [
        {
          "internalType": "uint256",
          "name": "tokenId",
          "type": "uint256"
        }
      ],
      "name": "ownerOf",
      "outputs": [
        {
          "internalType": "address",
          "name": "",
          "type": "address"
        }
      ],
      "stateMutability": "view",
      "type": "function"
    },
    {
      "inputs": [
        {
          "internalType": "uint256",
          "name": "tokenId",
          "type": "uint256"
        }
      ],
      "name": "paymentSplitterOf",
      "outputs": [
        {
          "internalType": "address",
          "name": "",
          "type": "address"
        }
      ],
      "stateMutability": "view",
      "type": "function"
    },
    {
      "inputs": [],
      "name": "paymentSplitterReference",
      "outputs": [
        {
          "internalType": "address",
          "name": "",
          "type": "address"
        }
      ],
      "stateMutability": "view",
      "type": "function"
    },
    {
      "inputs": [
        {
          "internalType": "address",
          "name": "minter",
          "type": "address"
        }
      ],
      "name": "paymentSplittersOfMinter",
      "outputs": [
        {
          "internalType": "address[]",
          "name": "",
          "type": "address[]"
        }
      ],
      "stateMutability": "view",
      "type": "function"
    },
    {
      "inputs": [
        {
          "internalType": "uint256",
          "name": "tokenId",
          "type": "uint256"
        },
        {
          "internalType": "address",
          "name": "coin",
          "type": "address"
        },
        {
          "internalType": "enum MinterCreatorSharedRoyaltiesBase.ReleaseTo",
          "name": "releaseTo",
          "type": "uint8"
        }
      ],
      "name": "releasableERC20Funds",
      "outputs": [
        {
          "internalType": "uint256",
          "name": "",
          "type": "uint256"
        }
      ],
      "stateMutability": "view",
      "type": "function"
    },
    {
      "inputs": [
        {
          "internalType": "uint256",
          "name": "tokenId",
          "type": "uint256"
        },
        {
          "internalType": "enum MinterCreatorSharedRoyaltiesBase.ReleaseTo",
          "name": "releaseTo",
          "type": "uint8"
        }
      ],
      "name": "releasableNativeFunds",
      "outputs": [
        {
          "internalType": "uint256",
          "name": "",
          "type": "uint256"
        }
      ],
      "stateMutability": "view",
      "type": "function"
    },
    {
      "inputs": [
        {
          "internalType": "uint256",
          "name": "tokenId",
          "type": "uint256"
        },
        {
          "internalType": "address",
          "name": "coin",
          "type": "address"
        },
        {
          "internalType": "enum MinterCreatorSharedRoyaltiesBase.ReleaseTo",
          "name": "releaseTo",
          "type": "uint8"
        }
      ],
      "name": "releaseERC20Funds",
      "outputs": [],
      "stateMutability": "nonpayable",
      "type": "function"
    },
    {
      "inputs": [
        {
          "internalType": "uint256",
          "name": "tokenId",
          "type": "uint256"
        },
        {
          "internalType": "enum MinterCreatorSharedRoyaltiesBase.ReleaseTo",
          "name": "releaseTo",
          "type": "uint8"
        }
      ],
      "name": "releaseNativeFunds",
      "outputs": [],
      "stateMutability": "nonpayable",
      "type": "function"
    },
    {
      "inputs": [],
      "name": "renounceOwnership",
      "outputs": [],
      "stateMutability": "nonpayable",
      "type": "function"
    },
    {
      "inputs": [],
      "name": "royaltyFeeNumerator",
      "outputs": [
        {
          "internalType": "uint256",
          "name": "",
          "type": "uint256"
        }
      ],
      "stateMutability": "view",
      "type": "function"
    },
    {
      "inputs": [
        {
          "internalType": "uint256",
          "name": "tokenId",
          "type": "uint256"
        },
        {
          "internalType": "uint256",
          "name": "salePrice",
          "type": "uint256"
        }
      ],
      "name": "royaltyInfo",
      "outputs": [
        {
          "internalType": "address",
          "name": "",
          "type": "address"
        },
        {
          "internalType": "uint256",
          "name": "",
          "type": "uint256"
        }
      ],
      "stateMutability": "view",
      "type": "function"
    },
    {
      "inputs": [
        {
          "internalType": "address",
          "name": "from",
          "type": "address"
        },
        {
          "internalType": "address",
          "name": "to",
          "type": "address"
        },
        {
          "internalType": "uint256",
          "name": "tokenId",
          "type": "uint256"
        }
      ],
      "name": "safeTransferFrom",
      "outputs": [],
      "stateMutability": "nonpayable",
      "type": "function"
    },
    {
      "inputs": [
        {
          "internalType": "address",
          "name": "from",
          "type": "address"
        },
        {
          "internalType": "address",
          "name": "to",
          "type": "address"
        },
        {
          "internalType": "uint256",
          "name": "tokenId",
          "type": "uint256"
        },
        {
          "internalType": "bytes",
          "name": "data",
          "type": "bytes"
        }
      ],
      "name": "safeTransferFrom",
      "outputs": [],
      "stateMutability": "nonpayable",
      "type": "function"
    },
    {
      "inputs": [
        {
          "internalType": "address",
          "name": "operator",
          "type": "address"
        },
        {
          "internalType": "bool",
          "name": "approved",
          "type": "bool"
        }
      ],
      "name": "setApprovalForAll",
      "outputs": [],
      "stateMutability": "nonpayable",
      "type": "function"
    },
    {
      "inputs": [
        {
          "internalType": "bool",
          "name": "autoApprove",
          "type": "bool"
        }
      ],
      "name": "setAutomaticApprovalOfTransfersFromValidator",
      "outputs": [],
      "stateMutability": "nonpayable",
      "type": "function"
    },
    {
      "inputs": [
        {
          "internalType": "address",
          "name": "transferValidator_",
          "type": "address"
        }
      ],
      "name": "setTransferValidator",
      "outputs": [],
      "stateMutability": "nonpayable",
      "type": "function"
    },
    {
      "inputs": [
        {
          "internalType": "bytes4",
          "name": "interfaceId",
          "type": "bytes4"
        }
      ],
      "name": "supportsInterface",
      "outputs": [
        {
          "internalType": "bool",
          "name": "",
          "type": "bool"
        }
      ],
      "stateMutability": "view",
      "type": "function"
    },
    {
      "inputs": [],
      "name": "symbol",
      "outputs": [
        {
          "internalType": "string",
          "name": "",
          "type": "string"
        }
      ],
      "stateMutability": "view",
      "type": "function"
    },
    {
      "inputs": [],
      "name": "tokenCounter",
      "outputs": [
        {
          "internalType": "uint256",
          "name": "",
          "type": "uint256"
        }
      ],
      "stateMutability": "view",
      "type": "function"
    },
    {
      "inputs": [
        {
          "internalType": "uint256",
          "name": "tokenId",
          "type": "uint256"
        }
      ],
      "name": "tokenURI",
      "outputs": [
        {
          "internalType": "string",
          "name": "",
          "type": "string"
        }
      ],
      "stateMutability": "view",
      "type": "function"
    },
    {
      "inputs": [
        {
          "internalType": "address",
          "name": "from",
          "type": "address"
        },
        {
          "internalType": "address",
          "name": "to",
          "type": "address"
        },
        {
          "internalType": "uint256",
          "name": "tokenId",
          "type": "uint256"
        }
      ],
      "name": "transferFrom",
      "outputs": [],
      "stateMutability": "nonpayable",
      "type": "function"
    },
    {
      "inputs": [
        {
          "internalType": "address",
          "name": "newOwner",
          "type": "address"
        }
      ],
      "name": "transferOwnership",
      "outputs": [],
      "stateMutability": "nonpayable",
      "type": "function"
    }
  ],
  "transactionHash": "0xed5a8519d82b07e2064957ce4bbfbd96bcce2db3527a26fdb7723d53eda56318",
  "args": [
    1000,
    40,
    60,
    "0xEE00C9792DED97cB81D24FD9D68a5d8c50b44646",
    "0xb709D18D0b1f5904CD5Ce0d6dfD11839097f7Cdd",
    "Ethereum Vision",
    "ETHV"
  ],
  "numDeployments": 8,
  "solcInputHash": "89b30a7244a5727aa41b88976a9da622",
  "bytecode": "0x610120604081815234620008ed57600062004636803803809162000024828762000924565b853983019260e081850312620008e9578051602082015184830151916200004e6060850162000948565b936200005d6080820162000948565b60a08201519098906001600160401b0381116200049c5781620000829184016200095d565b60c083015190926001600160401b038211620008e557620000a59291016200095d565b908751620000b381620008f2565b878152885190620000c482620008f2565b8882528051906001600160401b038211620008d1578954600181811c91168015620008c6575b6020821014620008b2579081601f8493116200085d575b50602090601f8311600114620007f4578b92620007e8575b50508160011b916000199060031b1c19161788555b8051906001600160401b038211620007d457600154600181811c91168015620007c9575b6020821014620007b5579081601f84931162000753575b50602090601f8311600114620006dc578a92620006d0575b50508160011b916000199060031b1c1916176001555b8051906001600160401b038211620006bc57600654600181811c91168015620006b1575b60208210146200069d579081601f8493116200063b575b50602090601f8311600114620005c4578992620005b8575b50508160011b916000199060031b1c1916176006555b8051906001600160401b038211620005a457600754600181811c9116801562000599575b602082101462000585579081601f84931162000523575b50602090601f8311600114620004ac578892620004a0575b50508160011b916000199060031b1c1916176007555b60088054336001600160a01b0319808316821790935588516001600160a01b03939290919084167f8be0079c531659141344cd1fd0a4f28419497f9722a3daafe3b4186f6b6457e08a80a38781527fcc5dc080ff977b3c3a211fa63ab74f90f658f5ba9d3236e92c8f59570f442aac8973721c002b0059009a671d00ad1700c9748146cd1b92836020820152a1803b62000439575b50612710831162000428578315620004175784156200040657818616918215620003f5578916918215620003e45783600a5584600b5585600c5581600d541617600d55600e541617600e5560805260a05260c05260e05261010092835260125551613c019182620009d5833960805182818161215201526126d6015260a0518281816119fc01528181611f16015261256a015260c0518281816117b3015281816119db0152611f41015260e051828181611975015281816126690152818161280601528181612b3a01528181612fad01526130bb01525181818161191a015261210b0152f35b88516322ca44ff60e11b8152600490fd5b88516382d6f02560e01b8152600490fd5b8751632a3ccc4960e01b8152600490fd5b875163774439b360e01b8152600490fd5b8751633eca614760e01b8152600490fd5b803b156200049c5787809160448b518094819363fb2de5d760e01b83523060048401526102d160248401525af115620002fe579096906001600160401b038111620004885788529538620002fe565b634e487b7160e01b82526041600452602482fd5b8780fd5b01519050388062000253565b60078952600080516020620045d68339815191529250601f198416895b8181106200050a5750908460019594939210620004f0575b505050811b0160075562000269565b015160001960f88460031b161c19169055388080620004e1565b92936020600181928786015181550195019301620004c9565b60078952909150600080516020620045d6833981519152601f840160051c810191602085106200057a575b90601f859493920160051c01905b8181106200056b57506200023b565b8981558493506001016200055c565b90915081906200054e565b634e487b7160e01b88526022600452602488fd5b90607f169062000224565b634e487b7160e01b87526041600452602487fd5b015190503880620001ea565b60068a52600080516020620046168339815191529250601f1984168a5b81811062000622575090846001959493921062000608575b505050811b0160065562000200565b015160001960f88460031b161c19169055388080620005f9565b92936020600181928786015181550195019301620005e1565b60068a5290915060008051602062004616833981519152601f840160051c8101916020851062000692575b90601f859493920160051c01905b818110620006835750620001d2565b8a815584935060010162000674565b909150819062000666565b634e487b7160e01b89526022600452602489fd5b90607f1690620001bb565b634e487b7160e01b88526041600452602488fd5b01519050388062000181565b60018b52600080516020620045f68339815191529250601f1984168b5b8181106200073a575090846001959493921062000720575b505050811b0160015562000197565b015160001960f88460031b161c1916905538808062000711565b92936020600181928786015181550195019301620006f9565b60018b52909150600080516020620045f6833981519152601f840160051c81019160208510620007aa575b90601f859493920160051c01905b8181106200079b575062000169565b8b81558493506001016200078c565b90915081906200077e565b634e487b7160e01b8a52602260045260248afd5b90607f169062000152565b634e487b7160e01b89526041600452602489fd5b01519050388062000119565b8b805260208c209250601f1984168c5b8181106200084457509084600195949392106200082a575b505050811b0188556200012e565b015160001960f88460031b161c191690553880806200081c565b9293602060018192878601518155019501930162000804565b9091508a805260208b20601f840160051c81019160208510620008a7575b90601f859493920160051c01905b81811062000898575062000101565b8c815584935060010162000889565b90915081906200087b565b634e487b7160e01b8b52602260045260248bfd5b90607f1690620000ea565b634e487b7160e01b8a52604160045260248afd5b8880fd5b5080fd5b600080fd5b602081019081106001600160401b038211176200090e57604052565b634e487b7160e01b600052604160045260246000fd5b601f909101601f19168101906001600160401b038211908210176200090e57604052565b51906001600160a01b0382168203620008ed57565b919080601f84011215620008ed578251906001600160401b0382116200090e576040519160209162000999601f8301601f191684018562000924565b818452828287010111620008ed5760005b818110620009c057508260009394955001015290565b8581018301518482018401528201620009aa56fe6080806040526004361015610014575b600080fd5b600090813560e01c9081630146354614612c245750806301ffc9a714612b6957806302d05d3f14612b2457806306fdde0314612a53578063081812fc14612a34578063095ea7b3146128cd578063098144d4146128b25780630d705df61461288a57806323b872dd14612865578063261a2f301461273b5780632a55205a146126b357806332cb6b0c1461043757806333c93f58146125a757806336d396f41461258d5780633bdec33e1461255257806342842e0e1461251f57806342966c681461234e5780636221d13c146123285780636352211e146122f75780636b6b3c63146122c457806370a082311461222e578063715018a6146121d05780637241dfa01461219757806377f33fe91461217557806381ddcc1f1461213a57806386c24508146120f55780638aa0fdad146117ff5780638da5cb5b146117d6578063939a6c1c1461179b57806395d89b41146116b95780639e05d2401461164b5780639e942ace14611618578063a22cb46514611546578063a9fc664e14611435578063b88d4fde146113a8578063c87b56dd1461045f578063d082e38114610441578063d73792a914610437578063e985e9c514610400578063ee62ad6314610371578063f2fde38b146102ab5763f3119682146101f057600080fd5b346102a8576020806003193601126102a4576102a060408093600435606085845161021a81612d7e565b8281520152600081815260026020526040902054610242906001600160a01b03161515613944565b815260148452209161028d61026f600186519561025e87612d7e565b6102678161316f565b87520161316f565b91808501928352855195869582875251918601526060850190612c75565b9051838203601f19016040850152612c75565b0390f35b5080fd5b80fd5b50346102a85760203660031901126102a8576102c5612c9a565b6102cd613253565b6001600160a01b0390811690811561031d57600854826001600160601b0360a01b821617600855167f8be0079c531659141344cd1fd0a4f28419497f9722a3daafe3b4186f6b6457e0600080a380f35b60405162461bcd60e51b815260206004820152602660248201527f4f776e61626c653a206e6577206f776e657220697320746865207a65726f206160448201526564647265737360d01b6064820152608490fd5b50346102a8576020806003193601126102a4576001600160a01b039182610396612c9a565b16815260118252604081209260405193848592858354928381520192855285852094905b868383106103e45785906103d082870383612dcf565b6102a0604051928284938452830190612e60565b86548216855260019687019689965094019391909101906103ba565b50346102a85760403660031901126102a857602061042d61041f612c9a565b610427612cb0565b90612e9d565b6040519015158152f35b505061000f612d2e565b50346102a857806003193601126102a8576020601254604051908152f35b50346102a857602090816003193601126102a857600435600081815260026020526040902054610499906001600160a01b03161515613944565b8082526014835260408220906111236040516104b481612d7e565b6104bd8461316f565b815261111e6105e46104d2600180970161316f565b92838982015251926040519384917f3c73766720786d6c6e733d22687474703a2f2f7777772e77332e6f72672f32308b8401527f30302f737667222077696474683d2236303022206865696768743d22363030226040840152601f60f91b60608401527f3c726563742077696474683d2236303022206865696768743d2236303022206660618401526434b6361e9160d91b60818401528051918b82019261057e816086870186612c52565b631110179f60e11b60869186019182018190527f3c67207472616e73666f726d3d227472616e736c6174652835302c353029223e608a8301527f3c646566733e3c636c6970506174682069643d226c65667468616c66223e3c7260aa8301527f65637420783d22302220793d2230222077696474683d2232353022206865696760ca8301527f68743d22353030222f3e3c2f636c6970506174683e3c2f646566733e0000000060ea8301527f3c636972636c652063783d22323530222063793d223235302220723d223235306101068301526711103334b6361e9160c11b610126830152919061012e018151828f0191610679828285612c52565b01937f2220636c69702d706174683d2275726c28236c65667468616c6629222f3e00008552651e3232b3399f60d11b9485601e8201527f3c66696c7465722069643d2266312220783d222d3130252220793d222d31302560248201528661111f60f11b9482866044819501527f3c6665476175737369616e426c757220696e3d22536f7572636547726170686960468201527531911039ba322232bb34b0ba34b7b71e91189811179f60511b6066820152681e17b334b63a32b91f60b91b607c820152661e17b232b3399f60c91b978860858301527f3c636972636c652063783d22323532222063793d223235302220723d22323530608c8301528661086e6101296711103334b6361e9160c11b948560ac82015286519061079f8260b4830187612c52565b01751110103334b63a32b91e913ab9361411b3189491179f60511b60b48201527f3c646566733e3c636c6970506174682069643d22726967687468616c66223e3c60ca8201527f7265637420783d223235302220793d2230222077696474683d2232353022206860ea8201527f65696768743d22353030222f3e3c2f636c6970506174683e3c2f646566733e0061010a820152016028907f3c636972636c652063783d22323530222063793d223235302220723d2232353081526711103334b6361e9160c11b60208201520190565b87519061087c828289612c52565b017f2220636c69702d706174683d2275726c2823726967687468616c6629222f3e0081527f3c636972636c652063783d22323530222063793d223132352220723d22313235601f82015283603f8201528451906108dd826047830185612c52565b016211179f60e91b938460478301527f3c636972636c652063783d22323530222063793d223337352220723d22313235604a830152606a820152875190610928826072830189612c52565b018260728201527f3c636972636c652063783d22323530222063793d223132352220723d22333522607682015266103334b6361e9160c91b9081609682015288519061097882609d83018a612c52565b0184609d8201527f3c7265637420783d223233352220793d22313039222077696474683d2233302260a0820152837f206865696768743d223322207a3d223130222066696c6c3d2200000000000000918260c08201528751906109df8260d9830188612c52565b018160d98201527f3c7265637420783d223233372220793d22313234222077696474683d2232362260dd8201528260fd820152875190610a26826101169788840190612c52565b01938401527f3c7265637420783d223233352220793d22313339222077696474683d2233302261011a84015261013a83015282855161015393610a6d828d87840190612c52565b01928301527f3c636972636c652063783d22323530222063793d223337352220723d2233352261015783015261017782015281845161017e92610ab3828583018d612c52565b01918201527f3c7265637420783d223233352220793d22333630222077696474683d2233302261018282015272103432b4b3b43a1e91199811103334b6361e9160691b6101a28201528187516101b592610b10828583018a612c52565b01918201527f3c7265637420783d223233302220793d22333636222077696474683d223430226101b982015271103432b4b3b43a1e911911103334b6361e9160711b806101d98301528288516101eb93610b6d828683018b612c52565b01928301527f3c7265637420783d223233302220793d22333730222077696474683d223430226101ef8301528061020f83015282885161022193610bb4828683018b612c52565b01928301527f3c7265637420783d223233302220793d22333734222077696474683d223430226102258301528061024583015282885161025793610bfb828683018b612c52565b01928301527f3c7265637420783d223233302220793d22333738222077696474683d2234302261025b8301528061027b83015282885161028d93610c42828683018b612c52565b01928301527f3c7265637420783d223233302220793d22333832222077696474683d223430226102918301526102b18201528187516102c392610c88828583018a612c52565b01918201527f3c7265637420783d223234392220793d22333535222077696474683d223222206102c7820152713432b4b3b43a1e911a1811103334b6361e9160711b806102e78301528288516102f993610ce5828683018b612c52565b01928301527f3c7265637420783d223235332220793d22333535222077696474683d223222206102fd8301528061031d83015282885161032f93610d2c828683018b612c52565b01928301527f3c7265637420783d223235372220793d22333535222077696474683d223222206103338301528061035383015282885161036593610d73828683018b612c52565b01928301527f3c7265637420783d223234352220793d22333535222077696474683d223222206103698301528061038983015282885161039b93610dba828683018b612c52565b01928301527f3c7265637420783d223234312220793d22333535222077696474683d2232222061039f8301526103bf820152865190610e00826103d19788840190612c52565b01938401527f3c7265637420783d223234312220793d22333636222077696474683d223138226103d58401527f206865696768743d223138222066696c6c3d226e6f6e6522207374726f6b652d6103f5840152713bb4b23a341e9119111039ba3937b5b29e9160711b610415840152815161042793610e82828683018a612c52565b01928301527f3c646566733e3c706174682069643d22732d63757276652220643d224d32393061042a8301527f2c323020413234302c323430203020302c31203239302c34383022202066696c61044a8301527f6c3d226e6f6e6522207374726f6b653d226e6f6e6522202f3e3c2f646566733e61046a8301527f3c7465787420666f6e742d73697a653d223238222066696c6c3d22000000000061048a8301525190610f36826104a59687840190612c52565b01928301527f3c746578745061746820687265663d2223732d6375727665222073746172744f6104a78301526c333339b2ba1e9119981291101f60991b6104c78301526b455448206973206d6f6e657960a01b6104d48301526a1e17ba32bc3a2830ba341f60a91b93846104e0840152661e17ba32bc3a1f60c91b95866104eb8501526104f28401527f3c706174682069643d22732d63757276652d726576657273652220643d224d356104f88401527f302c33353020413234302c323430203020302c31203330302c333322202066696105188401527f6c6c3d226e6f6e6522207374726f6b653d226e6f6e6522202f3e0000000000006105388401526105528301527f3c7465787420666f6e742d73697a653d223234222066696c6c3d2200000000006105598301525190611074826105749788840190612c52565b01938401527f3c746578745061746820687265663d2223732d63757276652d7265766572736561057684015273111039ba30b93a27b33339b2ba1e91189812911f60611b6105968401527f457468657265756d2069732074686520776f726c6420636f6d707574657200006105aa8401526105c88301526105d3820152631e17b39f60e11b6105da820152651e17b9bb339f60d11b6105de820152036105c4810184520182612dcf565b6139b9565b918190847a184f03e93ff9f4daa797ed6e38ed64bf6a1f010000000000000000838181101561139a575b5050866d04ee2d6d415b85acef81000000008086101561138e575b5050662386f26fc1000080851015611381575b506305f5e10080851015611374575b5061271080851015611367575b506064841015611359575b60219082600a80961015611352575b939291906111c0838201613987565b9750870101905b61131c575b866112b68661111e60978a6040519384917f7b226e616d65223a2022457468657265756d20566973696f6e2023000000000088840152611215815180928a603b87019101612c52565b82017f222c20226465736372697074696f6e223a2022416e206f6e2d636861696e2045603b8201527f7468657265756d20566973696f6e204e46542e222c2022696d616765223a2022605b8201527f646174613a696d6167652f7376672b786d6c3b6261736536342c000000000000607b82015261129c825180938a609585019101612c52565b0161227d60f01b6095820152036077810184520182612dcf565b90611308603d60405180947f646174613a6170706c69636174696f6e2f6a736f6e3b6261736536342c000000858301526112f881518092878686019101612c52565b810103601d810185520183612dcf565b6102a0604051928284938452830190612c75565b600019019083906f181899199a1a9b1b9c1cb0b131b232b360811b8282061a83530491821561134d579190826111c7565b6111cc565b01826111b1565b6064909304926002016111a2565b6004919404930138611197565b600891940493013861118a565b601091940493013861117b565b90940493018638611168565b04935060409050388061114d565b50346102a85760803660031901126102a8576113c2612c9a565b6113ca612cb0565b90606435906044356001600160401b03831161143157366023840112156114315761142e93611406611429943690602481600401359101612e0b565b926114196114148433613431565b613358565b6114248383836134e6565b6138b9565b61340d565b80f35b8480fd5b50346102a85760203660031901126102a85761144f612c9a565b611457613253565b6001600160a01b03908181169081151580823b158161153e575b5061152c577fcc5dc080ff977b3c3a211fa63ab74f90f658f5ba9d3236e92c8f59570f442aac604086956114a3613215565b90825191168152856020820152a16008805460ff60a01b1916600160a01b179055600980546001600160a01b031916841790556114de575050f35b3b6114e7575b50f35b803b156115295781809160446040518094819363fb2de5d760e01b83523060048401526102d160248401525af1156114e45761152290612d6b565b6102a85780f35b50fd5b6040516332483afb60e01b8152600490fd5b905038611471565b50346102a85760403660031901126102a857611560612c9a565b6024359081151580920361000f576001600160a01b0316903382146115d35733835260056020526040832082600052602052604060002060ff1981541660ff83161790556040519081527f17307eab39ab6107e8899845ad3d59bd9653f200f220920489ca2b5937696c3160203392a380f35b60405162461bcd60e51b815260206004820152601960248201527f4552433732313a20617070726f766520746f2063616c6c6572000000000000006044820152606490fd5b50346102a85760203660031901126102a8576020906004358152600f8252604060018060a01b0391205416604051908152f35b50346102a85760203660031901126102a85760043580151580910361000f5760207f6787c7f9a80aa0f5ceddab2c54f1f5169c0b88e75dd5e19d5e858a64144c7dbc91611696613253565b6009805460ff60a01b191660a083901b60ff60a01b16179055604051908152a180f35b50346102a857806003193601126102a85760405160006007546116db81613135565b808452906001908181169081156117745750600114611719575b6102a08461170581860382612dcf565b604051918291602083526020830190612c75565b6007600090815292507fa66cc928b5edb82af9bd49922954155ab7b0942694bea4ce44661d9a8736c6885b82841061175c575050508101602001611705826116f5565b80546020858701810191909152909301928101611744565b60ff191660208087019190915292151560051b8501909201925061170591508390506116f5565b50346102a857806003193601126102a85760206040517f00000000000000000000000000000000000000000000000000000000000000008152f35b50346102a857806003193601126102a8576008546040516001600160a01b039091168152602090f35b50346102a85760403660031901126102a8576004356001600160401b0381116102a457611830903690600401612e42565b906024356001600160401b0381116102a457611850903690600401612e42565b6012546127108110156120bb57338352601360205260036040842054101561207e5760405160208101906118af602082885161188f8187858d01612c52565b81018751906118a382858301868c01612c52565b01038084520182612dcf565b51902091828452601560205260ff60408520541661203a57604051602081018181106001600160401b0382111761202457604052848152331561201257828552600f60205260408520546001600160a01b03908116612000576e5af43d82803e903d91602b57fd5bf37f0000000000000000000000000000000000000000000000000000000000000000763d602d80600a3d3981f3363d3d373d3d3d363d7300000062ffffff8260881c1617885260781b17602052806037600988f016908115611fc2577f000000000000000000000000000000000000000000000000000000000000000016338103611ecd57604051906119a982612d7e565b60018252602036818401376119bd82613aff565b52604051906119cb82612d7e565b6001825260203681840137611a207f00000000000000000000000000000000000000000000000000000000000000007f00000000000000000000000000000000000000000000000000000000000000006136ba565b611a2983613aff565b52823b15611ec957604051633713060f60e11b815291889183918291611a53919060048401613b32565b038183865af18015611ebe57908791611ea6575b50505b838652601060205260408620816001600160601b0360a01b82541617905533865260116020526040862080549068010000000000000000821015611e925760018201808255821015611e7e578752602080882090910180546001600160a01b03199081169093179055848752600f8152604080882080549093163317909255600085815260029091522054611ba99161142991611b13906001600160a01b031615155b15613b7f565b611b1d85336136c7565b600085815260026020526040902054611b40906001600160a01b03161515611b0d565b33875260036020526040872060018154019055848752600260205260408720336001600160601b0360a01b8254161790558433887fddf252ad1be2c89b69c2b068fc378daa952ba7f163c4a11628f55a4df523b3ef8180a4611ba285336136c7565b843361379d565b60405194611bb686612d7e565b85526020850152825260146020526040822083518051906001600160401b038211611e6a57611be58354613135565b601f8111611e25575b50602090601f8311600114611db9579180602094926001948892611dae575b5050600019600383901b1c191690831b1781555b019301519283516001600160401b038111611d9a57611c408254613135565b601f8111611d55575b50602094601f8211600114611cf2579484958293949592611ce7575b50508160011b916000199060031b1c19161790555b8152601560205260408120600160ff1982541617905560125460018101809111611cd35760125533815260136020526040812080549060018201809211611cbf575580f35b634e487b7160e01b83526011600452602483fd5b634e487b7160e01b82526011600452602482fd5b015190503880611c65565b601f198216958386526020862091865b888110611d3d57508360019596979810611d24575b505050811b019055611c7a565b015160001960f88460031b161c19169055388080611d17565b91926020600181928685015181550194019201611d02565b82855260208520601f830160051c81019160208410611d90575b601f0160051c01905b818110611d855750611c49565b858155600101611d78565b9091508190611d6f565b634e487b7160e01b84526041600452602484fd5b015190503880611c0d565b908386526020862091865b601f1985168110611e0d5750926020949260019492859383601f19811610611df4575b505050811b018155611c21565b015160001960f88460031b161c19169055388080611de7565b91926020600181928685015181550194019201611dc4565b83865260208620601f840160051c81019160208510611e60575b601f0160051c01905b818110611e555750611bee565b868155600101611e48565b9091508190611e3f565b634e487b7160e01b85526041600452602485fd5b634e487b7160e01b88526032600452602488fd5b634e487b7160e01b88526041600452602488fd5b611eaf90612d6b565b611eba578538611a67565b8580fd5b6040513d89823e3d90fd5b8780fd5b60405190611eda82612db4565b60028252604036602084013733611ef083613aff565b52611efa82613b22565b5260405190611f0882612db4565b6002825260403660208401377f0000000000000000000000000000000000000000000000000000000000000000611f3e83613aff565b527f0000000000000000000000000000000000000000000000000000000000000000611f6983613b22565b52823b15611ec957604051633713060f60e11b815291889183918291611f93919060048401613b32565b038183865af18015611ebe57908791611fae575b5050611a6a565b611fb790612d6b565b611eba578538611fa7565b60405162461bcd60e51b8152602060048201526016602482015275115490cc4c4d8dce8818dc99585d194819985a5b195960521b6044820152606490fd5b604051630cb756a360e41b8152600490fd5b60405163022432f960e01b8152600490fd5b634e487b7160e01b600052604160045260246000fd5b606460405162461bcd60e51b815260206004820152602060248201527f436f6c6f7220636f6d62696e6174696f6e20616c7265616479206578697374736044820152fd5b60405162461bcd60e51b815260206004820152601560248201527413585e080cc81391951cc81c195c881dd85b1b195d605a1b6044820152606490fd5b60405162461bcd60e51b815260206004820152601260248201527113585e081cdd5c1c1b1e481c995858da195960721b6044820152606490fd5b50346102a857806003193601126102a8576040517f00000000000000000000000000000000000000000000000000000000000000006001600160a01b03168152602090f35b50346102a857806003193601126102a85760206040517f00000000000000000000000000000000000000000000000000000000000000008152f35b50346102a857602061218f61218936612d4c565b90612ef7565b604051908152f35b50346102a85760203660031901126102a8576020906040906001600160a01b036121bf612c9a565b168152601383522054604051908152f35b50346102a857806003193601126102a8576121e9613253565b600880546001600160a01b031981169091556000906001600160a01b03167f8be0079c531659141344cd1fd0a4f28419497f9722a3daafe3b4186f6b6457e08280a380f35b50346102a85760203660031901126102a8576001600160a01b03612250612c9a565b16801561226d578160409160209352600383522054604051908152f35b60405162461bcd60e51b815260206004820152602960248201527f4552433732313a2061646472657373207a65726f206973206e6f7420612076616044820152683634b21037bbb732b960b91b6064820152608490fd5b50346102a85760203660031901126102a857602090600435815260108252604060018060a01b0391205416604051908152f35b50346102a85760203660031901126102a85760206123166004356132f7565b6040516001600160a01b039091168152f35b50346102a857806003193601126102a857602060ff60095460a01c166040519015158152f35b50346102a857602090816003193601126102a85760043561236e816132f7565b6001600160a01b0390811615919060005b600190818110156123c05761239481856136ba565b5084806123b9575b156123b357604051635cbd944160e01b8152600490fd5b0161237f565b508161239c565b5050939291506123cf816132f7565b938183526004845260408320946001600160601b0360a01b9586815416905516918281526003845260408120600019815401905581815260028452604081208581541690558181847fddf252ad1be2c89b69c2b068fc378daa952ba7f163c4a11628f55a4df523b3ef8280a460009215925b600190818110156124825761245681856136ba565b50848061247b575b1561247557604051635cbd944160e01b8152600490fd5b01612441565b508161245e565b82601587898784526010825260408420818154169055600f82526040842090815416905560148152604083206124d16001604051926124c084612d7e565b6124c98161316f565b84520161316f565b908183820152519061250a836040518093826124f68184019788815193849201612c52565b82016118a382518093868085019101612c52565b51902083525260408120805460ff1916905580f35b50346102a85761142e61142961253436612cc6565b906040519261254284612d99565b8684526114196114148433613431565b50346102a857806003193601126102a85760206040517f00000000000000000000000000000000000000000000000000000000000000008152f35b50346102a857602061218f6125a136612cfb565b9161302f565b50346102a8576125b636612d4c565b91906125c181613102565b600284101561269f5782931560001461263b57908252600f60205260408220546001600160a01b039182169116813b15612637578291602483926040519485938492631916558760e01b845260048401525af1801561262c5761262357505080f35b61152290612d6b565b6040513d84823e3d90fd5b5050fd5b6001600160a01b039081169150813b15612637578291602483926040519485938492631916558760e01b84527f00000000000000000000000000000000000000000000000000000000000000001660048401525af1801561262c5761262357505080f35b634e487b7160e01b83526021600452602483fd5b50346102a85760403660031901126102a8576004358152601060205260409020547f0000000000000000000000000000000000000000000000000000000000000000602435818102926001600160a01b0316918115918404141715612725576127106040928351928352046020820152f35b634e487b7160e01b600052601160045260246000fd5b50346102a85761274a36612cfb565b92919061275682613102565b916002851015612851578394156000146127cf578352600f60205260408320546001600160a01b0392908316908316803b156114315760405163122dd41160e21b8152939092166001600160a01b03908116600485015216602483015282908290604490829084905af1801561262c5761262357505080f35b506001600160a01b0392918316803b1561284d5760405163122dd41160e21b8152939091166001600160a01b0390811660048501527f00000000000000000000000000000000000000000000000000000000000000001660248401528290604490829084905af1801561262c57612844575080f35b61142e90612d6b565b8280fd5b634e487b7160e01b84526021600452602484fd5b50346102a85761142e61287736612cc6565b916128856114148433613431565b6134e6565b50346102a857806003193601126102a8576040805163657711f560e11b815260016020820152f35b50346102a857806003193601126102a8576020612316613215565b50346102a85760403660031901126102a8576128e7612c9a565b602435906128f4826132f7565b6001600160a01b0391821691908082168381146129e55733149081156129d3575b50156129685782845260046020526040842080546001600160a01b03191683179055612940836132f7565b167f8c5be1e5ebec7d5bd14f71427d1e84f3dd0314c0f7b2291e5b200ac8c7c3b9258480a480f35b60405162461bcd60e51b815260206004820152603d60248201527f4552433732313a20617070726f76652063616c6c6572206973206e6f7420746f60448201527f6b656e206f776e6572206f7220617070726f76656420666f7220616c6c0000006064820152608490fd5b6129df91503390612e9d565b38612915565b60405162461bcd60e51b815260206004820152602160248201527f4552433732313a20617070726f76616c20746f2063757272656e74206f776e656044820152603960f91b6064820152608490fd5b50346102a85760203660031901126102a857602061231660043561331a565b50346102a857806003193601126102a8576040519080600654612a7581613135565b80855291600191808316908115612afa5750600114612a9f575b6102a08561170581870382612dcf565b9250600683527ff652222313e28459528d920b65115c16c04f3efc82aaedc97be59f3f377c0d3f5b828410612ae2575050508101602001611705826102a0612a8f565b80546020858701810191909152909301928101612ac7565b8695506102a09693506020925061170594915060ff191682840152151560051b8201019293612a8f565b50346102a857806003193601126102a8576040517f00000000000000000000000000000000000000000000000000000000000000006001600160a01b03168152602090f35b50346102a85760203660031901126102a85760043563ffffffff60e01b81168091036102a45760209063152a902d60e11b8114908115612baf575b506040519015158152f35b632b435fdb60e21b811491508115612c13575b8115612bd0575b5082612ba4565b6380ac58cd60e01b811491508115612c02575b8115612bf1575b5082612bc9565b6301ffc9a760e01b14905082612bea565b635b5e139f60e01b81149150612be3565b63503e914d60e11b81149150612bc2565b9050346102a457816003193601126102a4578073721c002b0059009a671d00ad1700c9748146cd1b60209252f35b60005b838110612c655750506000910152565b8181015183820152602001612c55565b90602091612c8e81518092818552858086019101612c52565b601f01601f1916010190565b600435906001600160a01b038216820361000f57565b602435906001600160a01b038216820361000f57565b606090600319011261000f576001600160a01b0390600435828116810361000f5791602435908116810361000f579060443590565b606090600319011261000f57600435906024356001600160a01b038116810361000f5790604435600281101561000f5790565b503461000f57600036600319011261000f5760206040516127108152f35b604090600319011261000f5760043590602435600281101561000f5790565b6001600160401b03811161202457604052565b604081019081106001600160401b0382111761202457604052565b602081019081106001600160401b0382111761202457604052565b606081019081106001600160401b0382111761202457604052565b90601f801991011681019081106001600160401b0382111761202457604052565b6001600160401b03811161202457601f01601f191660200190565b929192612e1782612df0565b91612e256040519384612dcf565b82948184528183011161000f578281602093846000960137010152565b9080601f8301121561000f57816020612e5d93359101612e0b565b90565b90815180825260208080930193019160005b828110612e80575050505090565b83516001600160a01b031685529381019392810192600101612e72565b919060018060a01b0380931660005260056020528260406000209116908160005260205260ff60406000205416928315612ed5575050565b60ff60095460a01c16612ee6575050565b90919250612ef2613215565b161490565b90612f0182613102565b90600281101561301957612f96576000918252600f602090815260408084205490516351fc756760e11b81526001600160a01b0391821660048201529283916024918391165afa918215612f8a578092612f5a57505090565b9091506020823d8211612f82575b81612f7560209383612dcf565b810103126102a857505190565b3d9150612f68565b604051903d90823e3d90fd5b6040516351fc756760e11b81526001600160a01b037f00000000000000000000000000000000000000000000000000000000000000008116600483015290925060209183916024918391165afa90811561300d57600091612ff5575090565b906020823d8211612f825781612f7560209383612dcf565b6040513d6000823e3d90fd5b634e487b7160e01b600052602160045260246000fd5b9161303983613102565b9060028110156130195761309c576000928352600f60209081526040808520549051630c45ac0560e41b81526001600160a01b039485166004820152908416602482015292909183916044918391165afa918215612f8a578092612f5a57505090565b604051630c45ac0560e41b81526001600160a01b0392831660048201527f000000000000000000000000000000000000000000000000000000000000000083166024820152925060209183916044918391165afa90811561300d57600091612ff5575090565b6000908152601060205260409020546001600160a01b031680156131235790565b604051630867de0160e21b8152600490fd5b90600182811c92168015613165575b602083101461314f57565b634e487b7160e01b600052602260045260246000fd5b91607f1691613144565b906040519182600082549261318384613135565b9081845260019485811690816000146131f257506001146131af575b50506131ad92500383612dcf565b565b9093915060005260209081600020936000915b8183106131da5750506131ad9350820101388061319f565b855488840185015294850194879450918301916131c2565b9150506131ad94506020925060ff191682840152151560051b820101388061319f565b6009546001600160a01b031690811561322a57565b60ff60085460a01c161561323a57565b73721c002b0059009a671d00ad1700c9748146cd1b9150565b6008546001600160a01b0316330361326757565b606460405162461bcd60e51b815260206004820152602060248201527f4f776e61626c653a2063616c6c6572206973206e6f7420746865206f776e65726044820152fd5b156132b257565b60405162461bcd60e51b815260206004820152601860248201527f4552433732313a20696e76616c696420746f6b656e20494400000000000000006044820152606490fd5b6000908152600260205260409020546001600160a01b0316612e5d8115156132ab565b60008181526002602052604090205461333d906001600160a01b031615156132ab565b6000908152600460205260409020546001600160a01b031690565b1561335f57565b60405162461bcd60e51b815260206004820152602d60248201527f4552433732313a2063616c6c6572206973206e6f7420746f6b656e206f776e6560448201526c1c881bdc88185c1c1c9bdd9959609a1b6064820152608490fd5b60809060208152603260208201527f4552433732313a207472616e7366657220746f206e6f6e20455243373231526560408201527131b2b4bb32b91034b6b83632b6b2b73a32b960711b60608201520190565b1561341457565b60405162461bcd60e51b81528061342d600482016133ba565b0390fd5b61343a826132f7565b9160018060a01b0390818316928285168414948515613479575b50508315613463575b50505090565b61346f9192935061331a565b161438808061345d565b613484929550612e9d565b923880613454565b1561349357565b60405162461bcd60e51b815260206004820152602560248201527f4552433732313a207472616e736665722066726f6d20696e636f72726563742060448201526437bbb732b960d91b6064820152608490fd5b909161350d93926134f6826132f7565b6001600160a01b039584871693918716841461348c565b8582169485156136695792948515939060005b6001908181101561357b5761353581866136ba565b8780613573575b1561355357604051635cbd944160e01b8152600490fd5b8715613561575b5001613520565b61356d90878a3361370c565b3861355a565b50600061353c565b505094509561359a91925094809395613593846132f7565b161461348c565b80600052600493846020528160409485600020946001600160601b0360a01b958681541690558060005260036020528660002060001981540190558160005286600020956001968781540190558360005260026020528288600020918254161790557fddf252ad1be2c89b69c2b068fc378daa952ba7f163c4a11628f55a4df523b3ef600080a460005b83811061363357505050505050565b61363d81846136ba565b508180613661575b1561365a578451635cbd944160e01b81528690fd5b8301613624565b506000613645565b60405162461bcd60e51b8152602060048201526024808201527f4552433732313a207472616e7366657220746f20746865207a65726f206164646044820152637265737360e01b6064820152608490fd5b9190820180921161272557565b60005b60019081811015613706576136df81856136ba565b506001600160a01b03831661370057604051635cbd944160e01b8152600490fd5b016136ca565b50505050565b9092916001600160a01b039182613721613215565b1680613730575b505050505050565b80331461372857803b1561000f576000948460849481604051998a98899763657711f560e11b895216600488015216602486015216604484015260648301525afa801561300d57613786575b8080808080613728565b6001600160401b038111612024576040523861377c565b9192600092909190803b156138af576137eb946040518092630a85bd0160e11b9485835233600484015287602484015260448301526080606483015281878160209a8b966084830190612c75565b03926001600160a01b03165af184918161386f575b5061385e575050503d600014613856573d61381a81612df0565b906138286040519283612dcf565b81528091833d92013e5b805191826138535760405162461bcd60e51b81528061342d600482016133ba565b01fd5b506060613832565b6001600160e01b0319161492509050565b9091508581813d83116138a8575b6138878183612dcf565b8101031261143157516001600160e01b031981168103611431579038613800565b503d61387d565b5050915050600190565b9293600093909291803b15613939579484916139139660405180948193630a85bd0160e11b9788845233600485015260018060a01b0380921660248501526044840152608060648401528260209b8c976084830190612c75565b0393165af184918161386f575061385e575050503d600014613856573d61381a81612df0565b505050915050600190565b1561394b57565b60405162461bcd60e51b8152602060048201526014602482015273151bdad95b88191bd95cc81b9bdd08195e1a5cdd60621b6044820152606490fd5b9061399182612df0565b61399e6040519182612dcf565b82815280926139af601f1991612df0565b0190602036910137565b805115613aeb576040516139cc81612db4565b604081527f4142434445464748494a4b4c4d4e4f505152535455565758595a61626364656660208201527f6768696a6b6c6d6e6f707172737475767778797a303132333435363738392b2f60408201528151600292838201809211612725576003918290046001600160fe1b038116810361272557613a4e908594951b613987565b936020850193829183518401925b838110613a9a5750505050510680600114613a8757600214613a7c575090565b603d90600019015390565b50603d9081600019820153600119015390565b85600491979293949701918251600190603f9082828260121c16880101518453828282600c1c16880101518385015382828260061c1688010151888501531685010151878201530195929190613a5c565b50604051613af881612d99565b6000815290565b805115613b0c5760200190565b634e487b7160e01b600052603260045260246000fd5b805160011015613b0c5760400190565b90613b4590604083526040830190612e60565b81810360209283015282518082529082019282019160005b828110613b6b575050505090565b835185529381019392810192600101613b5d565b15613b8657565b60405162461bcd60e51b815260206004820152601c60248201527f4552433732313a20746f6b656e20616c7265616479206d696e746564000000006044820152606490fdfea26469706673582212202c7c2fb8a141dd09d16a40996fcd6bc681b211dd3e366b1dd46e356db7942ad264736f6c63430008110033a66cc928b5edb82af9bd49922954155ab7b0942694bea4ce44661d9a8736c688b10e2d527612073b26eecdfd717e6a320cf44b4afac2b0732d9fcbe2b7fa0cf6f652222313e28459528d920b65115c16c04f3efc82aaedc97be59f3f377c0d3f",
  "devdoc": {
    "errors": {
      "CreatorTokenBase__InvalidTransferValidatorContract()": [
        {
          "details": "Thrown when setting a transfer validator address that has no deployed code."
        }
      ],
      "ShouldNotMintToBurnAddress()": [
        {
          "details": "Thrown when the from and to address are both the zero address."
        }
      ]
    },
    "kind": "dev",
    "methods": {
      "approve(address,uint256)": {
        "details": "See {IERC721-approve}."
      },
      "balanceOf(address)": {
        "details": "See {IERC721-balanceOf}."
      },
      "getApproved(uint256)": {
        "details": "See {IERC721-getApproved}."
      },
      "minterOf(uint256)": {
        "params": {
          "tokenId": "The id of the token whose minter is being queried."
        },
        "returns": {
          "_0": "The minter of the token with id `tokenId`."
        }
      },
      "name()": {
        "details": "See {IERC721Metadata-name}."
      },
      "owner()": {
        "details": "Returns the address of the current owner."
      },
      "ownerOf(uint256)": {
        "details": "See {IERC721-ownerOf}."
      },
      "paymentSplitterOf(uint256)": {
        "params": {
          "tokenId": "The id of the token whose payment splitter is being queried."
        },
        "returns": {
          "_0": "The payment splitter of the token with id `tokenId`."
        }
      },
      "paymentSplittersOfMinter(address)": {
        "params": {
          "minter": "The minter whose payment splitters are being queried."
        },
        "returns": {
          "_0": "The payment splitters of the minter `minter`."
        }
      },
      "releasableERC20Funds(uint256,address,uint8)": {
        "params": {
          "coin": "The address of the ERC20 token whose releasable funds are being queried.",
          "releaseTo": "Specifies whether the minter or creator should be queried.",
          "tokenId": "The id of the token whose releasable funds are being queried."
        },
        "returns": {
          "_0": "The amount of ERC20 funds that can be released to the minter or creator of the token with id `tokenId`."
        }
      },
      "releasableNativeFunds(uint256,uint8)": {
        "params": {
          "releaseTo": "Specifies whether the minter or creator should be queried.",
          "tokenId": "The id of the token whose releasable funds are being queried."
        },
        "returns": {
          "_0": "The amount of native funds that can be released to the minter or creator of the token with id `tokenId`."
        }
      },
      "releaseERC20Funds(uint256,address,uint8)": {
        "params": {
          "coin": "The address of the ERC20 token whose funds are being released.",
          "releaseTo": "Specifies whether the minter or creator should be released to.",
          "tokenId": "The id of the token whose funds are being released."
        }
      },
      "releaseNativeFunds(uint256,uint8)": {
        "params": {
          "releaseTo": "Specifies whether the minter or creator should be released to.",
          "tokenId": "The id of the token whose funds are being released."
        }
      },
      "renounceOwnership()": {
        "details": "Leaves the contract without owner. It will not be possible to call `onlyOwner` functions. Can only be called by the current owner. NOTE: Renouncing ownership will leave the contract without an owner, thereby disabling any functionality that is only available to the owner."
      },
      "royaltyInfo(uint256,uint256)": {
        "params": {
          "salePrice": "The sale price of the token.",
          "tokenId": "The id of the token whose royalty info is being queried."
        },
        "returns": {
          "_0": "The royalty fee and recipient for a given token."
        }
      },
      "safeTransferFrom(address,address,uint256)": {
        "details": "See {IERC721-safeTransferFrom}."
      },
      "safeTransferFrom(address,address,uint256,bytes)": {
        "details": "See {IERC721-safeTransferFrom}."
      },
      "setApprovalForAll(address,bool)": {
        "details": "See {IERC721-setApprovalForAll}."
      },
      "setAutomaticApprovalOfTransfersFromValidator(bool)": {
        "details": "Throws when the caller is not the contract owner. ",
        "params": {
          "autoApprove": "If true, the collection's transfer validator will be automatically approved to                    transfer holder's tokens."
        }
      },
      "setTransferValidator(address)": {
        "details": "Throws when provided validator contract is not the zero address and does not have code.Throws when the caller is not the contract owner.<h4>Postconditions:</h4>         1. The transferValidator address is updated.         2. The `TransferValidatorUpdated` event is emitted.",
        "params": {
          "transferValidator_": "The address of the transfer validator contract."
        }
      },
      "symbol()": {
        "details": "See {IERC721Metadata-symbol}."
      },
      "tokenURI(uint256)": {
        "details": "See {IERC721Metadata-tokenURI}."
      },
      "transferFrom(address,address,uint256)": {
        "details": "See {IERC721-transferFrom}."
      },
      "transferOwnership(address)": {
        "details": "Transfers ownership of the contract to a new account (`newOwner`). Can only be called by the current owner."
      }
    },
    "version": 1
  },
  "userdoc": {
    "kind": "user",
    "methods": {
      "getTransferValidationFunction()": {
        "notice": "Returns the function selector for the transfer validator's validation function to be called for transaction simulation. "
      },
      "getTransferValidator()": {
        "notice": "Returns the transfer validator contract address for this token contract."
      },
      "isApprovedForAll(address,address)": {
        "notice": "Overrides behavior of isApprovedFor all such that if an operator is not explicitly approved         for all, the contract owner can optionally auto-approve the 721-C transfer validator for transfers."
      },
      "minterOf(uint256)": {
        "notice": "Returns the minter of the token with id `tokenId`."
      },
      "paymentSplitterOf(uint256)": {
        "notice": "Returns the payment splitter of the token with id `tokenId`."
      },
      "paymentSplittersOfMinter(address)": {
        "notice": "Returns the payment splitters of the minter `minter`."
      },
      "releasableERC20Funds(uint256,address,uint8)": {
        "notice": "Returns the amount of ERC20 funds that can be released to the minter or creator of the token with id `tokenId`."
      },
      "releasableNativeFunds(uint256,uint8)": {
        "notice": "Returns the amount of native funds that can be released to the minter or creator of the token with id `tokenId`."
      },
      "releaseERC20Funds(uint256,address,uint8)": {
        "notice": "Releases all available ERC20 funds to the minter or creator of the token with id `tokenId`."
      },
      "releaseNativeFunds(uint256,uint8)": {
        "notice": "Releases all available native funds to the minter or creator of the token with id `tokenId`."
      },
      "royaltyInfo(uint256,uint256)": {
        "notice": "Returns the royalty fee and recipient for a given token."
      },
      "setAutomaticApprovalOfTransfersFromValidator(bool)": {
        "notice": "Sets if the transfer validator is automatically approved as an operator for all token owners. "
      },
      "setTransferValidator(address)": {
        "notice": "Sets the transfer validator for the token contract."
      }
    },
    "version": 1
  },
  "storageLayout": {
    "storage": [
      {
        "astId": 2828,
        "contract": "contracts/EthereumVision.sol:EthereumVision",
        "label": "_name",
        "offset": 0,
        "slot": "0",
        "type": "t_string_storage"
      },
      {
        "astId": 2830,
        "contract": "contracts/EthereumVision.sol:EthereumVision",
        "label": "_symbol",
        "offset": 0,
        "slot": "1",
        "type": "t_string_storage"
      },
      {
        "astId": 2834,
        "contract": "contracts/EthereumVision.sol:EthereumVision",
        "label": "_owners",
        "offset": 0,
        "slot": "2",
        "type": "t_mapping(t_uint256,t_address)"
      },
      {
        "astId": 2838,
        "contract": "contracts/EthereumVision.sol:EthereumVision",
        "label": "_balances",
        "offset": 0,
        "slot": "3",
        "type": "t_mapping(t_address,t_uint256)"
      },
      {
        "astId": 2842,
        "contract": "contracts/EthereumVision.sol:EthereumVision",
        "label": "_tokenApprovals",
        "offset": 0,
        "slot": "4",
        "type": "t_mapping(t_uint256,t_address)"
      },
      {
        "astId": 2848,
        "contract": "contracts/EthereumVision.sol:EthereumVision",
        "label": "_operatorApprovals",
        "offset": 0,
        "slot": "5",
        "type": "t_mapping(t_address,t_mapping(t_address,t_bool))"
      },
      {
        "astId": 1512,
        "contract": "contracts/EthereumVision.sol:EthereumVision",
        "label": "_contractName",
        "offset": 0,
        "slot": "6",
        "type": "t_string_storage"
      },
      {
        "astId": 1514,
        "contract": "contracts/EthereumVision.sol:EthereumVision",
        "label": "_contractSymbol",
        "offset": 0,
        "slot": "7",
        "type": "t_string_storage"
      },
      {
        "astId": 2520,
        "contract": "contracts/EthereumVision.sol:EthereumVision",
        "label": "_owner",
        "offset": 0,
        "slot": "8",
        "type": "t_address"
      },
      {
        "astId": 1667,
        "contract": "contracts/EthereumVision.sol:EthereumVision",
        "label": "isValidatorInitialized",
        "offset": 20,
        "slot": "8",
        "type": "t_bool"
      },
      {
        "astId": 1670,
        "contract": "contracts/EthereumVision.sol:EthereumVision",
        "label": "transferValidator",
        "offset": 0,
        "slot": "9",
        "type": "t_address"
      },
      {
        "astId": 1620,
        "contract": "contracts/EthereumVision.sol:EthereumVision",
        "label": "autoApproveTransfersFromValidator",
        "offset": 20,
        "slot": "9",
        "type": "t_bool"
      },
      {
        "astId": 600,
        "contract": "contracts/EthereumVision.sol:EthereumVision",
        "label": "_royaltyFeeNumerator",
        "offset": 0,
        "slot": "10",
        "type": "t_uint256"
      },
      {
        "astId": 602,
        "contract": "contracts/EthereumVision.sol:EthereumVision",
        "label": "_minterShares",
        "offset": 0,
        "slot": "11",
        "type": "t_uint256"
      },
      {
        "astId": 604,
        "contract": "contracts/EthereumVision.sol:EthereumVision",
        "label": "_creatorShares",
        "offset": 0,
        "slot": "12",
        "type": "t_uint256"
      },
      {
        "astId": 606,
        "contract": "contracts/EthereumVision.sol:EthereumVision",
        "label": "_creator",
        "offset": 0,
        "slot": "13",
        "type": "t_address"
      },
      {
        "astId": 608,
        "contract": "contracts/EthereumVision.sol:EthereumVision",
        "label": "_paymentSplitterReference",
        "offset": 0,
        "slot": "14",
        "type": "t_address"
      },
      {
        "astId": 612,
        "contract": "contracts/EthereumVision.sol:EthereumVision",
        "label": "_minters",
        "offset": 0,
        "slot": "15",
        "type": "t_mapping(t_uint256,t_address)"
      },
      {
        "astId": 616,
        "contract": "contracts/EthereumVision.sol:EthereumVision",
        "label": "_paymentSplitters",
        "offset": 0,
        "slot": "16",
        "type": "t_mapping(t_uint256,t_address)"
      },
      {
        "astId": 621,
        "contract": "contracts/EthereumVision.sol:EthereumVision",
        "label": "_minterPaymentSplitters",
        "offset": 0,
        "slot": "17",
        "type": "t_mapping(t_address,t_array(t_address)dyn_storage)"
      },
      {
        "astId": 5555,
        "contract": "contracts/EthereumVision.sol:EthereumVision",
        "label": "tokenCounter",
        "offset": 0,
        "slot": "18",
        "type": "t_uint256"
      },
      {
        "astId": 5559,
        "contract": "contracts/EthereumVision.sol:EthereumVision",
        "label": "mintedTokens",
        "offset": 0,
        "slot": "19",
        "type": "t_mapping(t_address,t_uint256)"
      },
      {
        "astId": 5569,
        "contract": "contracts/EthereumVision.sol:EthereumVision",
        "label": "tokenColors",
        "offset": 0,
        "slot": "20",
        "type": "t_mapping(t_uint256,t_struct(Colors)5564_storage)"
      },
      {
        "astId": 5573,
        "contract": "contracts/EthereumVision.sol:EthereumVision",
        "label": "colorCombinations",
        "offset": 0,
        "slot": "21",
        "type": "t_mapping(t_bytes32,t_bool)"
      }
    ],
    "types": {
      "t_address": {
        "encoding": "inplace",
        "label": "address",
        "numberOfBytes": "20"
      },
      "t_array(t_address)dyn_storage": {
        "base": "t_address",
        "encoding": "dynamic_array",
        "label": "address[]",
        "numberOfBytes": "32"
      },
      "t_bool": {
        "encoding": "inplace",
        "label": "bool",
        "numberOfBytes": "1"
      },
      "t_bytes32": {
        "encoding": "inplace",
        "label": "bytes32",
        "numberOfBytes": "32"
      },
      "t_mapping(t_address,t_array(t_address)dyn_storage)": {
        "encoding": "mapping",
        "key": "t_address",
        "label": "mapping(address => address[])",
        "numberOfBytes": "32",
        "value": "t_array(t_address)dyn_storage"
      },
      "t_mapping(t_address,t_bool)": {
        "encoding": "mapping",
        "key": "t_address",
        "label": "mapping(address => bool)",
        "numberOfBytes": "32",
        "value": "t_bool"
      },
      "t_mapping(t_address,t_mapping(t_address,t_bool))": {
        "encoding": "mapping",
        "key": "t_address",
        "label": "mapping(address => mapping(address => bool))",
        "numberOfBytes": "32",
        "value": "t_mapping(t_address,t_bool)"
      },
      "t_mapping(t_address,t_uint256)": {
        "encoding": "mapping",
        "key": "t_address",
        "label": "mapping(address => uint256)",
        "numberOfBytes": "32",
        "value": "t_uint256"
      },
      "t_mapping(t_bytes32,t_bool)": {
        "encoding": "mapping",
        "key": "t_bytes32",
        "label": "mapping(bytes32 => bool)",
        "numberOfBytes": "32",
        "value": "t_bool"
      },
      "t_mapping(t_uint256,t_address)": {
        "encoding": "mapping",
        "key": "t_uint256",
        "label": "mapping(uint256 => address)",
        "numberOfBytes": "32",
        "value": "t_address"
      },
      "t_mapping(t_uint256,t_struct(Colors)5564_storage)": {
        "encoding": "mapping",
        "key": "t_uint256",
        "label": "mapping(uint256 => struct EthereumVision.Colors)",
        "numberOfBytes": "32",
        "value": "t_struct(Colors)5564_storage"
      },
      "t_string_storage": {
        "encoding": "bytes",
        "label": "string",
        "numberOfBytes": "32"
      },
      "t_struct(Colors)5564_storage": {
        "encoding": "inplace",
        "label": "struct EthereumVision.Colors",
        "members": [
          {
            "astId": 5561,
            "contract": "contracts/EthereumVision.sol:EthereumVision",
            "label": "leftHalf",
            "offset": 0,
            "slot": "0",
            "type": "t_string_storage"
          },
          {
            "astId": 5563,
            "contract": "contracts/EthereumVision.sol:EthereumVision",
            "label": "rightHalf",
            "offset": 0,
            "slot": "1",
            "type": "t_string_storage"
          }
        ],
        "numberOfBytes": "64"
      },
      "t_uint256": {
        "encoding": "inplace",
        "label": "uint256",
        "numberOfBytes": "32"
      }
    }
  }
}