{
  "address": "0xb709D18D0b1f5904CD5Ce0d6dfD11839097f7Cdd",
  "abi": [
    {
      "anonymous": false,
      "inputs": [
        {
          "indexed": true,
          "internalType": "contract IERC20",
          "name": "token",
          "type": "address"
        },
        {
          "indexed": false,
          "internalType": "address",
          "name": "to",
          "type": "address"
        },
        {
          "indexed": false,
          "internalType": "uint256",
          "name": "amount",
          "type": "uint256"
        }
      ],
      "name": "ERC20PaymentReleased",
      "type": "event"
    },
    {
      "anonymous": false,
      "inputs": [
        {
          "indexed": false,
          "internalType": "address",
          "name": "account",
          "type": "address"
        },
        {
          "indexed": false,
          "internalType": "uint256",
          "name": "shares",
          "type": "uint256"
        }
      ],
      "name": "PayeeAdded",
      "type": "event"
    },
    {
      "anonymous": false,
      "inputs": [
        {
          "indexed": false,
          "internalType": "address",
          "name": "from",
          "type": "address"
        },
        {
          "indexed": false,
          "internalType": "uint256",
          "name": "amount",
          "type": "uint256"
        }
      ],
      "name": "PaymentReceived",
      "type": "event"
    },
    {
      "anonymous": false,
      "inputs": [
        {
          "indexed": false,
          "internalType": "address",
          "name": "to",
          "type": "address"
        },
        {
          "indexed": false,
          "internalType": "uint256",
          "name": "amount",
          "type": "uint256"
        }
      ],
      "name": "PaymentReleased",
      "type": "event"
    },
    {
      "inputs": [
        {
          "internalType": "address[]",
          "name": "payees",
          "type": "address[]"
        },
        {
          "internalType": "uint256[]",
          "name": "shares_",
          "type": "uint256[]"
        }
      ],
      "name": "initializePaymentSplitter",
      "outputs": [],
      "stateMutability": "nonpayable",
      "type": "function"
    },
    {
      "inputs": [
        {
          "internalType": "uint256",
          "name": "index",
          "type": "uint256"
        }
      ],
      "name": "payee",
      "outputs": [
        {
          "internalType": "address",
          "name": "",
          "type": "address"
        }
      ],
      "stateMutability": "view",
      "type": "function"
    },
    {
      "inputs": [
        {
          "internalType": "address",
          "name": "account",
          "type": "address"
        }
      ],
      "name": "releasable",
      "outputs": [
        {
          "internalType": "uint256",
          "name": "",
          "type": "uint256"
        }
      ],
      "stateMutability": "view",
      "type": "function"
    },
    {
      "inputs": [
        {
          "internalType": "contract IERC20",
          "name": "token",
          "type": "address"
        },
        {
          "internalType": "address",
          "name": "account",
          "type": "address"
        }
      ],
      "name": "releasable",
      "outputs": [
        {
          "internalType": "uint256",
          "name": "",
          "type": "uint256"
        }
      ],
      "stateMutability": "view",
      "type": "function"
    },
    {
      "inputs": [
        {
          "internalType": "address payable",
          "name": "account",
          "type": "address"
        }
      ],
      "name": "release",
      "outputs": [],
      "stateMutability": "nonpayable",
      "type": "function"
    },
    {
      "inputs": [
        {
          "internalType": "contract IERC20",
          "name": "token",
          "type": "address"
        },
        {
          "internalType": "address",
          "name": "account",
          "type": "address"
        }
      ],
      "name": "release",
      "outputs": [],
      "stateMutability": "nonpayable",
      "type": "function"
    },
    {
      "inputs": [
        {
          "internalType": "contract IERC20",
          "name": "token",
          "type": "address"
        },
        {
          "internalType": "address",
          "name": "account",
          "type": "address"
        }
      ],
      "name": "released",
      "outputs": [
        {
          "internalType": "uint256",
          "name": "",
          "type": "uint256"
        }
      ],
      "stateMutability": "view",
      "type": "function"
    },
    {
      "inputs": [
        {
          "internalType": "address",
          "name": "account",
          "type": "address"
        }
      ],
      "name": "released",
      "outputs": [
        {
          "internalType": "uint256",
          "name": "",
          "type": "uint256"
        }
      ],
      "stateMutability": "view",
      "type": "function"
    },
    {
      "inputs": [
        {
          "internalType": "address",
          "name": "account",
          "type": "address"
        }
      ],
      "name": "shares",
      "outputs": [
        {
          "internalType": "uint256",
          "name": "",
          "type": "uint256"
        }
      ],
      "stateMutability": "view",
      "type": "function"
    },
    {
      "inputs": [
        {
          "internalType": "contract IERC20",
          "name": "token",
          "type": "address"
        }
      ],
      "name": "totalReleased",
      "outputs": [
        {
          "internalType": "uint256",
          "name": "",
          "type": "uint256"
        }
      ],
      "stateMutability": "view",
      "type": "function"
    },
    {
      "inputs": [],
      "name": "totalReleased",
      "outputs": [
        {
          "internalType": "uint256",
          "name": "",
          "type": "uint256"
        }
      ],
      "stateMutability": "view",
      "type": "function"
    },
    {
      "inputs": [],
      "name": "totalShares",
      "outputs": [
        {
          "internalType": "uint256",
          "name": "",
          "type": "uint256"
        }
      ],
      "stateMutability": "view",
      "type": "function"
    },
    {
      "stateMutability": "payable",
      "type": "receive"
    }
  ],
  "transactionHash": "0x82bf042b100f007cba50a6d9385e9b23663914869b1f68326efb981408f8a209",
  "args": [],
  "numDeployments": 1,
  "solcInputHash": "2aa81f2b9699191491c9bb598eb9e450",
  "bytecode": "0x6080806040523461001657610e1b908161001c8239f35b600080fdfe60406080815260048036101561004e575b50361561001c57600080fd5b513381523460208201527f6ef95f06320e7a25a04a175ca677b7052bdd97131872c2192525a629f51be77090604090a1005b600090813560e01c90816319165587146108265781633a98ef3914610807578163406072a9146107be57816348b75044146105be5781636e260c1e1461023c5781638b83209b146102035781639852595c146101c857508063a3f8eace146101a2578063c45ac0501461016d578063ce7c2ac214610135578063d79779b2146100fd5763e33b7de3036100105790346100f957816003193601126100f9576020906002549051908152f35b5080fd5b5090346100f95760203660031901126100f95760209181906001600160a01b03610125610995565b1681526006845220549051908152f35b5090346100f95760203660031901126100f95760209181906001600160a01b0361015d610995565b1681526003845220549051908152f35b5090346100f957806003193601126100f95760209061019b61018d610995565b6101956109b0565b90610ae2565b9051908152f35b5090346100f95760203660031901126100f95760209061019b6101c3610995565b610a77565b839150346101ff5760203660031901126101ff5760209282916001600160a01b036101f1610995565b168252845220549051908152f35b8280fd5b838334610239576020366003190112610239575061022360209235610a1d565b905491519160018060a01b039160031b1c168152f35b80fd5b905082346101ff57806003193601126101ff5767ffffffffffffffff9180358381116105ba5761026f90369083016109c6565b909260249485359081116105b65761028a90369085016109c6565b9190928281036105595780156105175760ff8854166104c857875b8181106102bb57885460ff191660011789558880f35b6102c68183896109f7565b6001600160a01b039035818116918282036104c4576102e684888a6109f7565b3592801561046d57831561042b57808d528c6003918860209284845220546103d55760055493680100000000000000008510156103c2578f90938796959493837f40c340f65e17194d14ddddb073d3c9f888e3cb52b5aae0c6c7706b4fbc905fac99958d9561035c6001998a8101600555610a1d565b9092835491871b90811b9283911b169119161790558352522055610381838254610a54565b905585516001600160a01b039190911681526020810191909152604090a160001981146103b0576001016102a5565b634e487b7160e01b8952601186528789fd5b50634e487b7160e01b8f5260418c528d8ffd5b508a602b8e6084938b519362461bcd60e51b85528401528201527f5061796d656e7453706c69747465723a206163636f756e7420616c726561647960448201526a206861732073686172657360a81b6064820152fd5b865162461bcd60e51b81526020818c0152601d818e01527f5061796d656e7453706c69747465723a207368617265732061726520300000006044820152606490fd5b865162461bcd60e51b81526020818c0152602c818e01527f5061796d656e7453706c69747465723a206163636f756e74206973207468652060448201526b7a65726f206164647265737360a01b6064820152608490fd5b8b80fd5b815162461bcd60e51b81526020818701528088018890527f5061796d656e7453706c69747465723a20616c726561647920696e697469616c6044820152631a5e995960e21b6064820152608490fd5b815162461bcd60e51b8152602081870152601a818901527f5061796d656e7453706c69747465723a206e6f207061796565730000000000006044820152606490fd5b815162461bcd60e51b81526020818701526032818901527f5061796d656e7453706c69747465723a2070617965657320616e6420736861726044820152710cae640d8cadccee8d040dad2e6dac2e8c6d60731b6064820152608490fd5b8680fd5b8480fd5b9050346100f957826003193601126100f9576105d8610995565b6105e06109b0565b60018060a01b03928382169384865260209060038252610604888820541515610b97565b61060e8486610ae2565b9461061a861515610bf2565b169485875260068252878720610631868254610a54565b9055858752600782528787209087528152868620805485019055865163a9059cbb60e01b8183019081526001600160a01b03851660248301526044808301879052825261067f606483610aaa565b88519189830183811067ffffffffffffffff8211176107ab578a528383527f5361666545524332303a206c6f772d6c6576656c2063616c6c206661696c656484840152516106df929189918291828b5af16106d8610c52565b9088610c92565b805182811591821561078b575b505090501561073657505093516001600160a01b039094168452602084015290917f3be5b7a71e84ed12875d241991c70855ac5817d847039e17a9d895c1ceb0f18a90604090a280f35b865162461bcd60e51b815291820152602a60248201527f5361666545524332303a204552433230206f7065726174696f6e20646964206e6044820152691bdd081cdd58d8d9595960b21b606482015260849150fd5b83809293500103126105b65781015180151581036105b6578082386106ec565b634e487b7160e01b8a526041865260248afd5b8284346100f957806003193601126100f957806020926107dc610995565b6107e46109b0565b6001600160a01b0391821683526007865283832091168252845220549051908152f35b8284346100f957816003193601126100f9576020906001549051908152f35b8284346100f957602092836003193601126101ff5780356001600160a01b03811691908290036109915781845260038552610865838520541515610b97565b61086e82610a77565b9061087a821515610bf2565b61088682600254610a54565b60025582855280865283852082815401905581471061094e578480808085875af16108af610c52565b50156108e557507fdf20fd1e76bc69d672e4814fafb2c449bba3a5369d8359adf9e05e6fde87b05693948351928352820152a180f35b835162461bcd60e51b8152908101869052603a60248201527f416464726573733a20756e61626c6520746f2073656e642076616c75652c207260448201527f6563697069656e74206d617920686176652072657665727465640000000000006064820152608490fd5b835162461bcd60e51b8152908101869052601d60248201527f416464726573733a20696e73756666696369656e742062616c616e63650000006044820152606490fd5b8380fd5b600435906001600160a01b03821682036109ab57565b600080fd5b602435906001600160a01b03821682036109ab57565b9181601f840112156109ab5782359167ffffffffffffffff83116109ab576020808501948460051b0101116109ab57565b9190811015610a075760051b0190565b634e487b7160e01b600052603260045260246000fd5b600554811015610a075760056000527f036b6384b5eca791c62761152d0c79bb0604c104a5fb6f4eb0703f3154bb3db00190600090565b91908201809211610a6157565b634e487b7160e01b600052601160045260246000fd5b610aa790610a884760025490610a54565b6001600160a01b03821660009081526004602052604090205491610d66565b90565b90601f8019910116810190811067ffffffffffffffff821117610acc57604052565b634e487b7160e01b600052604160045260246000fd5b6040516370a0823160e01b81523060048201529291906001600160a01b039081169060208086602481865afa958615610b8b57600096610b5a575b50610b3a610aa79596846000526006835260406000205490610a54565b926000526007815260406000209184166000525260406000205491610d66565b958187813d8311610b84575b610b708183610aaa565b810103126102395750945194610b3a610b1d565b503d610b66565b6040513d6000823e3d90fd5b15610b9e57565b60405162461bcd60e51b815260206004820152602660248201527f5061796d656e7453706c69747465723a206163636f756e7420686173206e6f2060448201526573686172657360d01b6064820152608490fd5b15610bf957565b60405162461bcd60e51b815260206004820152602b60248201527f5061796d656e7453706c69747465723a206163636f756e74206973206e6f742060448201526a191d59481c185e5b595b9d60aa1b6064820152608490fd5b3d15610c8d573d9067ffffffffffffffff8211610acc5760405191610c81601f8201601f191660200184610aaa565b82523d6000602084013e565b606090565b91929015610cf45750815115610ca6575090565b3b15610caf5790565b60405162461bcd60e51b815260206004820152601d60248201527f416464726573733a2063616c6c20746f206e6f6e2d636f6e74726163740000006044820152606490fd5b825190915015610d075750805190602001fd5b6040519062461bcd60e51b82528160208060048301528251908160248401526000935b828510610d4d575050604492506000838284010152601f80199101168101030190fd5b8481018201518686016044015293810193859350610d2a565b6001600160a01b03166000908152600360205260408120549091818102918115918304141715610dd157600154908115610dbd5704918203918211610da9575090565b634e487b7160e01b81526011600452602490fd5b634e487b7160e01b83526012600452602483fd5b634e487b7160e01b82526011600452602482fdfea26469706673582212203f5504b41665e3462cf5407edf9c716de88a1aae6121349a150d3d6dd4da308664736f6c63430008110033",
  "devdoc": {
    "details": "This contract allows to split Ether payments among a group of accounts. The sender does not need to be aware that the Ether will be split in this way, since it is handled transparently by the contract. The split can be in equal parts or in any other arbitrary proportion. The way this is specified is by assigning each account to a number of shares. Of all the Ether that this contract receives, each account will then be able to claim an amount proportional to the percentage of total shares they were assigned. The distribution of shares is set at the time of contract deployment and can't be updated thereafter. `PaymentSplitter` follows a _pull payment_ model. This means that payments are not automatically forwarded to the accounts but kept in this contract, and the actual transfer is triggered as a separate step by calling the {release} function. NOTE: This contract assumes that ERC20 tokens will behave similarly to native tokens (Ether). Rebasing tokens, and tokens that apply fees during transfers, are likely to not be supported as expected. If in doubt, we encourage you to run tests before sending real value to this contract.",
    "kind": "dev",
    "methods": {
      "initializePaymentSplitter(address[],uint256[])": {
        "details": "Initializes an instance of `PaymentSplitter` where each account in `payees` is assigned the number of shares at the matching position in the `shares` array. All addresses in `payees` must be non-zero. Both arrays must have the same non-zero length, and there must be no duplicates in `payees`."
      },
      "payee(uint256)": {
        "details": "Getter for the address of the payee number `index`."
      },
      "releasable(address)": {
        "details": "Getter for the amount of payee's releasable Ether."
      },
      "releasable(address,address)": {
        "details": "Getter for the amount of payee's releasable `token` tokens. `token` should be the address of an IERC20 contract."
      },
      "release(address)": {
        "details": "Triggers a transfer to `account` of the amount of Ether they are owed, according to their percentage of the total shares and their previous withdrawals."
      },
      "release(address,address)": {
        "details": "Triggers a transfer to `account` of the amount of `token` tokens they are owed, according to their percentage of the total shares and their previous withdrawals. `token` must be the address of an IERC20 contract."
      },
      "released(address)": {
        "details": "Getter for the amount of Ether already released to a payee."
      },
      "released(address,address)": {
        "details": "Getter for the amount of `token` tokens already released to a payee. `token` should be the address of an IERC20 contract."
      },
      "shares(address)": {
        "details": "Getter for the amount of shares held by an account."
      },
      "totalReleased()": {
        "details": "Getter for the total amount of Ether already released."
      },
      "totalReleased(address)": {
        "details": "Getter for the total amount of `token` already released. `token` should be the address of an IERC20 contract."
      },
      "totalShares()": {
        "details": "Getter for the total shares held by payees."
      }
    },
    "title": "PaymentSplitter",
    "version": 1
  },
  "userdoc": {
    "kind": "user",
    "methods": {},
    "version": 1
  },
  "storageLayout": {
    "storage": [
      {
        "astId": 886,
        "contract": "contracts/PaymentSplitterInitializable.sol:PaymentSplitterInitializable",
        "label": "_paymentSplitterInitialized",
        "offset": 0,
        "slot": "0",
        "type": "t_bool"
      },
      {
        "astId": 888,
        "contract": "contracts/PaymentSplitterInitializable.sol:PaymentSplitterInitializable",
        "label": "_totalShares",
        "offset": 0,
        "slot": "1",
        "type": "t_uint256"
      },
      {
        "astId": 890,
        "contract": "contracts/PaymentSplitterInitializable.sol:PaymentSplitterInitializable",
        "label": "_totalReleased",
        "offset": 0,
        "slot": "2",
        "type": "t_uint256"
      },
      {
        "astId": 894,
        "contract": "contracts/PaymentSplitterInitializable.sol:PaymentSplitterInitializable",
        "label": "_shares",
        "offset": 0,
        "slot": "3",
        "type": "t_mapping(t_address,t_uint256)"
      },
      {
        "astId": 898,
        "contract": "contracts/PaymentSplitterInitializable.sol:PaymentSplitterInitializable",
        "label": "_released",
        "offset": 0,
        "slot": "4",
        "type": "t_mapping(t_address,t_uint256)"
      },
      {
        "astId": 901,
        "contract": "contracts/PaymentSplitterInitializable.sol:PaymentSplitterInitializable",
        "label": "_payees",
        "offset": 0,
        "slot": "5",
        "type": "t_array(t_address)dyn_storage"
      },
      {
        "astId": 906,
        "contract": "contracts/PaymentSplitterInitializable.sol:PaymentSplitterInitializable",
        "label": "_erc20TotalReleased",
        "offset": 0,
        "slot": "6",
        "type": "t_mapping(t_contract(IERC20)77,t_uint256)"
      },
      {
        "astId": 913,
        "contract": "contracts/PaymentSplitterInitializable.sol:PaymentSplitterInitializable",
        "label": "_erc20Released",
        "offset": 0,
        "slot": "7",
        "type": "t_mapping(t_contract(IERC20)77,t_mapping(t_address,t_uint256))"
      }
    ],
    "types": {
      "t_address": {
        "encoding": "inplace",
        "label": "address",
        "numberOfBytes": "20"
      },
      "t_array(t_address)dyn_storage": {
        "base": "t_address",
        "encoding": "dynamic_array",
        "label": "address[]",
        "numberOfBytes": "32"
      },
      "t_bool": {
        "encoding": "inplace",
        "label": "bool",
        "numberOfBytes": "1"
      },
      "t_contract(IERC20)77": {
        "encoding": "inplace",
        "label": "contract IERC20",
        "numberOfBytes": "20"
      },
      "t_mapping(t_address,t_uint256)": {
        "encoding": "mapping",
        "key": "t_address",
        "label": "mapping(address => uint256)",
        "numberOfBytes": "32",
        "value": "t_uint256"
      },
      "t_mapping(t_contract(IERC20)77,t_mapping(t_address,t_uint256))": {
        "encoding": "mapping",
        "key": "t_contract(IERC20)77",
        "label": "mapping(contract IERC20 => mapping(address => uint256))",
        "numberOfBytes": "32",
        "value": "t_mapping(t_address,t_uint256)"
      },
      "t_mapping(t_contract(IERC20)77,t_uint256)": {
        "encoding": "mapping",
        "key": "t_contract(IERC20)77",
        "label": "mapping(contract IERC20 => uint256)",
        "numberOfBytes": "32",
        "value": "t_uint256"
      },
      "t_uint256": {
        "encoding": "inplace",
        "label": "uint256",
        "numberOfBytes": "32"
      }
    }
  }
}