{
  "address": "0x5B8b09F6C97F5d78E6da64286e44EA5e1D72E06F",
  "abi": [
    {
      "inputs": [],
      "stateMutability": "nonpayable",
      "type": "constructor"
    },
    {
      "anonymous": false,
      "inputs": [
        {
          "indexed": true,
          "internalType": "address",
          "name": "owner",
          "type": "address"
        },
        {
          "indexed": true,
          "internalType": "address",
          "name": "approved",
          "type": "address"
        },
        {
          "indexed": true,
          "internalType": "uint256",
          "name": "tokenId",
          "type": "uint256"
        }
      ],
      "name": "Approval",
      "type": "event"
    },
    {
      "anonymous": false,
      "inputs": [
        {
          "indexed": true,
          "internalType": "address",
          "name": "owner",
          "type": "address"
        },
        {
          "indexed": true,
          "internalType": "address",
          "name": "operator",
          "type": "address"
        },
        {
          "indexed": false,
          "internalType": "bool",
          "name": "approved",
          "type": "bool"
        }
      ],
      "name": "ApprovalForAll",
      "type": "event"
    },
    {
      "anonymous": false,
      "inputs": [
        {
          "indexed": true,
          "internalType": "address",
          "name": "from",
          "type": "address"
        },
        {
          "indexed": true,
          "internalType": "address",
          "name": "to",
          "type": "address"
        },
        {
          "indexed": true,
          "internalType": "uint256",
          "name": "tokenId",
          "type": "uint256"
        }
      ],
      "name": "Transfer",
      "type": "event"
    },
    {
      "inputs": [
        {
          "internalType": "address",
          "name": "to",
          "type": "address"
        },
        {
          "internalType": "uint256",
          "name": "tokenId",
          "type": "uint256"
        }
      ],
      "name": "approve",
      "outputs": [],
      "stateMutability": "nonpayable",
      "type": "function"
    },
    {
      "inputs": [
        {
          "internalType": "address",
          "name": "owner",
          "type": "address"
        }
      ],
      "name": "balanceOf",
      "outputs": [
        {
          "internalType": "uint256",
          "name": "",
          "type": "uint256"
        }
      ],
      "stateMutability": "view",
      "type": "function"
    },
    {
      "inputs": [
        {
          "internalType": "uint256",
          "name": "tokenId",
          "type": "uint256"
        }
      ],
      "name": "getApproved",
      "outputs": [
        {
          "internalType": "address",
          "name": "",
          "type": "address"
        }
      ],
      "stateMutability": "view",
      "type": "function"
    },
    {
      "inputs": [
        {
          "internalType": "address",
          "name": "owner",
          "type": "address"
        },
        {
          "internalType": "address",
          "name": "operator",
          "type": "address"
        }
      ],
      "name": "isApprovedForAll",
      "outputs": [
        {
          "internalType": "bool",
          "name": "",
          "type": "bool"
        }
      ],
      "stateMutability": "view",
      "type": "function"
    },
    {
      "inputs": [
        {
          "internalType": "uint256",
          "name": "tokenId",
          "type": "uint256"
        }
      ],
      "name": "mint",
      "outputs": [],
      "stateMutability": "nonpayable",
      "type": "function"
    },
    {
      "inputs": [],
      "name": "name",
      "outputs": [
        {
          "internalType": "string",
          "name": "",
          "type": "string"
        }
      ],
      "stateMutability": "view",
      "type": "function"
    },
    {
      "inputs": [
        {
          "internalType": "uint256",
          "name": "tokenId",
          "type": "uint256"
        }
      ],
      "name": "ownerOf",
      "outputs": [
        {
          "internalType": "address",
          "name": "",
          "type": "address"
        }
      ],
      "stateMutability": "view",
      "type": "function"
    },
    {
      "inputs": [
        {
          "internalType": "address",
          "name": "from",
          "type": "address"
        },
        {
          "internalType": "address",
          "name": "to",
          "type": "address"
        },
        {
          "internalType": "uint256",
          "name": "tokenId",
          "type": "uint256"
        }
      ],
      "name": "safeTransferFrom",
      "outputs": [],
      "stateMutability": "nonpayable",
      "type": "function"
    },
    {
      "inputs": [
        {
          "internalType": "address",
          "name": "from",
          "type": "address"
        },
        {
          "internalType": "address",
          "name": "to",
          "type": "address"
        },
        {
          "internalType": "uint256",
          "name": "tokenId",
          "type": "uint256"
        },
        {
          "internalType": "bytes",
          "name": "data",
          "type": "bytes"
        }
      ],
      "name": "safeTransferFrom",
      "outputs": [],
      "stateMutability": "nonpayable",
      "type": "function"
    },
    {
      "inputs": [
        {
          "internalType": "address",
          "name": "operator",
          "type": "address"
        },
        {
          "internalType": "bool",
          "name": "approved",
          "type": "bool"
        }
      ],
      "name": "setApprovalForAll",
      "outputs": [],
      "stateMutability": "nonpayable",
      "type": "function"
    },
    {
      "inputs": [
        {
          "internalType": "bytes4",
          "name": "interfaceId",
          "type": "bytes4"
        }
      ],
      "name": "supportsInterface",
      "outputs": [
        {
          "internalType": "bool",
          "name": "",
          "type": "bool"
        }
      ],
      "stateMutability": "view",
      "type": "function"
    },
    {
      "inputs": [],
      "name": "symbol",
      "outputs": [
        {
          "internalType": "string",
          "name": "",
          "type": "string"
        }
      ],
      "stateMutability": "view",
      "type": "function"
    },
    {
      "inputs": [
        {
          "internalType": "uint256",
          "name": "tokenId",
          "type": "uint256"
        }
      ],
      "name": "tokenURI",
      "outputs": [
        {
          "internalType": "string",
          "name": "",
          "type": "string"
        }
      ],
      "stateMutability": "view",
      "type": "function"
    },
    {
      "inputs": [
        {
          "internalType": "address",
          "name": "from",
          "type": "address"
        },
        {
          "internalType": "address",
          "name": "to",
          "type": "address"
        },
        {
          "internalType": "uint256",
          "name": "tokenId",
          "type": "uint256"
        }
      ],
      "name": "transferFrom",
      "outputs": [],
      "stateMutability": "nonpayable",
      "type": "function"
    }
  ],
  "transactionHash": "0xcfc0b4549738e796fbf5ee0716e45f61cdc2a9550f7e9507cc0e886781999d4b",
  "args": [],
  "numDeployments": 1,
  "solcInputHash": "a2c8f4abf4d13220fdb12c3b5d3e79cd",
  "bytecode": "0x60803462000311576001600160401b039060409080820183811182821017620002fb578252600f81526020926e596f7572436f6c6c65637469626c6560881b84830152825183810181811083821117620002fb5784526002815261594360f01b85820152825190828211620002fb5760008054926001958685811c95168015620002f0575b89861014620002dc578190601f9586811162000289575b5089908683116001146200022557849262000219575b5050600019600383901b1c191690861b1781555b8151938411620002055784548581811c91168015620001fa575b88821014620001e6578381116200019e575b508692841160011462000138578394959650926200012c575b5050600019600383901b1c191690821b1790555b51611cad9081620003178239f35b0151905038806200010a565b9190601f1984169685845280842093905b8882106200018657505083859697106200016c575b505050811b0190556200011e565b015160001960f88460031b161c191690553880806200015e565b80878596829496860151815501950193019062000149565b8582528782208480870160051c8201928a8810620001dc575b0160051c019086905b828110620001d0575050620000f1565b838155018690620001c0565b92508192620001b7565b634e487b7160e01b82526022600452602482fd5b90607f1690620000df565b634e487b7160e01b81526041600452602490fd5b015190503880620000b1565b8480528a85208994509190601f198416865b8d82821062000272575050841162000258575b505050811b018155620000c5565b015160001960f88460031b161c191690553880806200024a565b8385015186558c9790950194938401930162000237565b9091508380528984208680850160051c8201928c8610620002d2575b918a91869594930160051c01915b828110620002c35750506200009b565b8681558594508a9101620002b3565b92508192620002a5565b634e487b7160e01b83526022600452602483fd5b94607f169462000084565b634e487b7160e01b600052604160045260246000fd5b600080fdfe608060408181526004918236101561001657600080fd5b600092833560e01c91826301ffc9a7146113955750816306fdde03146112ca578163081812fc146112aa578163095ea7b31461113c57816323b872dd1461111757816342842e0e146110e35781636352211e146110b257816370a082311461101c57816395d89b4114610f15578163a0712d6814610dcd578163a22cb46514610cfd578163b88d4fde14610c45578163c87b56dd1461010f575063e985e9c5146100bf57600080fd5b3461010b578060031936011261010b5760ff816020936100dd611448565b6100e5611463565b6001600160a01b0391821683526005875283832091168252855220549151911615158152f35b5080fd5b8391503461010b5760209182600319360112610c425781356000818152600260205260409020549092906001600160a01b031615610c0857845190610153826114ae565b855161015e816114fd565b600790818152662344394534463560c81b8782015283528651610180816114fd565b8181526611a323229ca19b60c91b878201528684015286516101a1816114fd565b81815266046866c8a708a760cb1b878201528784015286516101c2816114fd565b8181526611a29c221c232360c91b87820152606084015286516101e4816114fd565b818152662346464441433160c81b8782015260808401528651610206816114fd565b8181526608d10d514e110d60ca1b8782015260a08401528651610228816114fd565b818152662346424534453160c81b8782015260c0840152865161024a816114fd565b818152662345304438463360c81b8782015260e0840152868681519261026f846114fd565b8084526608d10e518d514d60ca1b828501526101009384870152825190610295826114fd565b8082526608d18d114d510d60ca1b8383015261012091828801528351916102bb836114ae565b84516102c6816114fd565b8281526611a3232323232360c91b85820152835284516102e5816114fd565b8281526611a32322a119a160c91b85820152848401528451610306816114fd565b8281526611a323221a9a2360c91b85820152858401528451610327816114fd565b8281526611a32321a2221960c91b8582015260608401528451610349816114fd565b828152660234638424244360cc1b858201526080840152845161036b816114fd565b828152662344434537373560c81b8582015260a0840152845161038d816114fd565b8281526608d191918d4e5160ca1b8582015260c084015284516103af816114fd565b828152662343384536433960c81b8582015260e084015284516103d1816114fd565b8281526611a11922a1231960c91b858201528684015284516103f2816114fd565b8281526611a1212222a32160c91b8582015281840152845195610414876114ae565b855161041f816114fd565b838152660233030303030360cc1b868201528752855161043e816114fd565b838152662333453237323360c81b8682015285880152855161045f816114fd565b83815266046646c666466760cb1b86820152868801528551610480816114fd565b838152660233142354532360cc1b86820152606088015285516104a2816114fd565b838152662342373143314360c81b86820152608088015285516104c4816114fd565b838152662334413134384360c81b8682015260a088015285516104e6816114fd565b83815266119c1c18229a2360c91b8682015260c08801528551610508816114fd565b8381526611999898a11c9960c91b8682015260e088015285519061052b826114fd565b838252662330443437413160c81b8683015287015284519161054c836114fd565b8252660233030344434360cc1b8483015285015261057861058761057f600a98898c0693848092611c50565b5194611c50565b519186611c50565b519181519584830196872084518686012014610b95575b509261091295607d936108dc879461090d977f30302f737667222077696474683d2236303022206865696768743d22363030229951998a977f3c73766720786d6c6e733d22687474703a2f2f7777772e77332e6f72672f3230888a0152880152601f60f91b60608801527f3c726563742077696474683d2236303022206865696768743d2236303022206660618801526434b6361e9160d91b608188015261064f815180928860868b019101611400565b6211179f60e91b60869188019182018190527f3c67207472616e73666f726d3d227472616e736c6174652835302c353029223e60898301527f3c646566733e3c636c6970506174682069643d226c65667468616c66223e3c7260a98301527f65637420783d22302220793d2230222077696474683d2232353022206865696760c98301527f68743d22353030222f3e3c2f636c6970506174683e3c2f646566733e0000000060e98301527f3c636972636c652063783d22323530222063793d223235302220723d223235306101058301526711103334b6361e9160c11b610125830152959061081e90899061012d0184519061074c82828b611400565b017f2220636c69702d706174683d2275726c28236c65667468616c6629222f3e000081527f3c646566733e3c636c6970506174682069643d22726967687468616c66223e3c601e8201527f7265637420783d223235302220793d2230222077696474683d22323530222068603e8201527f65696768743d22353030222f3e3c2f636c6970506174683e3c2f646566733e00605e820152016028907f3c636972636c652063783d22323530222063793d223235302220723d2232353081526711103334b6361e9160c11b60208201520190565b90845190850191610830828285611400565b017f2220636c69702d706174683d2275726c2823726967687468616c6629222f3e0081527f3c636972636c652063783d22323530222063793d223132352220723d22333522601f82015261089c66103334b6361e9160c91b9586603f8401525180936046840190611400565b01928560468501527f3c636972636c652063783d22323530222063793d223337352220723d22333522604985015260698401525180936070840190611400565b01906070820152631e17b39f60e11b6073820152651e17b9bb339f60d11b607782015203605d810184520182611519565b611ae3565b93828192829086937a184f03e93ff9f4daa797ed6e38ed64bf6a1f0100000000000000009081811015610b88575b5050886d04ee2d6d415b85acef810000000080841015610b7a575b5050662386f26fc1000080831015610b6b575b506305f5e10080831015610b5c575b5061271080831015610b50575b50506064811015610b42575b1015610b3a575b90602191600192816109b185809401611ab1565b9650860101905b610b04575b8787610b00610aa08961090d608d8b87519384917f7b226e616d65223a202259696e2059616e67204e46542023000000000000000089840152610a09815180928b603887019101611400565b82017f222c20226465736372697074696f6e223a2022416e206f6e2d636861696e205960388201527f696e2059616e67204e46542e222c2022696d616765223a2022646174613a696d6058820152721859d94bdcdd99cade1b5b0ed8985cd94d8d0b606a1b6078820152610a86825180938b608b85019101611400565b0161227d60f01b608b82015203606d810184520182611519565b92610af1603d825180967f646174613a6170706c69636174696f6e2f6a736f6e3b6261736536342c00000087830152610ae181518092898686019101611400565b810103601d810187520185611519565b51928284938452830190611423565b0390f35b600019019083906f181899199a1a9b1b9c1cb0b131b232b360811b8282061a835304918215610b35579190826109b8565b6109bd565b60010161099d565b606460029104920191610996565b9301929004898061098a565b6008919492049101928a61097d565b6010919492049101928a61096e565b94019390910490888b61095b565b8b95500491508a80610940565b92509350915060018801808911610bf55789610912957f30302f737667222077696474683d2236303022206865696768743d2236303022956108dc61090d968f95607d978d610be5920690611c50565b519650949750509194509561059e565b634e487b7160e01b885260118652602488fd5b845162461bcd60e51b81529081018490526014602482015273151bdad95b88191bd95cc81b9bdd08195e1a5cdd60621b6044820152606490fd5b80fd5b91905034610cf9576080366003190112610cf957610c61611448565b90610c6a611463565b604435906064359467ffffffffffffffff8611610cf55736602387011215610cf55785013593610ca5610c9c8661153b565b94519485611519565b848452863660248789010111610c4257602086610ced976024610cf29a018389013786010152610cdd610cd884336116e0565b611607565b610ce88383836117a8565b6119da565b6116bc565b80f35b8680fd5b8280fd5b91905034610cf95780600319360112610cf957610d18611448565b9060243591821515809303610dc9576001600160a01b031692338414610d875750338452600560205280842083855260205280842060ff1981541660ff8416179055519081527f17307eab39ab6107e8899845ad3d59bd9653f200f220920489ca2b5937696c3160203392a380f35b6020606492519162461bcd60e51b8352820152601960248201527f4552433732313a20617070726f766520746f2063616c6c6572000000000000006044820152fd5b8480fd5b91905034610cf95760209081600319360112610f115782359181519381850185811067ffffffffffffffff821117610efe5783528585523315610ebd575091610cf293916002610ced94610e3f610e3985600052600260205260018060a01b0360406000205416151590565b15611a65565b600084815260026020526040902054610e62906001600160a01b03161515610e39565b3388526003815282882060018154019055838852528520336bffffffffffffffffffffffff60a01b8254161790558033867fddf252ad1be2c89b69c2b068fc378daa952ba7f163c4a11628f55a4df523b3ef8180a4336118be565b915162461bcd60e51b815291820181905260248201527f4552433732313a206d696e7420746f20746865207a65726f20616464726573736044820152606490fd5b634e487b7160e01b875260418252602487fd5b8380fd5b828434610c425780600319360112610c42578151918160019283549384811c91818616958615611012575b6020968785108114610fff578899509688969785829a529182600014610fd8575050600114610f7d575b505050610b009291610af1910385611519565b91908693508083527fb10e2d527612073b26eecdfd717e6a320cf44b4afac2b0732d9fcbe2b7fa0cf65b828410610fc05750505082010181610af1610b00610f6a565b8054848a018601528895508794909301928101610fa7565b60ff19168782015293151560051b86019093019350849250610af19150610b009050610f6a565b634e487b7160e01b835260228a52602483fd5b92607f1692610f40565b8391503461010b57602036600319011261010b576001600160a01b03611040611448565b1690811561105d5760208480858581526003845220549051908152f35b608490602085519162461bcd60e51b8352820152602960248201527f4552433732313a2061646472657373207a65726f206973206e6f7420612076616044820152683634b21037bbb732b960b91b6064820152fd5b828434610c42576020366003190112610c4257506110d2602092356115a3565b90516001600160a01b039091168152f35b50503461010b57610ced610cf2916110fa36611479565b91925192611107846114e1565b868452610cdd610cd884336116e0565b8334610c4257610cf261112936611479565b91611137610cd884336116e0565b6117a8565b905034610cf95781600319360112610cf957611156611448565b6024359290916001600160a01b0391908280611171876115a3565b1694169380851461125d5780331490811561123e575b50156111d657848652602052842080546001600160a01b031916831790556111ae836115a3565b167f8c5be1e5ebec7d5bd14f71427d1e84f3dd0314c0f7b2291e5b200ac8c7c3b9258480a480f35b6020608492519162461bcd60e51b8352820152603d60248201527f4552433732313a20617070726f76652063616c6c6572206973206e6f7420746f60448201527f6b656e206f776e6572206f7220617070726f76656420666f7220616c6c0000006064820152fd5b90508652600560205281862033875260205260ff828720541638611187565b506020608492519162461bcd60e51b8352820152602160248201527f4552433732313a20617070726f76616c20746f2063757272656e74206f776e656044820152603960f91b6064820152fd5b828434610c42576020366003190112610c4257506110d2602092356115c9565b828434610c425780600319360112610c425781519181825492600184811c9181861695861561138b575b6020968785108114610fff578899509688969785829a529182600014610fd857505060011461133057505050610b009291610af1910385611519565b91908693508280527f290decd9548b62a8d60345a988386fc84ba6bc95484008f6362f93160ef3e5635b8284106113735750505082010181610af1610b00610f6a565b8054848a01860152889550879490930192810161135a565b92607f16926112f4565b849134610cf9576020366003190112610cf9573563ffffffff60e01b8116809103610cf957602092506380ac58cd60e01b81149081156113ef575b81156113de575b5015158152f35b6301ffc9a760e01b149050836113d7565b635b5e139f60e01b811491506113d0565b60005b8381106114135750506000910152565b8181015183820152602001611403565b9060209161143c81518092818552858086019101611400565b601f01601f1916010190565b600435906001600160a01b038216820361145e57565b600080fd5b602435906001600160a01b038216820361145e57565b606090600319011261145e576001600160a01b0390600435828116810361145e5791602435908116810361145e579060443590565b610140810190811067ffffffffffffffff8211176114cb57604052565b634e487b7160e01b600052604160045260246000fd5b6020810190811067ffffffffffffffff8211176114cb57604052565b6040810190811067ffffffffffffffff8211176114cb57604052565b90601f8019910116810190811067ffffffffffffffff8211176114cb57604052565b67ffffffffffffffff81116114cb57601f01601f191660200190565b1561155e57565b60405162461bcd60e51b815260206004820152601860248201527f4552433732313a20696e76616c696420746f6b656e20494400000000000000006044820152606490fd5b6000908152600260205260409020546001600160a01b03166115c6811515611557565b90565b6000818152600260205260409020546115ec906001600160a01b03161515611557565b6000908152600460205260409020546001600160a01b031690565b1561160e57565b60405162461bcd60e51b815260206004820152602d60248201527f4552433732313a2063616c6c6572206973206e6f7420746f6b656e206f776e6560448201526c1c881bdc88185c1c1c9bdd9959609a1b6064820152608490fd5b60809060208152603260208201527f4552433732313a207472616e7366657220746f206e6f6e20455243373231526560408201527131b2b4bb32b91034b6b83632b6b2b73a32b960711b60608201520190565b156116c357565b60405162461bcd60e51b8152806116dc60048201611669565b0390fd5b906001600160a01b0380806116f4846115a3565b16931691838314938415611727575b508315611711575b50505090565b61171d919293506115c9565b161438808061170b565b909350600052600560205260406000208260005260205260ff604060002054169238611703565b1561175557565b60405162461bcd60e51b815260206004820152602560248201527f4552433732313a207472616e736665722066726f6d20696e636f72726563742060448201526437bbb732b960d91b6064820152608490fd5b906117d0916117b6846115a3565b6001600160a01b039391841692849290918316841461174e565b1691821561186d57816117ed916117e6866115a3565b161461174e565b7fddf252ad1be2c89b69c2b068fc378daa952ba7f163c4a11628f55a4df523b3ef60008481526004602052604081206bffffffffffffffffffffffff60a01b9081815416905583825260036020526040822060001981540190558482526040822060018154019055858252600260205284604083209182541617905580a4565b60405162461bcd60e51b8152602060048201526024808201527f4552433732313a207472616e7366657220746f20746865207a65726f206164646044820152637265737360e01b6064820152608490fd5b9192600092909190803b156119d05761190c946040518092630a85bd0160e11b9485835233600484015287602484015260448301526080606483015281878160209a8b966084830190611423565b03926001600160a01b03165af1849181611990575b5061197f575050503d600014611977573d61193b8161153b565b906119496040519283611519565b81528091833d92013e5b805191826119745760405162461bcd60e51b8152806116dc60048201611669565b01fd5b506060611953565b6001600160e01b0319161492509050565b9091508581813d83116119c9575b6119a88183611519565b81010312610dc957516001600160e01b031981168103610dc9579038611921565b503d61199e565b5050915050600190565b9293600093909291803b15611a5a57948491611a349660405180948193630a85bd0160e11b9788845233600485015260018060a01b0380921660248501526044840152608060648401528260209b8c976084830190611423565b0393165af1849181611990575061197f575050503d600014611977573d61193b8161153b565b505050915050600190565b15611a6c57565b60405162461bcd60e51b815260206004820152601c60248201527f4552433732313a20746f6b656e20616c7265616479206d696e746564000000006044820152606490fd5b90611abb8261153b565b611ac86040519182611519565b8281528092611ad9601f199161153b565b0190602036910137565b805115611c3c576040516060810181811067ffffffffffffffff8211176114cb57604052604081527f4142434445464748494a4b4c4d4e4f505152535455565758595a61626364656660208201527f6768696a6b6c6d6e6f707172737475767778797a303132333435363738392b2f60408201528151600292838201809211611c26576003918290046001600160fe1b0381168103611c2657611b89908594951b611ab1565b936020850193829183518401925b838110611bd55750505050510680600114611bc257600214611bb7575090565b603d90600019015390565b50603d9081600019820153600119015390565b85600491979293949701918251600190603f9082828260121c16880101518453828282600c1c16880101518385015382828260061c1688010151888501531685010151878201530195929190611b97565b634e487b7160e01b600052601160045260246000fd5b50604051611c49816114e1565b6000815290565b90600a811015611c615760051b0190565b634e487b7160e01b600052603260045260246000fdfea264697066735822122022a3c48a3612d711f72badd5e2341ed4448fa683881f61d73e9d1297815cc23764736f6c63430008110033",
  "devdoc": {
    "kind": "dev",
    "methods": {
      "approve(address,uint256)": {
        "details": "See {IERC721-approve}."
      },
      "balanceOf(address)": {
        "details": "See {IERC721-balanceOf}."
      },
      "getApproved(uint256)": {
        "details": "See {IERC721-getApproved}."
      },
      "isApprovedForAll(address,address)": {
        "details": "See {IERC721-isApprovedForAll}."
      },
      "name()": {
        "details": "See {IERC721Metadata-name}."
      },
      "ownerOf(uint256)": {
        "details": "See {IERC721-ownerOf}."
      },
      "safeTransferFrom(address,address,uint256)": {
        "details": "See {IERC721-safeTransferFrom}."
      },
      "safeTransferFrom(address,address,uint256,bytes)": {
        "details": "See {IERC721-safeTransferFrom}."
      },
      "setApprovalForAll(address,bool)": {
        "details": "See {IERC721-setApprovalForAll}."
      },
      "supportsInterface(bytes4)": {
        "details": "See {IERC165-supportsInterface}."
      },
      "symbol()": {
        "details": "See {IERC721Metadata-symbol}."
      },
      "tokenURI(uint256)": {
        "details": "See {IERC721Metadata-tokenURI}."
      },
      "transferFrom(address,address,uint256)": {
        "details": "See {IERC721-transferFrom}."
      }
    },
    "version": 1
  },
  "userdoc": {
    "kind": "user",
    "methods": {},
    "version": 1
  },
  "storageLayout": {
    "storage": [
      {
        "astId": 25,
        "contract": "contracts/YourCollectible.sol:YourCollectible",
        "label": "_name",
        "offset": 0,
        "slot": "0",
        "type": "t_string_storage"
      },
      {
        "astId": 27,
        "contract": "contracts/YourCollectible.sol:YourCollectible",
        "label": "_symbol",
        "offset": 0,
        "slot": "1",
        "type": "t_string_storage"
      },
      {
        "astId": 31,
        "contract": "contracts/YourCollectible.sol:YourCollectible",
        "label": "_owners",
        "offset": 0,
        "slot": "2",
        "type": "t_mapping(t_uint256,t_address)"
      },
      {
        "astId": 35,
        "contract": "contracts/YourCollectible.sol:YourCollectible",
        "label": "_balances",
        "offset": 0,
        "slot": "3",
        "type": "t_mapping(t_address,t_uint256)"
      },
      {
        "astId": 39,
        "contract": "contracts/YourCollectible.sol:YourCollectible",
        "label": "_tokenApprovals",
        "offset": 0,
        "slot": "4",
        "type": "t_mapping(t_uint256,t_address)"
      },
      {
        "astId": 45,
        "contract": "contracts/YourCollectible.sol:YourCollectible",
        "label": "_operatorApprovals",
        "offset": 0,
        "slot": "5",
        "type": "t_mapping(t_address,t_mapping(t_address,t_bool))"
      }
    ],
    "types": {
      "t_address": {
        "encoding": "inplace",
        "label": "address",
        "numberOfBytes": "20"
      },
      "t_bool": {
        "encoding": "inplace",
        "label": "bool",
        "numberOfBytes": "1"
      },
      "t_mapping(t_address,t_bool)": {
        "encoding": "mapping",
        "key": "t_address",
        "label": "mapping(address => bool)",
        "numberOfBytes": "32",
        "value": "t_bool"
      },
      "t_mapping(t_address,t_mapping(t_address,t_bool))": {
        "encoding": "mapping",
        "key": "t_address",
        "label": "mapping(address => mapping(address => bool))",
        "numberOfBytes": "32",
        "value": "t_mapping(t_address,t_bool)"
      },
      "t_mapping(t_address,t_uint256)": {
        "encoding": "mapping",
        "key": "t_address",
        "label": "mapping(address => uint256)",
        "numberOfBytes": "32",
        "value": "t_uint256"
      },
      "t_mapping(t_uint256,t_address)": {
        "encoding": "mapping",
        "key": "t_uint256",
        "label": "mapping(uint256 => address)",
        "numberOfBytes": "32",
        "value": "t_address"
      },
      "t_string_storage": {
        "encoding": "bytes",
        "label": "string",
        "numberOfBytes": "32"
      },
      "t_uint256": {
        "encoding": "inplace",
        "label": "uint256",
        "numberOfBytes": "32"
      }
    }
  }
}